{
  "_format": "hh-sol-artifact-1",
  "contractName": "VotingFactory",
  "sourceName": "contracts/VotingFactory.sol",
  "abi": [
    {
      "inputs": [
        {
          "internalType": "address",
          "name": "_protocolTreasury",
          "type": "address"
        },
        {
          "internalType": "address",
          "name": "_wheelPool",
          "type": "address"
        },
        {
          "internalType": "address",
          "name": "_usdcToken",
          "type": "address"
        }
      ],
      "stateMutability": "nonpayable",
      "type": "constructor"
    },
    {
      "inputs": [],
      "name": "AlreadyCancelled",
      "type": "error"
    },
    {
      "inputs": [],
      "name": "DurationTooLong",
      "type": "error"
    },
    {
      "inputs": [],
      "name": "DurationTooShort",
      "type": "error"
    },
    {
      "inputs": [],
      "name": "EmptyName",
      "type": "error"
    },
    {
      "inputs": [],
      "name": "InvalidDepositAmount",
      "type": "error"
    },
    {
      "inputs": [],
      "name": "InvalidIndex",
      "type": "error"
    },
    {
      "inputs": [],
      "name": "NameAlreadyUsed",
      "type": "error"
    },
    {
      "inputs": [],
      "name": "NameTooLong",
      "type": "error"
    },
    {
      "inputs": [],
      "name": "NotValidVoting",
      "type": "error"
    },
    {
      "inputs": [],
      "name": "NotWhitelisted",
      "type": "error"
    },
    {
      "inputs": [],
      "name": "OnlyOwner",
      "type": "error"
    },
    {
      "inputs": [],
      "name": "OnlyValidVotings",
      "type": "error"
    },
    {
      "inputs": [],
      "name": "StartTimeInPast",
      "type": "error"
    },
    {
      "inputs": [],
      "name": "VotingAlreadyStarted",
      "type": "error"
    },
    {
      "inputs": [],
      "name": "VotingNotCancellable",
      "type": "error"
    },
    {
      "inputs": [],
      "name": "ZeroAddress",
      "type": "error"
    },
    {
      "anonymous": false,
      "inputs": [
        {
          "indexed": true,
          "internalType": "address",
          "name": "previousOwner",
          "type": "address"
        },
        {
          "indexed": true,
          "internalType": "address",
          "name": "newOwner",
          "type": "address"
        }
      ],
      "name": "OwnershipTransferred",
      "type": "event"
    },
    {
      "anonymous": false,
      "inputs": [
        {
          "indexed": true,
          "internalType": "address",
          "name": "oldTreasury",
          "type": "address"
        },
        {
          "indexed": true,
          "internalType": "address",
          "name": "newTreasury",
          "type": "address"
        }
      ],
      "name": "TreasuryUpdated",
      "type": "event"
    },
    {
      "anonymous": false,
      "inputs": [
        {
          "indexed": true,
          "internalType": "address",
          "name": "oldToken",
          "type": "address"
        },
        {
          "indexed": true,
          "internalType": "address",
          "name": "newToken",
          "type": "address"
        }
      ],
      "name": "USDCTokenUpdated",
      "type": "event"
    },
    {
      "anonymous": false,
      "inputs": [
        {
          "indexed": true,
          "internalType": "address",
          "name": "votingAddress",
          "type": "address"
        },
        {
          "indexed": false,
          "internalType": "string",
          "name": "reason",
          "type": "string"
        }
      ],
      "name": "UpkeepFailed",
      "type": "event"
    },
    {
      "anonymous": false,
      "inputs": [
        {
          "indexed": true,
          "internalType": "address",
          "name": "votingAddress",
          "type": "address"
        },
        {
          "indexed": false,
          "internalType": "uint256",
          "name": "timestamp",
          "type": "uint256"
        }
      ],
      "name": "UpkeepPerformed",
      "type": "event"
    },
    {
      "anonymous": false,
      "inputs": [
        {
          "indexed": true,
          "internalType": "address",
          "name": "user",
          "type": "address"
        },
        {
          "indexed": true,
          "internalType": "address",
          "name": "votingAddress",
          "type": "address"
        }
      ],
      "name": "UserVoteRecorded",
      "type": "event"
    },
    {
      "anonymous": false,
      "inputs": [
        {
          "indexed": true,
          "internalType": "address",
          "name": "votingAddress",
          "type": "address"
        },
        {
          "indexed": false,
          "internalType": "string",
          "name": "name",
          "type": "string"
        },
        {
          "indexed": true,
          "internalType": "address",
          "name": "cancelledBy",
          "type": "address"
        }
      ],
      "name": "VotingCancelled",
      "type": "event"
    },
    {
      "anonymous": false,
      "inputs": [
        {
          "indexed": true,
          "internalType": "address",
          "name": "votingAddress",
          "type": "address"
        },
        {
          "indexed": false,
          "internalType": "string",
          "name": "name",
          "type": "string"
        },
        {
          "indexed": false,
          "internalType": "uint256",
          "name": "voteDepositAmount",
          "type": "uint256"
        },
        {
          "indexed": false,
          "internalType": "uint256",
          "name": "votingDuration",
          "type": "uint256"
        },
        {
          "indexed": false,
          "internalType": "uint256",
          "name": "votingStartTime",
          "type": "uint256"
        },
        {
          "indexed": false,
          "internalType": "uint256",
          "name": "votingEndTime",
          "type": "uint256"
        },
        {
          "indexed": false,
          "internalType": "uint256",
          "name": "createdAt",
          "type": "uint256"
        },
        {
          "indexed": true,
          "internalType": "address",
          "name": "creator",
          "type": "address"
        }
      ],
      "name": "VotingCreated",
      "type": "event"
    },
    {
      "anonymous": false,
      "inputs": [
        {
          "indexed": true,
          "internalType": "address",
          "name": "oldWheelPool",
          "type": "address"
        },
        {
          "indexed": true,
          "internalType": "address",
          "name": "newWheelPool",
          "type": "address"
        }
      ],
      "name": "WheelPoolUpdated",
      "type": "event"
    },
    {
      "anonymous": false,
      "inputs": [
        {
          "indexed": true,
          "internalType": "address",
          "name": "user",
          "type": "address"
        },
        {
          "indexed": false,
          "internalType": "bool",
          "name": "status",
          "type": "bool"
        }
      ],
      "name": "WhitelistUpdated",
      "type": "event"
    },
    {
      "inputs": [
        {
          "internalType": "uint256",
          "name": "",
          "type": "uint256"
        }
      ],
      "name": "allVotings",
      "outputs": [
        {
          "internalType": "address",
          "name": "",
          "type": "address"
        }
      ],
      "stateMutability": "view",
      "type": "function"
    },
    {
      "inputs": [
        {
          "internalType": "address[]",
          "name": "users",
          "type": "address[]"
        },
        {
          "internalType": "bool",
          "name": "status",
          "type": "bool"
        }
      ],
      "name": "batchUpdateWhitelist",
      "outputs": [],
      "stateMutability": "nonpayable",
      "type": "function"
    },
    {
      "inputs": [
        {
          "internalType": "address",
          "name": "votingAddress",
          "type": "address"
        }
      ],
      "name": "cancelVoting",
      "outputs": [],
      "stateMutability": "nonpayable",
      "type": "function"
    },
    {
      "inputs": [
        {
          "internalType": "bytes",
          "name": "",
          "type": "bytes"
        }
      ],
      "name": "checkUpkeep",
      "outputs": [
        {
          "internalType": "bool",
          "name": "upkeepNeeded",
          "type": "bool"
        },
        {
          "internalType": "bytes",
          "name": "performData",
          "type": "bytes"
        }
      ],
      "stateMutability": "view",
      "type": "function"
    },
    {
      "inputs": [
        {
          "internalType": "string",
          "name": "name",
          "type": "string"
        },
        {
          "internalType": "uint256",
          "name": "voteDepositAmount",
          "type": "uint256"
        },
        {
          "internalType": "uint256",
          "name": "votingStartTime",
          "type": "uint256"
        },
        {
          "internalType": "uint256",
          "name": "votingDuration",
          "type": "uint256"
        }
      ],
      "name": "createVoting",
      "outputs": [
        {
          "internalType": "address",
          "name": "votingAddress",
          "type": "address"
        }
      ],
      "stateMutability": "nonpayable",
      "type": "function"
    },
    {
      "inputs": [],
      "name": "getActiveVotings",
      "outputs": [
        {
          "internalType": "address[]",
          "name": "",
          "type": "address[]"
        }
      ],
      "stateMutability": "view",
      "type": "function"
    },
    {
      "inputs": [],
      "name": "getAllVotings",
      "outputs": [
        {
          "internalType": "address[]",
          "name": "",
          "type": "address[]"
        }
      ],
      "stateMutability": "view",
      "type": "function"
    },
    {
      "inputs": [],
      "name": "getEndedVotings",
      "outputs": [
        {
          "internalType": "address[]",
          "name": "",
          "type": "address[]"
        }
      ],
      "stateMutability": "view",
      "type": "function"
    },
    {
      "inputs": [],
      "name": "getUpcomingVotings",
      "outputs": [
        {
          "internalType": "address[]",
          "name": "",
          "type": "address[]"
        }
      ],
      "stateMutability": "view",
      "type": "function"
    },
    {
      "inputs": [
        {
          "internalType": "address",
          "name": "user",
          "type": "address"
        }
      ],
      "name": "getUserVotings",
      "outputs": [
        {
          "internalType": "address[]",
          "name": "",
          "type": "address[]"
        }
      ],
      "stateMutability": "view",
      "type": "function"
    },
    {
      "inputs": [
        {
          "internalType": "uint256",
          "name": "index",
          "type": "uint256"
        }
      ],
      "name": "getVoting",
      "outputs": [
        {
          "internalType": "address",
          "name": "",
          "type": "address"
        }
      ],
      "stateMutability": "view",
      "type": "function"
    },
    {
      "inputs": [
        {
          "internalType": "address",
          "name": "",
          "type": "address"
        }
      ],
      "name": "isCancelled",
      "outputs": [
        {
          "internalType": "bool",
          "name": "",
          "type": "bool"
        }
      ],
      "stateMutability": "view",
      "type": "function"
    },
    {
      "inputs": [
        {
          "internalType": "address",
          "name": "",
          "type": "address"
        }
      ],
      "name": "isValidVoting",
      "outputs": [
        {
          "internalType": "bool",
          "name": "",
          "type": "bool"
        }
      ],
      "stateMutability": "view",
      "type": "function"
    },
    {
      "inputs": [
        {
          "internalType": "address",
          "name": "",
          "type": "address"
        }
      ],
      "name": "isWhitelisted",
      "outputs": [
        {
          "internalType": "bool",
          "name": "",
          "type": "bool"
        }
      ],
      "stateMutability": "view",
      "type": "function"
    },
    {
      "inputs": [],
      "name": "owner",
      "outputs": [
        {
          "internalType": "address",
          "name": "",
          "type": "address"
        }
      ],
      "stateMutability": "view",
      "type": "function"
    },
    {
      "inputs": [
        {
          "internalType": "bytes",
          "name": "performData",
          "type": "bytes"
        }
      ],
      "name": "performUpkeep",
      "outputs": [],
      "stateMutability": "nonpayable",
      "type": "function"
    },
    {
      "inputs": [],
      "name": "protocolTreasury",
      "outputs": [
        {
          "internalType": "address",
          "name": "",
          "type": "address"
        }
      ],
      "stateMutability": "view",
      "type": "function"
    },
    {
      "inputs": [
        {
          "internalType": "address",
          "name": "user",
          "type": "address"
        },
        {
          "internalType": "address",
          "name": "votingAddress",
          "type": "address"
        }
      ],
      "name": "recordUserVote",
      "outputs": [],
      "stateMutability": "nonpayable",
      "type": "function"
    },
    {
      "inputs": [
        {
          "internalType": "address",
          "name": "newOwner",
          "type": "address"
        }
      ],
      "name": "transferOwnership",
      "outputs": [],
      "stateMutability": "nonpayable",
      "type": "function"
    },
    {
      "inputs": [
        {
          "internalType": "address",
          "name": "newTreasury",
          "type": "address"
        }
      ],
      "name": "updateTreasury",
      "outputs": [],
      "stateMutability": "nonpayable",
      "type": "function"
    },
    {
      "inputs": [
        {
          "internalType": "address",
          "name": "user",
          "type": "address"
        },
        {
          "internalType": "bool",
          "name": "status",
          "type": "bool"
        }
      ],
      "name": "updateWhitelist",
      "outputs": [],
      "stateMutability": "nonpayable",
      "type": "function"
    },
    {
      "inputs": [],
      "name": "usdcToken",
      "outputs": [
        {
          "internalType": "address",
          "name": "",
          "type": "address"
        }
      ],
      "stateMutability": "view",
      "type": "function"
    },
    {
      "inputs": [
        {
          "internalType": "address",
          "name": "",
          "type": "address"
        },
        {
          "internalType": "uint256",
          "name": "",
          "type": "uint256"
        }
      ],
      "name": "userVotings",
      "outputs": [
        {
          "internalType": "address",
          "name": "",
          "type": "address"
        }
      ],
      "stateMutability": "view",
      "type": "function"
    },
    {
      "inputs": [
        {
          "internalType": "string",
          "name": "",
          "type": "string"
        }
      ],
      "name": "votingByName",
      "outputs": [
        {
          "internalType": "address",
          "name": "",
          "type": "address"
        }
      ],
      "stateMutability": "view",
      "type": "function"
    },
    {
      "inputs": [],
      "name": "votingCount",
      "outputs": [
        {
          "internalType": "uint256",
          "name": "",
          "type": "uint256"
        }
      ],
      "stateMutability": "view",
      "type": "function"
    },
    {
      "inputs": [
        {
          "internalType": "address",
          "name": "",
          "type": "address"
        }
      ],
      "name": "votingIndex",
      "outputs": [
        {
          "internalType": "uint256",
          "name": "",
          "type": "uint256"
        }
      ],
      "stateMutability": "view",
      "type": "function"
    },
    {
      "inputs": [],
      "name": "wheelPool",
      "outputs": [
        {
          "internalType": "address",
          "name": "",
          "type": "address"
        }
      ],
      "stateMutability": "view",
      "type": "function"
    }
  ],
  "bytecode": "0x60803461011c57601f615d5938819003918201601f19168301916001600160401b038311848410176101205780849260609460405283398101031261011c5761004781610134565b90610060604061005960208401610134565b9201610134565b916001600160a01b03168015801561010b575b80156100fa575b6100eb575f80546001600160a01b03199081163390811783556001805483169490941784556002805483166001600160a01b039687161790556003805490921695909416949094179093559082526008602052604091829020805460ff1916909117905551615c1090816101498239f35b63d92e233d60e01b5f5260045ffd5b506001600160a01b0383161561007a565b506001600160a01b03821615610073565b5f80fd5b634e487b7160e01b5f52604160045260245ffd5b51906001600160a01b038216820361011c5756fe6080806040526004361015610012575f80fd5b5f3560e01c9081630d392cd914611cfb5750806311eac85514611cd357806312a974c314611cab57806334524fca14611c825780633af32abf14611c455780633afc728214611c0d5780634585e33b146118605780634929bd831461157d57806350b53f0614611545578063611274c5146114255780636e04ff0d146111545780637f51bb1f146110d8578063803db96d146110b057806381976f4a14610dfe57806385ba4ad114610d9c5780638da5cb5b14610d7557806390a0725014610cfa578063a5b4a7f5146109e4578063ae31042414610983578063b1e3a48f146106ae578063b424ab8414610691578063c31af84f146105a7578063c342da0c1461056a578063e4c41bb4146104e1578063ed4ae6b5146104a4578063ef1608d7146101dc5763f2fde38b14610145575f80fd5b346101d85760203660031901126101d85761015e611d8d565b5f54906001600160a01b03821690338290036101c9576001600160a01b03169182156101ba576001600160a01b03191682175f9081557f8be0079c531659141344cd1fd0a4f28419497f9722a3daafe3b4186f6b6457e09080a3005b63d92e233d60e01b5f5260045ffd5b635fc483c560e01b5f5260045ffd5b5f80fd5b346101d8575f3660031901126101d8576004545f5f5b828110610380575061020390612025565b5f915f5b818110610220576040518061021c8582611e66565b0390f35b61022981611db2565b60018060a01b0391549060031b1c165f52600a60205260ff60405f2054166103775761025481611db2565b905460405163040334c160e31b81529160031b1c6001600160a01b0316602082600481845afa918215610338575f92610343575b5060206004916040519283809262f539b760e51b82525afa80156103385761030a575b5042108015610303575b80156102fc575b6102cc575b600101905b90610207565b92600180916102da86611db2565b838060a01b0391549060031b1c166102f28287611f41565b52019390506102c1565b505f6102bc565b505f6102b5565b6020813d8211610330575b8161032260209383611ea8565b810103126101d857516102ab565b3d9150610315565b6040513d5f823e3d90fd5b9091506020813d821161036f575b8161035e60209383611ea8565b810103126101d85751906020610288565b3d9150610351565b600101906102c6565b61038981611db2565b60018060a01b0391549060031b1c165f52600a60205260ff60405f205416610421576103b481611db2565b905460405163040334c160e31b81529160031b1c6001600160a01b0316602082600481845afa918215610338575f92610470575b5060206004916040519283809262f539b760e51b82525afa801561033857610442575b504210801561043b575b8015610434575b610429575b6001016101f2565b600190910190610421565b505f61041c565b505f610415565b6020813d8211610468575b8161045a60209383611ea8565b810103126101d8575161040b565b3d915061044d565b9091506020813d821161049c575b8161048b60209383611ea8565b810103126101d857519060206103e8565b3d915061047e565b346101d85760203660031901126101d8576001600160a01b036104c5611d8d565b165f526007602052602060ff60405f2054166040519015158152f35b346101d8575f3660031901126101d85760405180602060045491828152019060045f527f8a35acfbc15ff81a39ae7d344fd709f28e8600b4aa8c65c6b64bfe7fe36bd19b905f5b81811061054b5761021c8561053f81870382611ea8565b60405191829182611e66565b82546001600160a01b0316845260209093019260019283019201610528565b346101d85760203660031901126101d8576001600160a01b0361058b611d8d565b165f52600a602052602060ff60405f2054166040519015158152f35b346101d85760403660031901126101d8576105c0611d8d565b6024356001600160a01b038116918282036101d857335f52600760205260ff60405f20541615610682576001600160a01b03165f8181526009602052604090208054919290600160401b83101561066e578261062491600161064895018155611dde565b81546001600160a01b0393841660039290921b91821b9390911b1916919091179055565b7f690f036a8625f6cb3e84ada77e32e522119a331c068e60bede380c96883712115f80a3005b634e487b7160e01b5f52604160045260245ffd5b63b8c83f4b60e01b5f5260045ffd5b346101d8575f3660031901126101d8576020600454604051908152f35b346101d8575f3660031901126101d8576004545f5f5b82811061085157506106d590612025565b5f915f5b8181106106ee576040518061021c8582611e66565b6106f781611db2565b60018060a01b0391549060031b1c165f52600a60205260ff60405f2054166108485761072281611db2565b905460405163040334c160e31b81529160031b1c6001600160a01b0316602082600481845afa918215610338575f92610814575b509060206004926040519384809262f539b760e51b82525afa918215610338575f926107e1575b5042101590816107d7575b5080156107d0575b6107a0575b600101905b906106d9565b92600180916107ae86611db2565b838060a01b0391549060031b1c166107c68287611f41565b5201939050610795565b505f610790565b9050421085610788565b9091506020813d821161080c575b816107fc60209383611ea8565b810103126101d85751908661077d565b3d91506107ef565b91506020823d8211610840575b8161082e60209383611ea8565b810103126101d8579051906020610756565b3d9150610821565b6001019061079a565b61085a81611db2565b60018060a01b0391549060031b1c165f52600a60205260ff60405f2054166108f85761088581611db2565b905460405163040334c160e31b81529160031b1c6001600160a01b0316602082600481845afa918215610338575f9261094f575b509060206004926040519384809262f539b760e51b82525afa918215610338575f9261091c575b504210159081610912575b50801561090b575b610900575b6001016106c4565b6001909101906108f8565b505f6108f3565b90504210846108eb565b9091506020813d8211610947575b8161093760209383611ea8565b810103126101d8575190856108e0565b3d915061092a565b91506020823d821161097b575b8161096960209383611ea8565b810103126101d85790519060206108b9565b3d915061095c565b346101d85760203660031901126101d8576004356001600160401b0381116101d8576109b56020913690600401611ee4565b8160405191805191829101835e600590820190815281900382019020546040516001600160a01b039091168152f35b346101d85760803660031901126101d8576004356001600160401b0381116101d857610a14903690600401611ee4565b60243560443590606435335f52600860205260ff60405f2054161580610ce6575b610cd7578290845115610cc85760c8855111610cb9576040519385519460208701958087835e60059082019081528190036020019020546001600160a01b0316610caa57629896808410610c9b57629896808406610c9b5761012c8210610c8c576301e133808211610c7d5780610c6757504291505b60015460025460405191613bac808401926001600160a01b039283169216906001600160401b0384118585101761066e57849360a091612058863960c08152610af760c082018c611e42565b938960208301528860408301528760608301526080820152015203905ff08015610338576003546001600160a01b03918216959116853b156101d85760405190630f5a9d0160e01b825260048201525f81602481838a5af1801561033857610c57575b506004549081600160401b81101561066e5786610624826001610b8294016004556004611dde565b6020604051809289518091835e81016005815203019020856bffffffffffffffffffffffff60a01b825416179055845f52600660205260405f2055835f52600760205260405f20600160ff1982541617905580820194858311610c435760209585937f6c8ff4ebede8127126f6b3e225c0a615b8355393e3131627d47662dd035658aa93610c1b6040519460c0865260c0860190611e42565b96898501526040840152606083015260808201524260a08201528033940390a3604051908152f35b634e487b7160e01b5f52601160045260245ffd5b5f610c6191611ea8565b86610b5a565b421115610aab576326e687eb60e01b5f5260045ffd5b634a94fa8360e11b5f5260045ffd5b6325c3636760e01b5f5260045ffd5b63fe9ba5cd60e01b5f5260045ffd5b630e83509160e41b5f5260045ffd5b63680b6caf60e01b5f5260045ffd5b632ef1310560e01b5f5260045ffd5b630b094f2760e31b5f5260045ffd5b505f546001600160a01b0316331415610a35565b346101d85760203660031901126101d8576001600160a01b03610d1b611d8d565b165f52600960205260405f206040519081602082549182815201915f5260205f20905f5b818110610d565761021c8561053f81870382611ea8565b82546001600160a01b0316845260209093019260019283019201610d3f565b346101d8575f3660031901126101d8575f546040516001600160a01b039091168152602090f35b346101d85760403660031901126101d857610db5611d8d565b6001600160a01b03165f908152600960205260409020805460243591908210156101d857602091610de591611dde565b905460405160039290921b1c6001600160a01b03168152f35b346101d8575f3660031901126101d8576004546001905f805b828110610f915750610e2890612025565b905f5f5b828110610e41576040518061021c8682611e66565b610e4a81611db2565b60018060a01b0391549060031b1c165f52600a60205260ff60405f205416610f8857610e7581611db2565b905460405163040334c160e31b815260039290921b1c6001600160a01b031690602081600481855afa801561033857610f58575b5060206004916040519283809262f539b760e51b82525afa80156103385786915f91610f24575b505f91610f19575b50610ee9575b600101915b91610e2c565b9060018091610ef784611db2565b838060a01b0391549060031b1c16610f0f8288611f41565b5201919050610ede565b905042101586610ed8565b9150506020813d8211610f50575b81610f3f60209383611ea8565b810103126101d85785905187610ed0565b3d9150610f32565b6020813d8211610f80575b81610f7060209383611ea8565b810103126101d857506020610ea9565b3d9150610f63565b60010191610ee3565b610f9a81611db2565b60018060a01b0391549060031b1c165f52600a60205260ff60405f20541661102e57610fc581611db2565b905460405163040334c160e31b815260039290921b1c6001600160a01b031690602081600481855afa801561033857611080575b5060206004916040519283809262f539b760e51b82525afa80156103385785915f9161104c575b505f91611041575b50611036575b600101610e17565b60019091019061102e565b905042101585611028565b9150506020813d8211611078575b8161106760209383611ea8565b810103126101d85784905186611020565b3d915061105a565b6020813d82116110a8575b8161109860209383611ea8565b810103126101d857506020610ff9565b3d915061108b565b346101d8575f3660031901126101d8576001546040516001600160a01b039091168152602090f35b346101d85760203660031901126101d8576110f1611d8d565b5f546001600160a01b031633036101c9576001600160a01b031680156101ba57600180546001600160a01b0319811683179091556001600160a01b03167f4ab5be82436d353e61ca18726e984e561f5c1cc7c6d38b29d2553c790434705a5f80a3005b346101d85761116236611df3565b5050606060045461117281612025565b5f915f5b81811061121657505081151591826111a7575b505061021c6040519283928352604060208401526040830190611e42565b9092506111b381612025565b905f5b8181106111ee5750506111d89192506111e69060405192839160208301611e66565b03601f198101835282611ea8565b908280611189565b6001906001600160a01b036112038288611f41565b511661120f8286611f41565b52016111b6565b61121f81611db2565b60018060a01b0391549060031b1c165f52600a60205260ff60405f20541661141c5761124a81611db2565b905460405162f539b760e51b815260039290921b1c6001600160a01b031690602081600481855afa908115610338575f916113eb575b50421015908161139e575b81611341575b816112d8575b506112a8575b600101905b90611176565b92600180916112b686611db2565b838060a01b0391549060031b1c166112ce8287611f41565b520193905061129d565b6040516311eac85560e01b81529150602090829060049082905afa908115610338575f91611313575b506001600160a01b0316151586611297565b611334915060203d811161133a575b61132c8183611ea8565b810190611f6d565b86611301565b503d611322565b6040516305f9be7160e31b8152909150602081600481855afa908115610338575f91611370575b501590611291565b611391915060203d8111611397575b6113898183611ea8565b810190611f55565b87611368565b503d61137f565b604051631ebc968760e11b8152909150602081600481855afa908115610338575f916113cd575b50159061128b565b6113e5915060203d8111611397576113898183611ea8565b876113c5565b90506020813d8211611414575b8161140560209383611ea8565b810103126101d8575187611280565b3d91506113f8565b600101906112a2565b346101d85760403660031901126101d8576004356001600160401b0381116101d857366023820112156101d85780600401356001600160401b0381116101d8576024820191602436918360051b0101116101d857611481611da3565b5f549091906001600160a01b031633036101c95790801515905f5b8381106114a557005b6001600160a01b036114c06114bb838789612001565b612011565b16156101ba576001906001600160a01b036114df6114bb83888a612001565b165f5260086020526115008360405f209060ff801983541691151516179055565b818060a01b036115146114bb83888a612001565b167ff93f9a76c1bf3444d22400a00cb9fe990e6abe9dbb333fda48859cfee864543d6020604051878152a20161149c565b346101d85760203660031901126101d8576001600160a01b03611566611d8d565b165f526006602052602060405f2054604051908152f35b346101d85760203660031901126101d8576001600160a01b0361159e611d8d565b16805f52600760205260ff60405f2054161561185157805f52600a60205260ff60405f205416611842576040516302d05d3f60e01b8152602081600481855afa908115610338575f91611823575b506001600160a01b03163314158061180f575b610cd75760405163040334c160e31b8152602081600481855afa908115610338575f916117dd575b504210156117ce57604051638337a23d60e01b8152602081600481855afa908115610338575f9161179c575b5061178d576040516306fdde0360e01b8152905f82600481845afa918215610338575f92611712575b50805f52600a60205260405f20600160ff19825416179055805f52600760205260405f2060ff198154169055604051602081845180838701835e810160058152030190206bffffffffffffffffffffffff60a01b81541690557fc0720ebc62e969b296b6c23f99706661585cc4033cda42585897b53f50792d6a604051602081528061170d33956020830190611e42565b0390a3005b9091503d805f833e6117248183611ea8565b8101906020818303126101d8578051906001600160401b0382116101d8570181601f820112156101d85780519061175a82611ec9565b926117686040519485611ea8565b828452602083830101116101d857815f9260208093018386015e83010152908261167c565b63465f9b6960e01b5f5260045ffd5b90506020813d6020116117c6575b816117b760209383611ea8565b810103126101d8575182611653565b3d91506117aa565b6301da8d1f60e51b5f5260045ffd5b90506020813d602011611807575b816117f860209383611ea8565b810103126101d8575182611627565b3d91506117eb565b505f546001600160a01b03163314156115ff565b61183c915060203d60201161133a5761132c8183611ea8565b826115ec565b6354e3762560e01b5f5260045ffd5b63ae76789f60e01b5f5260045ffd5b346101d85761186e36611df3565b8101906020818303126101d8578035906001600160401b0382116101d857019080601f830112156101d8578135906118a582611f2a565b926118b36040519485611ea8565b82845260208085019360051b8201019182116101d857602001915b818310611bed57838051600a81115f14611be85750600a5b5f5b8181106118f157005b6001600160a01b036119038285611f41565b51169060405162f539b760e51b8152602081600481865afa908115610338575f91611bb7575b5042101580611b6d575b80611b23575b80611acf575b61194e575b60019150016118e8565b813b156101d8575f80600193604460405180948193634585e33b60e01b8352602060048401528160248401525af19081611abf575b50611a7e57815f60033d11611a6e575b6308c379a014611a02575b1561194457818060a01b036119b38286611f41565b51167fc1bdde18fe95d2ac9d4b5c41fbc291986236156aa281d12075c8ee91bfbdef07606060405160208152600d60208201526c2ab735b737bbb71032b93937b960991b6040820152a2611944565b611a0a611f8c565b80611a16575b5061199e565b90505f907fc1bdde18fe95d2ac9d4b5c41fbc291986236156aa281d12075c8ee91bfbdef07611a65858060a01b03611a4e868a611f41565b511692604051918291602083526020830190611e42565b0390a285611a10565b5060045f803e5f5160e01c611993565b818060a01b03611a8e8286611f41565b51167f055388373cb05589ada6902083001c323d550901fdaf02f8d0b7412e373b87c86020604051428152a2611944565b5f611ac991611ea8565b85611983565b506040516311eac85560e01b8152602081600481865afa908115610338575f91611b05575b506001600160a01b0316151561193f565b611b1d915060203d811161133a5761132c8183611ea8565b85611af4565b506040516305f9be7160e31b8152602081600481865afa908115610338575f91611b4f575b5015611939565b611b67915060203d8111611397576113898183611ea8565b85611b48565b50604051631ebc968760e11b8152602081600481865afa908115610338575f91611b99575b5015611933565b611bb1915060203d8111611397576113898183611ea8565b85611b92565b90506020813d8211611be0575b81611bd160209383611ea8565b810103126101d8575185611929565b3d9150611bc4565b6118e6565b82356001600160a01b03811681036101d8578152602092830192016118ce565b346101d85760203660031901126101d857600435600454811015611c3657610de5602091611db2565b6363df817160e01b5f5260045ffd5b346101d85760203660031901126101d8576001600160a01b03611c66611d8d565b165f526008602052602060ff60405f2054166040519015158152f35b346101d85760203660031901126101d8576004356004548110156101d857610de5602091611db2565b346101d8575f3660031901126101d8576002546040516001600160a01b039091168152602090f35b346101d8575f3660031901126101d8576003546040516001600160a01b039091168152602090f35b346101d85760403660031901126101d857611d14611d8d565b90611d1d611da3565b5f549092906001600160a01b031633036101c9576001600160a01b03169182156101ba577ff93f9a76c1bf3444d22400a00cb9fe990e6abe9dbb333fda48859cfee864543d91602091845f5260088352611d868160405f209060ff801983541691151516179055565b15158152a2005b600435906001600160a01b03821682036101d857565b6024359081151582036101d857565b600454811015611dca5760045f5260205f2001905f90565b634e487b7160e01b5f52603260045260245ffd5b8054821015611dca575f5260205f2001905f90565b9060206003198301126101d8576004356001600160401b0381116101d857826023820112156101d8578060040135926001600160401b0384116101d857602484830101116101d8576024019190565b805180835260209291819084018484015e5f828201840152601f01601f1916010190565b60206040818301928281528451809452019201905f5b818110611e895750505090565b82516001600160a01b0316845260209384019390920191600101611e7c565b90601f801991011681019081106001600160401b0382111761066e57604052565b6001600160401b03811161066e57601f01601f191660200190565b81601f820112156101d857803590611efb82611ec9565b92611f096040519485611ea8565b828452602083830101116101d857815f926020809301838601378301015290565b6001600160401b03811161066e5760051b60200190565b8051821015611dca5760209160051b010190565b908160209103126101d8575180151581036101d85790565b908160209103126101d857516001600160a01b03811681036101d85790565b5f60443d10611ff0576040513d600319016004823e8051913d60248401116001600160401b03841117611ffb57828201928351916001600160401b038311611ff3573d84016003190185840160200111611ff35750611ff092910160200190611ea8565b90565b949350505050565b92915050565b9190811015611dca5760051b0190565b356001600160a01b03811681036101d85790565b9061202f82611f2a565b61203c6040519182611ea8565b828152809261204d601f1991611f2a565b019060203691013756fe608080604052346105ad57613bac803803809161001c82856105cc565b833981019060c0818303126105ad5780516001600160401b0381116105ad57810182601f820112156105ad578051906001600160401b0382116104405760405193610071601f8401601f1916602001866105cc565b828552602083830101116105ad57815f9260208093018387015e8401015260208101516040820151906060830151906100b860a06100b1608087016105ef565b95016105ef565b935f60606040516100c8816105b1565b8281528260208201528260408201520152731364cbbf2cdf5032c47d8226a6f6fbd2afcdacac60606040516100fc816105b1565b73687820221192c5b662b25367f70076a37bc79b6c80825273848b0066793bcc60346da1f49049357399b8d5956020830181905273a02cda4ca3a71d7c46997716f4283aa851c288126040840181905293909201939093525f516020613b8c5f395f51905f5280546001600160a01b031990811690941790555f516020613b6c5f395f51905f528054841690911790557f9e7b61f58c47dc699ac88507c4f5bb9f121c03808c5676a8078fe583e46497028054831690911790557f9e7b61f58c47dc699ac88507c4f5bb9f121c03808c5676a8078fe583e46497038054909116731364cbbf2cdf5032c47d8226a6f6fbd2afcdacac1790556001600160a01b0316938415610568576001600160a01b03169485156105235761012c83106104de5762989680821061049957629896808206610454578051906001600160401b038211610440575f5490600182811c92168015610436575b60208310146104225781601f8493116103b5575b50602090601f8311600114610352575f92610347575b50508160011b915f199060031b1c1916175f555b600655600280546001600160a01b031990811633179091556003805490911632179055600782905581019081106103335760085560018060a01b0319600454161760045560018060a01b031960055416176005556102f96102f0610603565b80600b55610690565b5061030e610305610603565b80600c55610690565b5061032361031a610603565b80600d55610690565b5060405161347d90816106ef8239f35b634e487b7160e01b5f52601160045260245ffd5b015190505f8061027d565b5f8080528281209350601f198516905b81811061039d5750908460019594939210610385575b505050811b015f55610291565b01515f1960f88460031b161c191690555f8080610378565b92936020600181928786015181550195019301610362565b5f80529091507f290decd9548b62a8d60345a988386fc84ba6bc95484008f6362f93160ef3e563601f840160051c81019160208510610418575b90601f859493920160051c01905b81811061040a5750610267565b5f81558493506001016103fd565b90915081906103ef565b634e487b7160e01b5f52602260045260245ffd5b91607f1691610253565b634e487b7160e01b5f52604160045260245ffd5b60405162461bcd60e51b815260206004820152601e60248201527f566f74696e673a20696e76616c6964206465706f73697420616d6f756e7400006044820152606490fd5b60405162461bcd60e51b815260206004820152601960248201527f566f74696e673a206465706f73697420746f6f20736d616c6c000000000000006044820152606490fd5b60405162461bcd60e51b815260206004820152601a60248201527f566f74696e673a206475726174696f6e20746f6f2073686f72740000000000006044820152606490fd5b60405162461bcd60e51b815260206004820152601e60248201527f566f74696e673a207a65726f20776865656c706f6f6c206164647265737300006044820152606490fd5b60405162461bcd60e51b815260206004820152601d60248201527f566f74696e673a207a65726f20747265617375727920616464726573730000006044820152606490fd5b5f80fd5b608081019081106001600160401b0382111761044057604052565b601f909101601f19168101906001600160401b0382119082101761044057604052565b51906001600160a01b03821682036105ad57565b5f516020613b6c5f395f51905f5254604051639cd07acb60e01b81525f60048201819052600560248301529091602091839160449183916001600160a01b03165af1908115610685575f91610656575090565b90506020813d60201161067d575b81610671602093836105cc565b810103126105ad575190565b3d9150610664565b6040513d5f823e3d90fd5b5f516020613b8c5f395f51905f52546001600160a01b0316803b156105ad575f8091604460405180948193635ca4b5b160e11b83528760048401523060248401525af18015610685576106e1575090565b5f6106eb916105cc565b9056fe6080806040526004361015610012575f80fd5b5f905f3560e01c9081620b46f8146127875750806302d05d3f1461275f57806306fdde031461265657806309eef43e146126155780630f5a9d011461250457806311eac855146124dc57806312a974c3146124b45780631ea736e0146124975780632019a6081461247a5780632a5ca459146124605780632fcdf3881461243e57806336922ac31461242157806336d5476e146123e25780633c8d0bec146123b75780633d792d0e146123955780634585e33b14611f675780635048331b14611f4657806355aae3d214611f225780635e39fff714611f0457806360c6d8ae14611ee65780636134231814611db8578063662bece814611d9a57806377ca31ea14611a1357806378476593146119d15780637a97bd5f146119ae5780637ab7903f14611990578063803db96d146119675780638337a23d14611949578063847d52d61461191d5780639b1265b3146119015780639ffb0a11146102c8578063a074696a146118bf578063a0baeeb01461189b578063b88a802f146114a2578063b9081d0614611484578063b972194314610c6a578063c45a015514610c41578063c9410f0114610c23578063da1f12ab14610c06578063e0d2574d146102eb578063e8b16cbf146102cd578063ea812e93146102c8578063ebf4039f146102ac578063f3b351001461026b578063f59f4bb51461023f5763f9ebf96614610217575f80fd5b3461023c578060031936011261023c57602060ff60105460081c166040519015158152f35b80fd5b503461023c578060031936011261023c5761025e60ff60105416612a82565b6020600d54604051908152f35b503461023c57602036600319011261023c576004356001600160a01b038116908190036102a8578160409160209352600a83522054604051908152f35b5080fd5b503461023c578060031936011261023c576020604051603c8152f35b6128d6565b503461023c578060031936011261023c576020600654604051908152f35b503461023c57604036600319011261023c576024356001600160401b0381116102a85761031c9036906004016127f9565b906007544210610bc157600854421015610b7c576001546001600160a01b031615610b3757338352600960205260ff604084205416610afa57338352601f6020526040832054603c8101809111610a825761037990421015612c30565b338352601f60205242604084205582602060018060a01b0360015416606460065460405194859384926323b872dd60e01b845233600485015230602485015260448401525af19081156108ce578491610adb575b5015610a96576006548060011b9080820460021490151715610a82576001546004805460405163a9059cbb60e01b81526001600160a01b039182169281019290925260649093046024820181905294929091602091839160449183918a91165af190811561090f578591610a53575b5015610a0e576104cb61047d859360209361045987600f54612c23565b600f5561047361046b88600654612a46565b600e54612c23565b600e553691612826565b5f5160206134115f395f51905f525460405163196d0b9b60e01b81526004803590820152336024820152608060448201529485936001600160a01b03909216928492839160848301906127d5565b6002606483015203925af1908115610a035783916109d1575b505f5160206134315f395f51905f525483906001600160a01b0316803b156102a857604051630f8e573b60e21b8152600481018490523360248201529082908290604490829084905af1801561088b576109b8575b5050338352600a6020526040832055600b54338352600a6020526105696040842054610563613246565b90612e90565b6020610573613294565b606461057d6132e3565b5f5160206134115f395f51905f5254604051637702dcff60e01b81526004810196909652602486019390935260448501528391829088906001600160a01b03165af19081156108ce578491610984575b506105db906105e692612f43565b80600b553090613331565b600c54338352600a6020526040808420545f5160206134115f395f51905f52549151639cd07acb60e01b815260016004820152916001600160a01b03168260448188602094600260248401525af190811561090f57859161094e575b61064c9250612e90565b6020610656613294565b60646106606132e3565b5f5160206134115f395f51905f5254604051637702dcff60e01b81526004810196909652602486019390935260448501528391829088906001600160a01b03165af19081156108ce57849161091a575b506106be906106c992612f43565b80600c553090613331565b600d54338352600a6020526040808420545f5160206134115f395f51905f52549151639cd07acb60e01b815260026004820152916001600160a01b03168260448188602094600260248401525af190811561090f5785916108d9575b61072f9250612e90565b6020610739613294565b60646107436132e3565b5f5160206134115f395f51905f5254604051637702dcff60e01b81526004810196909652602486019390935260448501528391829088906001600160a01b03165af19081156108ce578491610896575b506107a1906107ac92612f43565b80600d553090613331565b338252600960205260408220600160ff19825416179055338252600a6020526107d9306040842054613331565b60025482906001600160a01b0316803b156102a85781809160446040518094819363c31af84f60e01b83523360048401523060248401525af1801561088b57610876575b50507f7014aa9b6a6194033799600f8f5430ce94d34f0e10f687354b436384af102c4961087061084f83600654612a46565b60405191829133954291846040919493926060820195825260208201520152565b0390a280f35b81610880916127a0565b6102a857815f61081d565b6040513d84823e3d90fd5b90506020813d6020116108c6575b816108b1602093836127a0565b810103126108c257516107ac610793565b5f80fd5b3d91506108a4565b6040513d86823e3d90fd5b90506020823d602011610907575b816108f4602093836127a0565b810103126108c25761072f915190610725565b3d91506108e7565b6040513d87823e3d90fd5b90506020813d602011610946575b81610935602093836127a0565b810103126108c257516106c96106b0565b3d9150610928565b90506020823d60201161097c575b81610969602093836127a0565b810103126108c25761064c915190610642565b3d915061095c565b90506020813d6020116109b0575b8161099f602093836127a0565b810103126108c257516105e66105cd565b3d9150610992565b816109c2916127a0565b6109cd57825f610539565b8280fd5b90506020813d6020116109fb575b816109ec602093836127a0565b810103126108c257515f6104e4565b3d91506109df565b6040513d85823e3d90fd5b60405162461bcd60e51b815260206004820152601b60248201527f566f74696e673a20666565207472616e73666572206661696c656400000000006044820152606490fd5b610a75915060203d602011610a7b575b610a6d81836127a0565b810190612ca3565b5f61043c565b503d610a63565b634e487b7160e01b84526011600452602484fd5b60405162461bcd60e51b815260206004820152601c60248201527f566f74696e673a2055534443207472616e73666572206661696c6564000000006044820152606490fd5b610af4915060203d602011610a7b57610a6d81836127a0565b5f6103cd565b60405162461bcd60e51b8152602060048201526015602482015274159bdd1a5b99ce88185b1c9958591e481d9bdd1959605a1b6044820152606490fd5b60405162461bcd60e51b815260206004820152601a60248201527f566f74696e673a205553444320746f6b656e206e6f74207365740000000000006044820152606490fd5b60405162461bcd60e51b815260206004820152601860248201527f566f74696e673a20766f74696e672068617320656e64656400000000000000006044820152606490fd5b60405162461bcd60e51b815260206004820152601e60248201527f566f74696e673a20766f74696e67206e6f7420737461727465642079657400006044820152606490fd5b503461023c578060031936011261023c5760206040516127118152f35b503461023c578060031936011261023c576020601c54604051908152f35b503461023c578060031936011261023c576002546040516001600160a01b039091168152602090f35b503461023c57610c92610c7c36612889565b90809392610c8d6016548214612bd7565b612ccf565b6060818051810103126102a857610cab60208201612cbb565b6001600160401b0380610ccc6060610cc560408701612cbb565b9501612cbb565b92169216610cee6001600160401b03610ce58386612c23565b93168093612c23565b6006548060011b8181046002148215171561147057906064610d11920490612a46565b600e54811561145c5704106114085782601155806012558160135560ff600181196010541617806010557f81eb7415440ff8e6c8e92606fd3b0e5e6a5c99ea90cdb63b41aec54e897312b36020604051428152a160408051868152602081018590529081018590527f0c42f200732427d4d3ac853d1728115fd38b0aadd390525875e0392262691de990606090a1610da96001612a82565b60081c166113c3578083111580806113b9575b156113685750839082811161135e5760029360015b62ff000060ff6019549260081b95169660101b169062ffffff19161791858361ff00861617179586601955610e0786838561339b565b9488610e148885876133cb565b8098829583978a8114611355575b8a8214611345575b8a8314611332575b8314611329575b8214611319575b14611301575b60ff610e589495961691161717613216565b93610e7660ff610e6c818960081c16613216565b9760101c16613216565b930361128a5750505050506064601a556064601b556064601c555b601954610ea060ff8216613216565b610ebd60ff610eb3818560081c16613216565b9360101c16613216565b906006548060011b8181046002148215171561127657610f31610f28610f086064610f21610f18610f389883610f11610eff610f3d9e9d9b83809c0490612a46565b96878094612c90565b601a5490612c90565b049a612c90565b601b5490612c90565b0494612c90565b601c5490612c90565b0492612c23565b612c23565b600e54906003820282159083810460031482171561126257821161121157839284928082116111b7575b505050816110f1575b80610fdb575b7fff4542a24c98aa6d23c0b7e1b552109f2878e7ae0f2a000e7806e54b0d720d2c9160a09161010061ff001960105416176010556019549160ff604051938181168552818160081c16602086015260101c16604084015260608301526080820152a180f35b60015460055460405163a9059cbb60e01b81526001600160a01b0391821660048201526024810184905291602091839160449183918991165af19081156108ce5784916110d2575b50156110835760055483906001600160a01b0316803b156102a857818091602460405180948193630a1260c160e11b83528860048401525af1801561088b5761106e575b5050610f76565b81611078916127a0565b6109cd57825f611067565b60405162461bcd60e51b815260206004820152602160248201527f566f74696e673a20776865656c706f6f6c207472616e73666572206661696c656044820152601960fa1b6064820152608490fd5b6110eb915060203d602011610a7b57610a6d81836127a0565b5f611023565b6001546004805460405163a9059cbb60e01b81526001600160a01b0391821692810192909252602482018590529091602091839160449183918991165af19081156108ce578491611198575b50610f705760405162461bcd60e51b815260206004820152602860248201527f566f74696e673a20747265617375727920737572706c7573207472616e7366656044820152671c8819985a5b195960c21b6064820152608490fd5b6111b1915060203d602011610a7b57610a6d81836127a0565b5f61113d565b906111c6929450809350612a46565b916005820291820460051417156111fd57606490048082116111ed5750815b5f8080610f67565b806111f89192612a46565b6111e5565b634e487b7160e01b83526011600452602483fd5b60405162461bcd60e51b815260206004820152602360248201527f566f74696e673a207061796f75742063616c63756c6174696f6e206f766572666044820152626c6f7760e81b6064820152608490fd5b634e487b7160e01b85526011600452602485fd5b634e487b7160e01b86526011600452602486fd5b600214806112f9575b156112b257505003610e91576096601a556096601b5580601c55610e91565b600291925014806112f1575b156112dc5703610e915760c8601a556032601b556032601c55610e91565b505060c8601a556064601b5580601c55610e91565b5060016112be565b506001611293565b60ff611310610e589596612ffa565b95945050610e46565b9561132390612ffa565b95610e40565b60019750610e39565b9661133d8491612ffa565b979050610e32565b9661134f90612ffa565b96610e2a565b60019750610e22565b6001936002610dd1565b83821115806113af575b15611394575060019082841161138b5760029385610dd1565b84936002610dd1565b60029190156113a65760019385610dd1565b84936001610dd1565b5082821115611372565b5082841115610dbc565b60405162461bcd60e51b815260206004820152601860248201527f566f74696e673a20616c7265616479207265736f6c76656400000000000000006044820152606490fd5b60405162461bcd60e51b815260206004820152602660248201527f566f74696e673a20696e76616c696420766f746520636f756e742066726f6d206044820152656f7261636c6560d01b6064820152608490fd5b634e487b7160e01b87526012600452602487fd5b634e487b7160e01b87526011600452602487fd5b503461023c578060031936011261023c576020601a54604051908152f35b503461023c578060031936011261023c5760ff60105460081c16156118565733815260096020526114d960ff604083205416612b7e565b338152601d60205260ff60408220541661181157338152601f6020526040812054603c81018091116117fd5761151190421015612c30565b338152601f602052426040822055338152601560205260ff604082205416156116d857338152601460205260ff6040822054166006548060011b81810460021482151715610a8257906064611567920490612a46565b829060195460ff811684145f146116885750601a546064925061158991612c90565b045b338352601d60205260408320805460ff19166001179055806115dc575b60405191825260208201527f889047e3a24dbcfa359bc1ed9fefeae51ca3d0e7ec4bc9db63eec5e3095493da60403392a280f35b60015460405163a9059cbb60e01b815233600482015260248101839052906020908290604490829088906001600160a01b03165af19081156108ce578491611669575b506115a85760405162461bcd60e51b815260206004820152601e60248201527f566f74696e673a20726577617264207472616e73666572206661696c656400006044820152606490fd5b611682915060203d602011610a7b57610a6d81836127a0565b5f61161f565b60ff8160081c1684145f146116ae5750601b54606492506116a891612c90565b0461158b565b60101c60ff1683146116c1575b5061158b565b601c54606492506116d191612c90565b045f6116bb565b338152601760205260408120541561176a575b60405162461bcd60e51b815260206004820152604b60248201527f566f74696e673a2064656372797074696f6e20726571756573746564202d206360448201527f616c6c20636c61696d52657761726420616761696e206166746572206f72616360648201526a6c652063616c6c6261636b60a81b608482015260a490fd5b6040906117a6825161177c84826127a0565b60018152601f198401366020830137338352600a602052838320546117a082612b71565b52613008565b33808352601760209081528484208390558284526018905292822080546001600160a01b0319168417905591907f130c05371d90888a9d3d7d321e0c0ecc29dbc97cdda1c6a97c8de49978ce32e09080a35f6116eb565b634e487b7160e01b82526011600452602482fd5b60405162461bcd60e51b815260206004820152601e60248201527f566f74696e673a2072657761726420616c726561647920636c61696d656400006044820152606490fd5b60405162461bcd60e51b815260206004820152601860248201527f566f74696e673a206e6f74207265736f6c7665642079657400000000000000006044820152606490fd5b503461023c578060031936011261023c57602060ff60195460101c16604051908152f35b503461023c57602036600319011261023c576004356001600160a01b038116908190036102a85760408260ff9260209452601d84522054166040519015158152f35b503461023c578060031936011261023c57602060405160058152f35b503461023c578060031936011261023c5761193c60ff60105416612a82565b6020600c54604051908152f35b503461023c578060031936011261023c576020600e54604051908152f35b503461023c578060031936011261023c576004546040516001600160a01b039091168152602090f35b503461023c578060031936011261023c576020601154604051908152f35b503461023c578060031936011261023c5760206119c9612bc1565b604051908152f35b503461023c57602036600319011261023c576004356001600160a01b038116908190036102a85760408260ff9260209452601584522054166040519015158152f35b503461023c57602036600319011261023c576004356001600160401b0381116102a857366023820112156102a8578060040135906001600160401b0382116109cd573660248360051b830101116109cd57611a72600854421015612acd565b825b82811015611d96576024600582901b830101356001600160a01b03811690819003611d9257808552600960205260ff60408620541680611d7b575b80611d67575b611ac3575b50600101611a74565b604090815191611ad381846127a0565b6001835260208301601f198201368237828852600a60205281882054611af885612b71565b525f5160206134515f395f51905f52545f5160206134315f395f51905f525490949089906001600160a01b0316803b156102a8578185518092637d6e912360e11b825260206004830152818381611b52602482018a612fc7565b03925af18015611d4857611d52575b507f9e7b61f58c47dc699ac88507c4f5bb9f121c03808c5676a8078fe583e4649702546001600160a01b0316803b156102a8578185518092633263b83b60e01b825289600483015260606024830152818381611bc0606482018a612fc7565b639ffb0a1160e01b604483015203925af18015611d4857611d2f575b508590525f5160206133f15f395f51905f5260205282892054611d20578489525f5160206133f15f395f51905f526020528289209051916001600160401b038311611d0c57600160401b8311611d0c578154838355808410611ce6575b5090895260208920895b838110611cd25750505050906001939291611c6b5f5160206134515f395f51905f5254612ffa565b5f5160206134515f395f51905f52558188526017602052828189205582885260186020528720816bffffffffffffffffffffffff60a01b8254161790557f130c05371d90888a9d3d7d321e0c0ecc29dbc97cdda1c6a97c8de49978ce32e08780a390611aba565b600190602084519401938184015501611c43565b828b528360208c2091820191015b818110611d015750611c39565b8b8155600101611cf4565b634e487b7160e01b8a52604160045260248afd5b633f06d22b60e01b8952600489fd5b81611d39916127a0565b611d4457885f611bdc565b8880fd5b85513d84823e3d90fd5b81611d5c916127a0565b611d4457885f611b61565b508085526017602052604085205415611ab5565b50808552601560205260ff60408620541615611aaf565b8480fd5b8380f35b503461023c578060031936011261023c576020601354604051908152f35b503461023c578060031936011261023c57611dd7600854421015612acd565b3381526009602052611def60ff604083205416612b7e565b338152601560205260ff604082205416611ea1573381526017602052611e19604082205415612b19565b6040611e4e8151611e2a83826127a0565b60018152601f198301366020830137338452600a602052828420546117a082612b71565b33808452601760209081528385208390558285526018905291832080546001600160a01b03191683179055907f130c05371d90888a9d3d7d321e0c0ecc29dbc97cdda1c6a97c8de49978ce32e08380a380f35b60405162461bcd60e51b815260206004820152601e60248201527f566f74696e673a20766f746520616c72656164792064656372797074656400006044820152606490fd5b503461023c578060031936011261023c576020600f54604051908152f35b503461023c578060031936011261023c576020601254604051908152f35b503461023c578060031936011261023c57602060ff60195460081c16604051908152f35b503461023c578060031936011261023c57602060ff60195416604051908152f35b50346108c25760203660031901126108c2576004356001600160401b0381116108c257611f989036906004016127f9565b5050611faf60018060a01b03600254163314612a03565b611fbd600854421015612acd565b60ff6010541661235157601e5460ff81166122fe576001546001600160a01b0316156122c257600190611ff260165415612b19565b60ff191617601e556040516120086080826127a0565b60038152602081016060368237600b5461202183612b71565b52600c548251600110156122ae576040830152600d548251600210156122ae5760608301525f5160206134515f395f51905f52545f5160206134315f395f51905f52549092906001600160a01b0316803b156108c2575f6040518092637d6e912360e11b82526020600483015281838161209e6024820189612fc7565b03925af180156122a35761228e575b507f9e7b61f58c47dc699ac88507c4f5bb9f121c03808c5676a8078fe583e46497025484906001600160a01b0316803b156102a857816040518092633263b83b60e01b82528760048301526060602483015281838161210f606482018a612fc7565b63b972194360e01b604483015203925af1801561088b57612275575b508390525f5160206133f15f395f51905f526020526040842054612266578284525f5160206133f15f395f51905f52602052604084209051916001600160401b03831161225257600160401b831161225257815483835580841061222c575b5090845260208420845b8381106122185785856121b45f5160206134515f395f51905f5254612ffa565b5f5160206134515f395f51905f5255806016557f28442a089c49bcf88892bb12a3b12f626b99d4a9a79fa407f1ec44e0add20b746020604051428152a17f3847c2fff341165cdc510a25e0a4e40f24c70ef9f27f75b8b6a8b2ee9aad38918280a280f35b600190602084519401938184015501612194565b828652836020872091820191015b818110612247575061218a565b86815560010161223a565b634e487b7160e01b85526041600452602485fd5b633f06d22b60e01b8452600484fd5b8161227f916127a0565b61228a57835f61212b565b8380fd5b61229b9194505f906127a0565b5f925f6120ad565b6040513d5f823e3d90fd5b634e487b7160e01b5f52603260045260245ffd5b60405162461bcd60e51b8152602060048201526014602482015273159bdd1a5b99ce881554d110c81b9bdd081cd95d60621b6044820152606490fd5b60405162461bcd60e51b815260206004820152602560248201527f566f74696e673a206175746f2d72657665616c20616c7265616479207472696760448201526419d95c995960da1b6064820152608490fd5b606460405162461bcd60e51b815260206004820152602060248201527f566f74696e673a20726573756c747320616c72656164792072657665616c65646044820152fd5b346108c2575f3660031901126108c257602060ff601054166040519015158152f35b346108c2575f3660031901126108c2576123d560ff60105416612a82565b6020600b54604051908152f35b346108c25760203660031901126108c2576004356001600160a01b038116908190036108c2575f526014602052602060ff60405f205416604051908152f35b346108c2575f3660031901126108c2576020601b54604051908152f35b346108c2575f3660031901126108c257602060ff601e54166040519015158152f35b346108c2575f3660031901126108c25760206119c9612a67565b346108c2575f3660031901126108c2576020600754604051908152f35b346108c2575f3660031901126108c2576020600854604051908152f35b346108c2575f3660031901126108c2576005546040516001600160a01b039091168152602090f35b346108c2575f3660031901126108c2576001546040516001600160a01b039091168152602090f35b346108c25760203660031901126108c2576004356001600160a01b038116908190036108c25761253f60018060a01b03600254163314612a03565b80156125d0576001546001600160a01b03811661258b576001600160a01b03191681176001557f9317e3e59b11620f482b4bb292374da6e5cb9e7ef23cf3f121cacca9a5428f785f80a2005b60405162461bcd60e51b815260206004820152601e60248201527f566f74696e673a205553444320746f6b656e20616c72656164792073657400006044820152606490fd5b60405162461bcd60e51b815260206004820152601c60248201527f566f74696e673a20696e76616c696420555344432061646472657373000000006044820152606490fd5b346108c25760203660031901126108c2576004356001600160a01b038116908190036108c2575f526009602052602060ff60405f2054166040519015158152f35b346108c2575f3660031901126108c2576040515f5f548060011c90600181168015612755575b6020831081146127415782855290811561271d57506001146126c1575b6126bd836126a9818503826127a0565b6040519182916020835260208301906127d5565b0390f35b5f8080527f290decd9548b62a8d60345a988386fc84ba6bc95484008f6362f93160ef3e563939250905b808210612703575090915081016020016126a9612699565b9192600181602092548385880101520191019092916126eb565b60ff191660208086019190915291151560051b840190910191506126a99050612699565b634e487b7160e01b5f52602260045260245ffd5b91607f169161267c565b346108c2575f3660031901126108c2576003546040516001600160a01b039091168152602090f35b346108c2575f3660031901126108c25780600260209252f35b90601f801991011681019081106001600160401b038211176127c157604052565b634e487b7160e01b5f52604160045260245ffd5b805180835260209291819084018484015e5f828201840152601f01601f1916010190565b9181601f840112156108c2578235916001600160401b0383116108c257602083818601950101116108c257565b9291926001600160401b0382116127c1576040519161284f601f8201601f1916602001846127a0565b8294818452818301116108c2578281602093845f960137010152565b9080601f830112156108c25781602061288693359101612826565b90565b60606003198201126108c257600435916024356001600160401b0381116108c257826128b79160040161286b565b91604435906001600160401b0382116108c2576128869160040161286b565b346108c2576128e436612889565b5f838152601860205260409020546001600160a01b03169290612908841515612bd7565b835f5260176020528160405f2054036129be578261292592612ccf565b6020818051810103126108c2576020015160ff81168091036108c2576002811161297957815f52601460205260405f209060ff198254161790555f52601560205260405f20600160ff198254161790555f80f35b60405162461bcd60e51b815260206004820152601a60248201527f566f74696e673a20696e76616c696420766f74652076616c75650000000000006044820152606490fd5b60405162461bcd60e51b815260206004820152601b60248201527f566f74696e673a2072657175657374204944206d69736d6174636800000000006044820152606490fd5b15612a0a57565b60405162461bcd60e51b8152602060048201526014602482015273566f74696e673a206f6e6c7920666163746f727960601b6044820152606490fd5b91908203918211612a5357565b634e487b7160e01b5f52601160045260245ffd5b60085480421015612a7d57612886904290612a46565b505f90565b15612a8957565b606460405162461bcd60e51b815260206004820152602060248201527f566f74696e673a20726573756c7473206e6f742072657665616c6564207965746044820152fd5b15612ad457565b60405162461bcd60e51b815260206004820152601b60248201527f566f74696e673a20766f74696e67207374696c6c2061637469766500000000006044820152606490fd5b15612b2057565b60405162461bcd60e51b8152602060048201526024808201527f566f74696e673a2064656372797074696f6e20616c72656164792072657175656044820152631cdd195960e21b6064820152608490fd5b8051156122ae5760200190565b15612b8557565b60405162461bcd60e51b8152602060048201526014602482015273566f74696e673a20646964206e6f7420766f746560601b6044820152606490fd5b60075480421015612a7d57612886904290612a46565b15612bde57565b60405162461bcd60e51b815260206004820152601a60248201527f566f74696e673a20696e76616c696420726571756573742049440000000000006044820152606490fd5b91908201809211612a5357565b15612c3757565b60405162461bcd60e51b815260206004820152602b60248201527f566f74696e673a207472616e73616374696f6e20746f6f20736f6f6e2061667460448201526a65722070726576696f757360a81b6064820152608490fd5b81810292918115918404141715612a5357565b908160209103126108c2575180151581036108c25790565b51906001600160401b03821682036108c257565b9190825f525f5160206133f15f395f51905f5260205260405f205415612e8157825f525f5160206133f15f395f51905f5260205260405f20604051808260208294549384815201905f5260205f20925f5b818110612e68575050612d35925003826127a0565b815192836020019384602011612a5357604001809411612a5357612dd85f60209493612d8586808097612dea9a60405199828b9351918291018585015e82019083820152030180885201866127a0565b612dfc60018060a01b037f9e7b61f58c47dc699ac88507c4f5bb9f121c03808c5676a8078fe583e4649703541694604051988997889687956378542ead60e01b8752606060048801526064870190612fc7565b858103600319016024870152906127d5565b838103600319016044850152906127d5565b03925af19081156122a3575f91612e49575b5015612e3a577f1af0453083661051f6e56e5c070792320652e612154bf9af8637bb1e7655b99d5f80a2565b63cf6c44e960e01b5f5260045ffd5b612e62915060203d602011610a7b57610a6d81836127a0565b5f612e0e565b8454835260019485019486945060209093019201612d20565b63d66ca67560e01b5f5260045ffd5b908115612f33575b8015612f21575b602090606460018060a01b035f5160206134115f395f51905f525416935f604051958694859363f77f3f1d60e01b8552600485015260248401528160448401525af19081156122a3575f91612ef2575090565b90506020813d602011612f19575b81612f0d602093836127a0565b810103126108c2575190565b3d9150612f00565b506020612f2c613246565b9050612e9f565b9050612f3d613246565b90612e98565b908115612fb7575b8015612fa5575b602090606460018060a01b035f5160206134115f395f51905f525416935f604051958694859363022f65e760e31b8552600485015260248401528160448401525af19081156122a3575f91612ef2575090565b506020612fb06132e3565b9050612f52565b9050612fc16132e3565b90612f4b565b90602080835192838152019201905f5b818110612fe45750505090565b8251845260209384019390920191600101612fd7565b5f198114612a535760010190565b5f5160206134515f395f51905f52545f5160206134315f395f51905f5254909291905f906001600160a01b0316803b156108c2575f6040518092637d6e912360e11b825260206004830152818381613063602482018a612fc7565b03925af180156122a357613203575b507f9e7b61f58c47dc699ac88507c4f5bb9f121c03808c5676a8078fe583e4649702546001600160a01b0316803b156102a857816040518092633263b83b60e01b8252876004830152606060248301528183816130d2606482018a612fc7565b63ea812e9360e01b604483015203925af1801561088b579082916131ee575b508490525f5160206133f15f395f51905f5260205260408120546131df578381525f5160206133f15f395f51905f5260205260408120908251926001600160401b0384116131cb57600160401b84116131cb5782548484558085106131a5575b5060200191815260208120905b83811061319157505050506131805f5160206134515f395f51905f5254612ffa565b5f5160206134515f395f51905f5255565b60019060208451940193818401550161315e565b838352846020842091820191015b8181106131c05750613151565b8381556001016131b3565b634e487b7160e01b82526041600452602482fd5b633f06d22b60e01b8152600490fd5b816131f8916127a0565b61023c57805f6130f1565b61320f91505f906127a0565b5f5f613072565b60ff16801561323f576001811461323857600214613232575f90565b60135490565b5060125490565b5060115490565b5f5160206134115f395f51905f5254604051639cd07acb60e01b81525f6004820152906001600160a01b0316816044815f602094600260248401525af19081156122a3575f91612ef2575090565b5f5160206134115f395f51905f5254604051639cd07acb60e01b815260016004820152906001600160a01b0316816044815f602094600560248401525af19081156122a3575f91612ef2575090565b5f5160206134115f395f51905f5254604051639cd07acb60e01b81525f6004820152906001600160a01b0316816044815f602094600560248401525af19081156122a3575f91612ef2575090565b5f5160206134315f395f51905f52546001600160a01b031691823b156108c257604051635ca4b5b160e11b815260048101929092526001600160a01b03166024820152905f908290604490829084905af180156122a35761338f5750565b5f613399916127a0565b565b81811115806133c1575b6133bb5750818111156133b6575090565b905090565b91505090565b50828111156133a5565b81811015806133e6575b6133bb5750818110156133b6575090565b50828110156133d556fe878245876662ba28a480c5ea71726db859fb50222b0a3d7cbbc21cfa336faf019e7b61f58c47dc699ac88507c4f5bb9f121c03808c5676a8078fe583e46497019e7b61f58c47dc699ac88507c4f5bb9f121c03808c5676a8078fe583e4649700878245876662ba28a480c5ea71726db859fb50222b0a3d7cbbc21cfa336faf00a164736f6c634300081b000a9e7b61f58c47dc699ac88507c4f5bb9f121c03808c5676a8078fe583e46497019e7b61f58c47dc699ac88507c4f5bb9f121c03808c5676a8078fe583e4649700a164736f6c634300081b000a",
  "linkReferences": {},
  "deployedLinkReferences": {}
}