{
  "_format": "hh-sol-artifact-1",
  "contractName": "MockENS",
  "sourceName": "contracts/MockENS.sol",
  "abi": [
    {
      "inputs": [
        {
          "internalType": "bytes32",
          "name": "node",
          "type": "bytes32"
        }
      ],
      "name": "owner",
      "outputs": [
        {
          "internalType": "address",
          "name": "",
          "type": "address"
        }
      ],
      "stateMutability": "view",
      "type": "function"
    },
    {
      "inputs": [
        {
          "internalType": "bytes32",
          "name": "",
          "type": "bytes32"
        }
      ],
      "name": "owners",
      "outputs": [
        {
          "internalType": "address",
          "name": "",
          "type": "address"
        }
      ],
      "stateMutability": "view",
      "type": "function"
    },
    {
      "inputs": [
        {
          "internalType": "bytes32",
          "name": "node",
          "type": "bytes32"
        },
        {
          "internalType": "address",
          "name": "newOwner",
          "type": "address"
        }
      ],
      "name": "setNodeOwner",
      "outputs": [],
      "stateMutability": "nonpayable",
      "type": "function"
    }
  ],
  "bytecode": "0x6080806040523460145760ee90816100198239f35b5f80fdfe60808060405260043610156011575f80fd5b5f3560e01c90816302571be31460b2575080637161ad1914606c5763fb8ad6ff146039575f80fd5b3460685760203660031901126068576004355f525f602052602060018060a01b0360405f205416604051908152f35b5f80fd5b3460685760403660031901126068576024356001600160a01b038116908190036068576004355f90815260208190526040902080546001600160a01b0319169091179055005b3460685760203660031901126068576004355f90815260208181526040909120546001600160a01b0316825290f3fea164736f6c634300081b000a",
  "linkReferences": {},
  "deployedLinkReferences": {}
}