{
  "_format": "hh-sol-artifact-1",
  "contractName": "PrivateProposalFactory",
  "sourceName": "contracts/PrivateProposalFactory.sol",
  "abi": [
    {
      "inputs": [
        {
          "internalType": "address",
          "name": "_spaceRegistry",
          "type": "address"
        }
      ],
      "stateMutability": "nonpayable",
      "type": "constructor"
    },
    {
      "inputs": [],
      "name": "AlreadyCancelled",
      "type": "error"
    },
    {
      "inputs": [],
      "name": "EmptyName",
      "type": "error"
    },
    {
      "inputs": [],
      "name": "InvalidProposalType",
      "type": "error"
    },
    {
      "inputs": [],
      "name": "InvalidThreshold",
      "type": "error"
    },
    {
      "inputs": [],
      "name": "NameTooLong",
      "type": "error"
    },
    {
      "inputs": [],
      "name": "NotAuthorized",
      "type": "error"
    },
    {
      "inputs": [],
      "name": "NotSpaceOwner",
      "type": "error"
    },
    {
      "inputs": [],
      "name": "OnlyOwner",
      "type": "error"
    },
    {
      "inputs": [],
      "name": "SnapshotInFuture",
      "type": "error"
    },
    {
      "inputs": [],
      "name": "SpaceNotExist",
      "type": "error"
    },
    {
      "inputs": [],
      "name": "StartPast",
      "type": "error"
    },
    {
      "inputs": [],
      "name": "Started",
      "type": "error"
    },
    {
      "inputs": [],
      "name": "ZeroAddr",
      "type": "error"
    },
    {
      "anonymous": false,
      "inputs": [
        {
          "indexed": true,
          "internalType": "address",
          "name": "proposalAddress",
          "type": "address"
        },
        {
          "indexed": false,
          "internalType": "string",
          "name": "name",
          "type": "string"
        },
        {
          "indexed": true,
          "internalType": "address",
          "name": "cancelledBy",
          "type": "address"
        }
      ],
      "name": "ProposalCancelled",
      "type": "event"
    },
    {
      "anonymous": false,
      "inputs": [
        {
          "indexed": true,
          "internalType": "bytes32",
          "name": "spaceId",
          "type": "bytes32"
        },
        {
          "indexed": true,
          "internalType": "bytes32",
          "name": "proposalId",
          "type": "bytes32"
        },
        {
          "indexed": false,
          "internalType": "address",
          "name": "proposal",
          "type": "address"
        },
        {
          "components": [
            {
              "internalType": "bytes32",
              "name": "spaceId",
              "type": "bytes32"
            },
            {
              "internalType": "string",
              "name": "title",
              "type": "string"
            },
            {
              "internalType": "string",
              "name": "bodyURI",
              "type": "string"
            },
            {
              "internalType": "enum ProposalType",
              "name": "pType",
              "type": "uint8"
            },
            {
              "internalType": "string[]",
              "name": "choices",
              "type": "string[]"
            },
            {
              "internalType": "uint64",
              "name": "start",
              "type": "uint64"
            },
            {
              "internalType": "uint64",
              "name": "end",
              "type": "uint64"
            },
            {
              "internalType": "enum EligibilityType",
              "name": "eligibilityType",
              "type": "uint8"
            },
            {
              "internalType": "address",
              "name": "eligibilityToken",
              "type": "address"
            },
            {
              "internalType": "uint256",
              "name": "eligibilityThreshold",
              "type": "uint256"
            }
          ],
          "indexed": false,
          "internalType": "struct CreateProposalParams",
          "name": "p",
          "type": "tuple"
        }
      ],
      "name": "ProposalCreated",
      "type": "event"
    },
    {
      "anonymous": false,
      "inputs": [
        {
          "indexed": true,
          "internalType": "address",
          "name": "votingAddress",
          "type": "address"
        },
        {
          "indexed": false,
          "internalType": "uint256",
          "name": "timestamp",
          "type": "uint256"
        }
      ],
      "name": "UpkeepPerformed",
      "type": "event"
    },
    {
      "inputs": [
        {
          "internalType": "address",
          "name": "proposalAddress",
          "type": "address"
        }
      ],
      "name": "cancelProposal",
      "outputs": [],
      "stateMutability": "nonpayable",
      "type": "function"
    },
    {
      "inputs": [
        {
          "internalType": "bytes",
          "name": "",
          "type": "bytes"
        }
      ],
      "name": "checkUpkeep",
      "outputs": [
        {
          "internalType": "bool",
          "name": "upkeepNeeded",
          "type": "bool"
        },
        {
          "internalType": "bytes",
          "name": "performData",
          "type": "bytes"
        }
      ],
      "stateMutability": "view",
      "type": "function"
    },
    {
      "inputs": [
        {
          "components": [
            {
              "internalType": "bytes32",
              "name": "spaceId",
              "type": "bytes32"
            },
            {
              "internalType": "string",
              "name": "title",
              "type": "string"
            },
            {
              "internalType": "string",
              "name": "bodyURI",
              "type": "string"
            },
            {
              "internalType": "enum ProposalType",
              "name": "pType",
              "type": "uint8"
            },
            {
              "internalType": "string[]",
              "name": "choices",
              "type": "string[]"
            },
            {
              "internalType": "uint64",
              "name": "start",
              "type": "uint64"
            },
            {
              "internalType": "uint64",
              "name": "end",
              "type": "uint64"
            },
            {
              "internalType": "enum EligibilityType",
              "name": "eligibilityType",
              "type": "uint8"
            },
            {
              "internalType": "address",
              "name": "eligibilityToken",
              "type": "address"
            },
            {
              "internalType": "uint256",
              "name": "eligibilityThreshold",
              "type": "uint256"
            }
          ],
          "internalType": "struct CreateProposalParams",
          "name": "params",
          "type": "tuple"
        }
      ],
      "name": "createProposal",
      "outputs": [
        {
          "internalType": "address",
          "name": "proposal",
          "type": "address"
        },
        {
          "internalType": "bytes32",
          "name": "proposalId",
          "type": "bytes32"
        }
      ],
      "stateMutability": "nonpayable",
      "type": "function"
    },
    {
      "inputs": [],
      "name": "currentBucketIndex",
      "outputs": [
        {
          "internalType": "uint256",
          "name": "",
          "type": "uint256"
        }
      ],
      "stateMutability": "view",
      "type": "function"
    },
    {
      "inputs": [
        {
          "internalType": "address",
          "name": "",
          "type": "address"
        }
      ],
      "name": "isCancelled",
      "outputs": [
        {
          "internalType": "bool",
          "name": "",
          "type": "bool"
        }
      ],
      "stateMutability": "view",
      "type": "function"
    },
    {
      "inputs": [],
      "name": "owner",
      "outputs": [
        {
          "internalType": "address",
          "name": "",
          "type": "address"
        }
      ],
      "stateMutability": "view",
      "type": "function"
    },
    {
      "inputs": [
        {
          "internalType": "bytes",
          "name": "performData",
          "type": "bytes"
        }
      ],
      "name": "performUpkeep",
      "outputs": [],
      "stateMutability": "nonpayable",
      "type": "function"
    },
    {
      "inputs": [
        {
          "internalType": "bytes32",
          "name": "",
          "type": "bytes32"
        },
        {
          "internalType": "uint256",
          "name": "",
          "type": "uint256"
        }
      ],
      "name": "spaceProposals",
      "outputs": [
        {
          "internalType": "address",
          "name": "",
          "type": "address"
        }
      ],
      "stateMutability": "view",
      "type": "function"
    },
    {
      "inputs": [],
      "name": "spaceRegistry",
      "outputs": [
        {
          "internalType": "contract SpaceRegistry",
          "name": "",
          "type": "address"
        }
      ],
      "stateMutability": "view",
      "type": "function"
    },
    {
      "inputs": [
        {
          "internalType": "uint256",
          "name": "",
          "type": "uint256"
        },
        {
          "internalType": "uint256",
          "name": "",
          "type": "uint256"
        }
      ],
      "name": "timeBucketedProposals",
      "outputs": [
        {
          "internalType": "address",
          "name": "",
          "type": "address"
        }
      ],
      "stateMutability": "view",
      "type": "function"
    }
  ],
  "bytecode": "0x608034609157601f61480b38819003918201601f19168301916001600160401b03831184841017609557808492602094604052833981010312609157516001600160a01b0381169081900360915780156082575f80546001600160a01b031990811633179091556001805490911691909117905560405161476190816100aa8239f35b63ae9954c360e01b5f5260045ffd5b5f80fd5b634e487b7160e01b5f52604160045260245ffdfe60806040526004361015610011575f80fd5b5f5f3560e01c80630587e9e414610cdf578063067c0ac314610cb75780632a575cb014610c9a5780634585e33b14610b5e57806369477cad146104f85780636e04ff0d146103995780638da5cb5b14610372578063ace857bd1461031f578063af8df99d146100c95763c342da0c14610088575f80fd5b346100c65760203660031901126100c65760209060ff906040906001600160a01b036100b2610e34565b168152600284522054166040519015158152f35b80fd5b50346100c65760203660031901126100c6576001600160a01b036100eb610e34565b16808252600260205260ff604083205416610310576040516302d05d3f60e01b8152602081600481855afa9081156102445783916102ce575b506001600160a01b0316331415806102ba575b6102ab5760405163be9a655560e01b8152602081600481855afa801561024457839061025e575b6001600160401b0391501642101561024f5760405163129e754360e21b8152908282600481845afa9182156102445783926101ea575b50808352600260205260408320600160ff198254161790557f4fdcf34e26dc0a3e92e9e1c50a9fcbefa2d1d2175f6f1958b58b152e8e7d19e360405160208152806101e433956020830190610e4a565b0390a380f35b9091503d8084833e6101fc8183610d8a565b81019060208183031261023c578051906001600160401b03821161024057019080601f8301121561023c57815161023592602001610f93565b905f610194565b8380fd5b8480fd5b6040513d85823e3d90fd5b633633a83b60e21b8252600482fd5b506020813d6020116102a3575b8161027860209383610d8a565b8101031261029f57516001600160401b038116810361029f576001600160401b039061015e565b8280fd5b3d915061026b565b63ea8e4eb560e01b8252600482fd5b5081546001600160a01b0316331415610137565b90506020813d602011610308575b816102e960209383610d8a565b8101031261029f57516001600160a01b038116810361029f575f610124565b3d91506102dc565b6354e3762560e01b8252600482fd5b50346100c65760403660031901126100c6576024359060043581526004602052604081209081548310156100c65760206103598484610d12565b905460405160039290921b1c6001600160a01b03168152f35b50346100c657806003193601126100c657546040516001600160a01b039091168152602090f35b50346100c6576103a836610d3b565b50506005549081815260046020526040812091604051926306dbf42b60e31b8452600484015260026024840152600460448401526064830152808260848173__$b32071a4d704a8dd0adb8ee3ca2f5124fe$__5af49182156104eb578192610436575b82602081511515910151906104326040519283928352604060208401526040830190610e4a565b0390f35b9091503d8083833e6104488183610d8a565b81019060208183031261029f578051906001600160401b03821161023c57019060408282031261029f5760405191604083018381106001600160401b038211176104d75760405261049881610e6e565b83526020810151906001600160401b038211610240570181601f8201121561023c576104cb929350602081519101610f93565b60208201525f8061040b565b634e487b7160e01b85526041600452602485fd5b50604051903d90823e3d90fd5b50346100c65760203660031901126100c657600435906001600160401b0382116100c65761014060031983360301126100c6576040519161014083018381106001600160401b03821117610b4a576040528060040135835260248101356001600160401b03811161029f576105739060043691840101610dda565b916020840192835260448201356001600160401b038111610b465761059e9060043691850101610dda565b60408501526064820135916003831015610b46576060850192835260848101356001600160401b03811161029f5781013660238201121561029f576004810135906001600160401b0382116108fe578160051b604051926106026020830185610d8a565b8352810160240160208301368211610b425760248301905b828210610b0d5750505050608086015261063660a48201610e20565b60a086015261064760c48201610e20565b9260c0860193845260e4820135600281101561023c5760e08701908152610104830135926001600160a01b0384168403610240576101008801938452610124610120890191013581528651805115610afe5760c8905111610aef5760018060a01b036001541693885160405190631cff89d560e21b82526004820152602081602481895afa908115610a61578791610ab5575b5015610aa657885160405163782d41db60e01b81526004810191909152336024820152602081604481895afa908115610a61578791610a6c575b5015806109e7575b6109d857825160028110156109c45760011461098a575b50508051600281101561097657610935575051600381101561092157610912575b6040519061378b90818301918383106001600160401b038411176104d75790839291610fca843960408252602061078e604084018a610e7b565b920152039082f080156104eb5760018060a01b03169260206107e5603460408851945181519485918183019788528051918291018484015e810142838201523360601b606082015203016014810184520182610d8a565b5190209184518252600360205260408220805490600160401b8210156108fe579061081591600182018155610d12565b81546001600160a01b0360039290921b91821b19169086901b1790555173__$b32071a4d704a8dd0adb8ee3ca2f5124fe$__906001600160401b0316813b1561029f578290606460405180948193637fd5706160e01b835260048084015289602484015260448301525af480156108f3576108de575b505080837fefd5b579a9cd85251f50c89484d3406ec24cc4a408e75cf82e039f6999dfb8086108cf6040965192875191829188835289602084015289830190610e7b565b0390a382519182526020820152f35b6108e9828092610d8a565b6100c6578061088b565b6040513d84823e3d90fd5b634e487b7160e01b84526041600452602484fd5b63ae52a1c360e01b8252600482fd5b634e487b7160e01b83526021600452602483fd5b5160028110156109625760011461094d575b50610754565b5160038110156109215715610912575f610947565b634e487b7160e01b84526021600452602484fd5b634e487b7160e01b85526021600452602485fd5b516001600160a01b0316156109b55751156109a6575f80610733565b63aabd5a0960e01b8452600484fd5b63ae9954c360e01b8552600485fd5b634e487b7160e01b87526021600452602487fd5b638c09e73f60e01b8652600486fd5b5088516040516336a6307360e11b81526004810191909152336024820152602081604481895afa908115610a61578791610a23575b501561071c565b90506020813d602011610a59575b81610a3e60209383610d8a565b81010312610a5557610a4f90610e6e565b5f610a1c565b8680fd5b3d9150610a31565b6040513d89823e3d90fd5b90506020813d602011610a9e575b81610a8760209383610d8a565b81010312610a5557610a9890610e6e565b5f610714565b3d9150610a7a565b6326e4eeff60e21b8652600486fd5b90506020813d602011610ae7575b81610ad060209383610d8a565b81010312610a5557610ae190610e6e565b5f6106da565b3d9150610ac3565b63680b6caf60e01b8552600485fd5b632ef1310560e01b8652600486fd5b81356001600160401b038111610b3e57602091610b33839283600436928a010101610dda565b81520191019061061a565b8780fd5b8580fd5b5080fd5b634e487b7160e01b83526041600452602483fd5b5034610c9657610b6d36610d3b565b73__$b32071a4d704a8dd0adb8ee3ca2f5124fe$__91823b15610c96578160405191638d32fba160e01b83526040600484015281604484015260648301375f60648383010152603260248201525f81606481601f19601f8701168101030181865af48015610c8b57610c76575b50610c46575b602060055460246040518094819363101f0c4760e31b835260048301525af49081156108f3578291610c14575b5060055580f35b90506020813d602011610c3e575b81610c2f60209383610d8a565b81010312610b4657515f610c0d565b3d9150610c22565b817f055388373cb05589ada6902083001c323d550901fdaf02f8d0b7412e373b87c86020604051428152a2610be0565b610c839193505f90610d8a565b5f915f610bda565b6040513d5f823e3d90fd5b5f80fd5b34610c96575f366003190112610c96576020600554604051908152f35b34610c96575f366003190112610c96576001546040516001600160a01b039091168152602090f35b34610c96576040366003190112610c96576024356004355f52600360205260405f208054821015610c9657602091610359915b8054821015610d27575f5260205f2001905f90565b634e487b7160e01b5f52603260045260245ffd5b906020600319830112610c96576004356001600160401b038111610c965782602382011215610c96578060040135926001600160401b038411610c965760248483010111610c96576024019190565b90601f801991011681019081106001600160401b03821117610dab57604052565b634e487b7160e01b5f52604160045260245ffd5b6001600160401b038111610dab57601f01601f191660200190565b81601f82011215610c9657803590610df182610dbf565b92610dff6040519485610d8a565b82845260208383010111610c9657815f926020809301838601378301015290565b35906001600160401b0382168203610c9657565b600435906001600160a01b0382168203610c9657565b805180835260209291819084018484015e5f828201840152601f01601f1916010190565b51908115158203610c9657565b9081518152610eb0610e9e60208401516101406020850152610140840190610e4a565b60408401518382036040850152610e4a565b9160608101516003811015610f525760608301526080810151928281036080840152835180825260208201916020808360051b8301019601925f915b838310610f665750505050506001600160401b0360a08201511660a08301526001600160401b0360c08201511660c083015260e08101516002811015610f525760e0830152610100808201516001600160a01b0316908301526101209081015191015290565b634e487b7160e01b5f52602160045260245ffd5b9091929396602080610f84600193601f198682030187528b51610e4a565b99019301930191939290610eec565b929192610f9f82610dbf565b91610fad6040519384610d8a565b829481845281830111610c96578281602093845f96015e01015256fe608080604052346106005761378b803803809161001c8285610ba3565b833981016040828203126106005781516001600160401b0381116106005782019061014082820312610600576040519061014082016001600160401b038111838210176106be576040528251825260208301516001600160401b0381116106005781610089918501610bc6565b6020830190815260408401516001600160401b03811161060057826100af918601610bc6565b604084019081526060850151916003831015610600576060850192835260808601516001600160401b0381116106005786019380601f860112156106005784516100f881610c1b565b956101066040519788610ba3565b81875260208088019260051b820101918383116106005760208201905b838210610b5b5750505050506080850193845261014260a08701610c32565b9460a0810195865261015660c08801610c32565b9560c0820196875260e08801519660028810156106005760e083019788526101a360206101206101896101008d01610c46565b9b61010087019c8d5201519b61012086019c8d5201610c46565b916101ac610cd4565b5046600103610b24576101bd610cd4565b506040516101ca81610b88565b5f81525f60208201525f60408201525b80515f51602061374b5f395f51905f5280546001600160a01b03199081166001600160a01b039384161790915560208301515f51602061372b5f395f51905f52805483169184169190911790556040909201517f9e7b61f58c47dc699ac88507c4f5bb9f121c03808c5676a8078fe583e46497028054909316911617905587515160028110159081610b18575b5015610ac757815181516001600160401b039081169116818111919082610a9f575b505015610a5a5780516001600160401b0316806109e9575050600580546001600160401b031916426001600160401b03161790555b5160058054600160401b600160801b03191660409290921b6fffffffffffffffff000000000000000016919091179055600880546001600160a01b0319908116339081179092556009805482166001600160a01b039490941693909317909255600a8054909216179055515f55518051906001600160401b0382116106be57610348600154610c5a565b601f811161099b575b50602090601f83116001146109365761038192915f9183610752575b50508160011b915f199060031b1c19161790565b6001555b518051906001600160401b0382116106be576103a2600254610c5a565b601f81116108e8575b50602090601f8311600114610883576103da92915f91836107525750508160011b915f199060031b1c19161790565b6002555b5160038110156106d25760ff801960035416911617600355518051906801000000000000000082116106be5760045482600455808310610801575b5060045f9081525f51602061376b5f395f51905f5292916020015b8282106106e657505050505160028110156106d2576005805460ff60801b191660809290921b60ff60801b1691909117905551600680546001600160a01b0319166001600160a01b0392909216919091179055516007556004546104b061049a82610c1b565b916104a86040519384610ba3565b808352610c1b565b602082019190601f190136833751906001600160401b0382116106be576801000000000000000082116106be57600e5482600e5580831061067a575b5090600e5f5260205f20915f5b828110610666575f5b600454811015610635575f51602061372b5f395f51905f5254604051639cd07acb60e01b81525f600480830182905260248301529091602091839160449183916001600160a01b03165af19081156105f5575f91610604575b5061056582610ca8565b819291549060031b91821b915f19901b191617905561058381610ca8565b90545f51602061374b5f395f51905f52546001600160a01b0316929160031b1c823b15610600575f92604484926040519586938492635ca4b5b160e11b845260048401523060248401525af19182156105f5576001926105e5575b5001610502565b5f6105ef91610ba3565b826105de565b6040513d5f823e3d90fd5b5f80fd5b90506020813d821161062d575b8161061e60209383610ba3565b8101031261060057518261055b565b3d9150610611565b5f194301438111610652576011556040516129d59081610d568239f35b634e487b7160e01b5f52601160045260245ffd5b6001906020835193019281860155016104f9565b600e5f527fbb7b4a454dc3493923482f07822329ed19e8244eff582cc204f8554c3620c3fd9081019083015b8181106106b357506104ec565b5f81556001016106a6565b634e487b7160e01b5f52604160045260245ffd5b634e487b7160e01b5f52602160045260245ffd5b80518051906001600160401b0382116106be576107038654610c5a565b601f81116107c6575b50602090601f831160011461075d5792610743836001959460209487965f926107525750508160011b915f199060031b1c19161790565b87555b01940191019092610434565b015190505f8061036d565b90601f19831691875f52815f20925f5b8181106107ae5750936020936001969387969383889510610796575b505050811b018755610746565b01515f1960f88460031b161c191690555f8080610789565b9293602060018192878601518155019501930161076d565b6107f190875f5260205f20601f850160051c810191602086106107f7575b601f0160051c0190610c92565b5f61070c565b90915081906107e4565b60045f525f51602061376b5f395f51905f529081019083015b8181106108275750610419565b8061083460019254610c5a565b80610841575b500161081a565b601f8111831461085657505f81555b5f61083a565b61087290825f5283601f60205f20920160051c82019101610c92565b805f525f6020812081835555610850565b90601f1983169160025f52815f20925f5b8181106108d057509084600195949392106108b8575b505050811b016002556103de565b01515f1960f88460031b161c191690555f80806108aa565b92936020600181928786015181550195019301610894565b60025f52610930907f405787fa12a823e0f2b7631cc41b3ba8828b3321ca811111fa75cd3aa3bb5ace601f850160051c810191602086106107f757601f0160051c0190610c92565b5f6103ab565b90601f1983169160015f52815f20925f5b818110610983575090846001959493921061096b575b505050811b01600155610385565b01515f1960f88460031b161c191690555f808061095d565b92936020600181928786015181550195019301610947565b60015f526109e3907fb10e2d527612073b26eecdfd717e6a320cf44b4afac2b0732d9fcbe2b7fa0cf6601f850160051c810191602086106107f757601f0160051c0190610c92565b5f610351565b4211610a155751600580546001600160401b0319166001600160401b03929092169190911790556102be565b60405162461bcd60e51b815260206004820152601c60248201527f50726f706f73616c3a2073746172742074696d6520696e2070617374000000006044820152606490fd5b60405162461bcd60e51b815260206004820152601860248201527f50726f706f73616c3a20696e76616c69642074696d696e6700000000000000006044820152606490fd5b0390506001600160401b0381116106525761012c6001600160401b0390911610155f80610289565b60405162461bcd60e51b815260206004820152602360248201527f50726f706f73616c3a20696e76616c6964206e756d626572206f662063686f6960448201526263657360e81b6064820152608490fd5b600a915011155f610267565b4662aa36a703610b3b57610b36610cf2565b6101da565b46617a6903610b4c57610b36610cf2565b6373cac13b60e01b5f5260045ffd5b81516001600160401b03811161060057602091610b7d87848094880101610bc6565b815201910190610123565b606081019081106001600160401b038211176106be57604052565b601f909101601f19168101906001600160401b038211908210176106be57604052565b81601f82011215610600578051906001600160401b0382116106be5760405192610bfa601f8401601f191660200185610ba3565b8284526020838301011161060057815f9260208093018386015e8301015290565b6001600160401b0381116106be5760051b60200190565b51906001600160401b038216820361060057565b51906001600160a01b038216820361060057565b90600182811c92168015610c88575b6020831014610c7457565b634e487b7160e01b5f52602260045260245ffd5b91607f1691610c69565b818110610c9d575050565b5f8155600101610c92565b600e54811015610cc057600e5f5260205f2001905f90565b634e487b7160e01b5f52603260045260245ffd5b60405190610ce182610b88565b5f6040838281528260208201520152565b610cfa610cd4565b50604051610d0781610b88565b73f0ffdc93b7e186bc2f8cb3daa75d86d1930a433d81527392c920834ec8941d2c77d188936e1f7a6f49c127602082015273be0e383937d564d7ff0bc3b46c51f0bf8d5c311a60408201529056fe60806040526004361015610011575f80fd5b5f3560e01c806302d05d3f14610214578063067c0ac31461020f57806309eef43e1461020a5780631489fc3d146102055780631f90b2a514610200578063216b9116146101fb578063227326b1146101f65780632fcdf388146101f157806335515c18146101ec5780633bd694d8146101e75780633c8b728f146101e25780633d792d0e146101dd5780634585e33b146101d85780634a79d50c146101d35780634e0c72d5146101ce5780635017b5ea146101c957806359f8ae6a146101c45780636bf2ffa1146101bf5780638217a631146101ba578063849674f7146101b55780638927b030146101b05780639752a719146101ab5780639d384caf146101a6578063a3fcfd43146101a1578063be9a65551461019c578063c346c03c14610197578063c45a015514610192578063d1cf03541461018d578063dc8d31b614610188578063ed25286114610183578063efbe1c1c1461017e5763f6fd7fde14610179575f80fd5b611305565b6112dc565b611280565b611263565b611227565b6111ff565b61114a565b611124565b611101565b610f77565b610f40565b610ecd565b610d0d565b610c88565b610c6c565b610c4f565b610bce565b610b72565b610a6d565b61080f565b6107ed565b6107a5565b61077d565b610751565b610722565b6106fd565b6106d4565b610694565b61032a565b61028d565b61024f565b610227565b5f91031261022357565b5f80fd5b34610223575f36600319011261022357600a546040516001600160a01b039091168152602090f35b34610223575f366003190112610223576009546040516001600160a01b039091168152602090f35b600435906001600160a01b038216820361022357565b34610223576020366003190112610223576001600160a01b036102ae610277565b165f52600b602052602060ff60405f2054166040519015158152f35b9181601f84011215610223578235916001600160401b038311610223576020838186019501011161022357565b9060406003198301126102235760043591602435906001600160401b03821161022357610326916004016102ca565b9091565b3461022357610338366102f7565b916103f66005546103546001600160401b0382164210156113df565b61036b6001600160401b038260401c164210611423565b335f908152600b60205260409020610396906103919061038d905b5460ff1690565b1590565b611461565b6103b660016103a760035460ff1690565b6103b0816106c5565b146114a7565b6009546020906103d6906001600160a01b03165b6001600160a01b031690565b5f54906040518080968194630d3e2f4960e41b8352339060048401611502565b03915afa9081156105e957610418610421926001945f91610665575b50611526565b60801c60ff1690565b61042a81610747565b146105ee575b60065461048d90602090610460906103ca906001600160a01b03165b6103ca6001600160a01b03821615156115d9565b601154604051630748d63560e31b8152336004820152602481019190915292839190829081906044820190565b03915afa9283156105e9576104c163ffffffff6104d9956104d3945f916105ba575b506104bb811515611625565b16611fb4565b946104cb86611fc3565b503691610cad565b90612724565b6104e281611fc3565b505f5b600454811015610578578061055d61053c61050e610504600195610efb565b90549060031b1c90565b61053661052661052060ff871661201f565b8861208e565b886105305f6125f4565b9161212e565b906121e4565b61054583610efb565b90919082549060031b91821b915f19901b1916179055565b61057161056c61050483610efb565b611fc3565b50016104e5565b335f908152600b60205260409020610598905b805460ff19166001179055565b60405142815233905f5160206129895f395f51905f529080602081015b0390a2005b6105dc915060203d6020116105e2575b6105d48183610a0f565b810190611572565b5f6104af565b503d6105ca565b61151b565b600654610605906103ca906001600160a01b031681565b6040516370a0823160e01b815233600482015290602090829060249082905afa80156105e957610641915f91610646575b506007541115611581565b610430565b61065f915060203d6020116105e2576105d48183610a0f565b5f610636565b610687915060203d60201161068d575b61067f8183610a0f565b8101906114ea565b5f610412565b503d610675565b34610223575f366003190112610223576020601154604051908152f35b634e487b7160e01b5f52602160045260245ffd5b600311156106cf57565b6106b1565b34610223575f3660031901126102235760ff6003541660405160038210156106cf576020918152f35b34610223575f36600319011261022357602060ff60105460101c166040519015158152f35b34610223575f36600319011261022357602060ff60105460281c166040519015158152f35b600211156106cf57565b34610223575f3660031901126102235760ff60055460801c1660405160028210156106cf576020918152f35b34610223575f366003190112610223576006546040516001600160a01b039091168152602090f35b34610223575f366003190112610223576005546001600160401b0316428111156107e4574281039081116107df576020905b604051908152f35b61167f565b5060205f6107d7565b34610223575f36600319011261022357602060ff601054166040519015158152f35b34610223576020366003190112610223576004356001600160401b0381116102235761083f9036906004016102ca565b50506008546001600160a01b031633036109bd5761088361087b61086f6005546001600160401b039060401c1690565b6001600160401b031690565b421015611693565b6108c36108be61038d6010546108a461089f61038d8360ff1690565b6116d8565b6108b560ff602883901c1615611724565b60201c60ff1690565b611770565b6108df6501000000000065ff0000000000196010541617601055565b6108f964010000000064ff00000000196010541617601055565b5f5b6004548110156109265780610920610917610504600194610efb565b61053c816128bf565b016108fb565b600454610932816117de565b905f5b81811061099d576040517f4f45576ad072eaf166171fd27e67b193bd4cb6ff0ea9021bd0a009e93535720c908061096c8682611857565b0390a16040514281527f28442a089c49bcf88892bb12a3b12f626b99d4a9a79fa407f1ec44e0add20b7490602090a1005b806109ac610504600193610efb565b6109b68286611810565b5201610935565b60405162461bcd60e51b815260206004820152601660248201527550726f706f73616c3a206f6e6c7920666163746f727960501b6044820152606490fd5b634e487b7160e01b5f52604160045260245ffd5b90601f801991011681019081106001600160401b03821117610a3057604052565b6109fb565b805180835260209291819084018484015e5f828201840152601f01601f1916010190565b906020610a6a928181520190610a35565b90565b34610223575f366003190112610223576040515f6001548060011c9060018116908115610b56575b602083108214610b42578285526020850191908115610b295750600114610ad7575b610ad384610ac781860382610a0f565b60405191829182610a59565b0390f35b60015f9081529250907fb10e2d527612073b26eecdfd717e6a320cf44b4afac2b0732d9fcbe2b7fa0cf65b818410610b1557505001610ac782610ab7565b805484840152602090930192600101610b02565b60ff191682525090151560051b019050610ac782610ab7565b634e487b7160e01b5f52602260045260245ffd5b91607f1691610a95565b60209060031901126102235760043590565b3461022357610b8036610b60565b610b8d6004548210611868565b600e54811015610bc957600e5f527fbb7b4a454dc3493923482f07822329ed19e8244eff582cc204f8554c3620c3fd0154604051908152602090f35b610ee7565b34610223576040366003190112610223576004356001600160401b0381116102235736602382011215610223578060040135906001600160401b038211610223573660248360051b8301011161022357602435906001600160401b03821161022357610c4d92610c4460249336906004016102ca565b939092016118b4565b005b34610223575f366003190112610223576020600454604051908152f35b34610223575f3660031901126102235760205f54604051908152f35b34610223575f36600319011261022357602060ff60105460081c166040519015158152f35b9291926001600160401b038211610a305760405191610cd6601f8201601f191660200184610a0f565b829481845281830111610223578281602093845f960137010152565b9080601f8301121561022357816020610a6a93359101610cad565b3461022357606036600319011261022357610d26610277565b6024356001600160401b03811161022357610d45903690600401610cf2565b906044356001600160401b03811161022357610d68610d79913690600401610cf2565b916001600160a01b03163014611cc7565b610da6610da161038d601054610d9b610d968260ff9060201c1690565b611d1e565b60ff1690565b611d6a565b6004549082610db4836117de565b5f5b848110610ea45750610dc8935061231f565b600454610dd4816117de565b915f5b828110610e8a57836002610ded60035460ff1690565b610df6816106c5565b14610e50575b610e0590611ddf565b610e17600160ff196010541617601055565b7f0c2a033ac853f194d045a3b0d94054776dcbec8bcadf04d38f95b8153719f53160405180610e4581611e74565b0390a1610c4d612467565b5f5b8151811015610e845780610e73610e6b60019385611810565b516064900490565b610e7d8285611810565b5201610e52565b50610dfc565b8060019160051b6020808286010151918701015201610dd7565b60019193949250610eb761050482610efb565b610ec18286611810565b52019184919392610db6565b34610223575f3660031901126102235760206107d76125c5565b634e487b7160e01b5f52603260045260245ffd5b600e54811015610bc957600e5f5260205f2001905f90565b600f54811015610bc957600f5f5260205f2001905f90565b8054821015610bc9575f5260205f2001905f90565b3461022357610f4e36610b60565b600f5481101561022357600f5f525f5160206129a95f395f51905f520154604051908152602090f35b3461022357611007610f88366102f7565b90610fb06001600160401b03600554610fa58282164210156113df565b60401c164210611423565b335f908152600b60205260409020610fcf906103919061038d90610386565b600954602090610fe7906001600160a01b03166103ca565b5f54906040518080988194630d3e2f4960e41b8352339060048401611502565b03915afa9182156105e9576110296104d393611030965f916106655750611526565b3691610cad565b335f908152600c60205260409020555f5b6004548110156110b0578061109a61053c611060610504600195610efb565b335f908152600c6020526040902061053690611089905461108360ff881661201f565b9061208e565b611091611faa565b6105305f6125f4565b6110a961056c61050483610efb565b5001611041565b335f908152600b602052604090206110c79061058b565b335f908152600c602052604090206110df9054611fc3565b5060405142815233905f5160206129895f395f51905f529080602081016105b5565b34610223575f36600319011261022357602060ff60105460181c16604051908152f35b34610223575f3660031901126102235760206001600160401b0360055416604051908152f35b34610223575f366003190112610223576040515f6002548060011c90600181169081156111f5575b602083108214610b42578285526020850191908115610b2957506001146111a357610ad384610ac781860382610a0f565b60025f9081529250907f405787fa12a823e0f2b7631cc41b3ba8828b3321ca811111fa75cd3aa3bb5ace5b8184106111e157505001610ac782610ab7565b8054848401526020909301926001016111ce565b91607f1691611172565b34610223575f366003190112610223576008546040516001600160a01b039091168152602090f35b34610223575f3660031901126102235760055460401c6001600160401b0316428111156107e4574281039081116107df57602090604051908152f35b34610223575f366003190112610223576020600754604051908152f35b34610223575f36600319011261022357611298611f0e565b6040518091602082016020835281518091526020604084019201905f5b8181106112c3575050500390f35b82518452859450602093840193909201916001016112b5565b34610223575f3660031901126102235760206001600160401b0360055460401c16604051908152f35b346102235761131336610b60565b600454811061132181611868565b15610bc95760045f5260205f2001604051905f9080548060011c91600182169182156113d5575b602084108314610b425783865260208601929081156113b8575060011461137a575b610ad385610ac781870382610a0f565b61138a919293505f5260205f2090565b915f925b8184106113a457505001610ac782610ad361136a565b80548484015260209093019260010161138e565b60ff19168352505090151560051b019050610ac782610ad361136a565b92607f1692611348565b156113e657565b60405162461bcd60e51b8152602060048201526015602482015274141c9bdc1bdcd85b0e881b9bdd081cdd185c9d1959605a1b6044820152606490fd5b1561142a57565b60405162461bcd60e51b815260206004820152600f60248201526e141c9bdc1bdcd85b0e88195b991959608a1b6044820152606490fd5b1561146857565b60405162461bcd60e51b8152602060048201526017602482015276141c9bdc1bdcd85b0e88185b1c9958591e481d9bdd1959604a1b6044820152606490fd5b156114ae57565b60405162461bcd60e51b815260206004820152601460248201527350726f706f73616c3a2077726f6e67207479706560601b6044820152606490fd5b90816020910312610223575180151581036102235790565b9081526001600160a01b03909116602082015260400190565b6040513d5f823e3d90fd5b1561152d57565b60405162461bcd60e51b815260206004820152601c60248201527f50726f706f73616c3a206e6f742061207370616365206d656d626572000000006044820152606490fd5b90816020910312610223575190565b1561158857565b60405162461bcd60e51b8152602060048201526024808201527f50726f706f73616c3a20696e73756666696369656e7420746f6b656e2062616c604482015263616e636560e01b6064820152608490fd5b156115e057565b60405162461bcd60e51b815260206004820152601f60248201527f50726f706f73616c3a2049566f74657320746f6b656e207265717569726564006044820152606490fd5b1561162c57565b60405162461bcd60e51b815260206004820152602560248201527f50726f706f73616c3a206e6f20766f74696e6720706f77657220617420736e616044820152641c1cda1bdd60da1b6064820152608490fd5b634e487b7160e01b5f52601160045260245ffd5b1561169a57565b60405162461bcd60e51b815260206004820152601660248201527550726f706f73616c3a207374696c6c2061637469766560501b6044820152606490fd5b156116df57565b60405162461bcd60e51b815260206004820152601a60248201527f50726f706f73616c3a20726573756c74732072657665616c65640000000000006044820152606490fd5b1561172b57565b60405162461bcd60e51b815260206004820152601f60248201527f50726f706f73616c3a206175746f2d72657665616c20747269676765726564006044820152606490fd5b1561177757565b60405162461bcd60e51b815260206004820152602260248201527f50726f706f73616c3a2072657665616c20616c72656164792072657175657374604482015261195960f21b6064820152608490fd5b6001600160401b038111610a305760051b60200190565b906117e8826117c7565b6117f56040519182610a0f565b8281528092611806601f19916117c7565b0190602036910137565b8051821015610bc95760209160051b010190565b90602080835192838152019201905f5b8181106118415750505090565b8251845260209384019390920191600101611834565b906020610a6a928181520190611824565b1561186f57565b60405162461bcd60e51b815260206004820152601e60248201527f50726f706f73616c3a20696e76616c69642063686f69636520696e64657800006044820152606490fd5b9392936119316005546118d26001600160401b0382164210156113df565b6118e96001600160401b038260401c164210611423565b335f908152600b60205260409020611908906103919061038d90610386565b61191960026103a760035460ff1690565b6119266004548514611b50565b6103b6871515611bae565b03915afa9081156105e957610418611952926001945f916106655750611526565b61195b81610747565b14611af9575b60065461198190602090610460906103ca906001600160a01b031661044c565b03915afa9081156105e9576119a89163ffffffff915f916105ba57506104bb811515611625565b6119b181611fc3565b506119d36119c06004546117de565b335f908152600d60205260409020611c33565b5f5b600454811015611a4b5780611a23611a056119f36001948888611cb7565b356119ff368c8b610cad565b90612820565b335f908152600d60205260409020610545908490610f2b565b610f2b565b335f908152600d60205260409020611a449061056c90610504908490610f2b565b50016119d5565b5094505050505f5b600454811015611ac15780611aab61053c611a9086611a8b610504600197611a1e3360018060a01b03165f52600d60205260405f2090565b61226f565b611a9981611fc3565b50611aa661050485610efb565b6121e4565b611aba61056c61050483610efb565b5001611a53565b50335f908152600b60205260409020909150611adc9061058b565b60405142815233905f5160206129895f395f51905f5290602090a2565b600654611b10906103ca906001600160a01b031681565b6040516370a0823160e01b815233600482015290602090829060249082905afa80156105e957611b4b915f9161064657506007541115611581565b611961565b15611b5757565b60405162461bcd60e51b815260206004820152602960248201527f50726f706f73616c3a20696e76616c69642070657263656e7461676520696e706044820152680eae840d8cadccee8d60bb1b6064820152608490fd5b15611bb557565b60405162461bcd60e51b815260206004820152602260248201527f50726f706f73616c3a206d697373696e672070657263656e746167652070726f60448201526137b360f11b6064820152608490fd5b9061271082029180830461271014901517156107df57565b908160011b91808304600214901517156107df57565b8151916001600160401b038311610a3057600160401b8311610a30578154838355808410611c91575b506020611c6e9101915f5260205f2090565b5f5b838110611c7d5750505050565b600190602084519401938184015501611c70565b825f528360205f2091820191015b818110611cac5750611c5c565b5f8155600101611c9f565b9190811015610bc95760051b0190565b15611cce57565b60405162461bcd60e51b815260206004820152602260248201527f50726f706f73616c3a20696e76616c69642070726f706f73616c206164647265604482015261737360f01b6064820152608490fd5b15611d2557565b60405162461bcd60e51b815260206004820152601e60248201527f50726f706f73616c3a2072657665616c206e6f742072657175657374656400006044820152606490fd5b15611d7157565b60405162461bcd60e51b815260206004820152602260248201527f50726f706f73616c3a20726573756c747320616c72656164792072657665616c604482015261195960f21b6064820152608490fd5b8115611dcb570490565b634e487b7160e01b5f52601260045260245ffd5b8051906001600160401b038211610a3057600160401b8211610a3057600f5482600f55808310611e43575b50600f5f526020015f5160206129a95f395f51905f525f5b838110611e2f5750505050565b600190602084519401938184015501611e22565b600f5f525f5160206129a95f395f51905f529081019083015b818110611e695750611e0a565b5f8155600101611e5c565b6040602082019160208152600f548093520190600f5f5260205f20905f5b818110611e9f5750505090565b8254845260209093019260019283019201611e92565b15611ebc57565b60405162461bcd60e51b815260206004820152601e60248201527f50726f706f73616c3a20726573756c7473206e6f742072657665616c656400006044820152606490fd5b919082018092116107df57565b611f22611f1d60105460ff1690565b611eb5565b611f2d6004546117de565b905f915f600f54905b818110611f8a57508315611f85575f5b818110611f54575090925050565b80611f7486611f6f611f6a610504600196610f13565b611c05565b611dc1565b611f7e8286611810565b5201611f46565b509150565b93611fa3600191611f9d61050488610f13565b90611f01565b9401611f36565b610a6a60016125f4565b63ffffffff610a6a91166125f4565b5f5160206129695f395f51905f52546001600160a01b0316803b15610223575f6040518092635ca4b5b160e11b8252818381612003308960048401611502565b03925af180156105e957612015575090565b5f610a6a91610a0f565b5f5160206129495f395f51905f5254604051639cd07acb60e01b815260ff92909216600483015260026024830152602090829060449082905f906001600160a01b03165af19081156105e9575f91612075575090565b610a6a915060203d6020116105e2576105d48183610a0f565b5f6020916120fb93811561211e575b8015612110575b5f5160206129495f395f51905f525460405163f77f3f1d60e01b8152600481019390935260248301919091526001600160f81b031983166044830152909384926001600160a01b0390921691839182906064820190565b03925af19081156105e9575f91612075575090565b50612119612643565b6120a4565b9050612128612643565b9061209d565b91908215612168575b610a6a928115612158575b8261286d5791506121525f6125f4565b9161286d565b9050612162612696565b90612142565b5f5160206129495f395f51905f5254604051639cd07acb60e01b81525f600482018190526024820181905290945060209185916044918391906001600160a01b03165af180156105e957610a6a935f916121c5575b509250612137565b6121de915060203d6020116105e2576105d48183610a0f565b5f6121bd565b5f6020916120fb93811561225f575b8015612251575b5f5160206129495f395f51905f525460405163022f65e760e31b8152600481019390935260248301919091526001600160f81b031983166044830152909384926001600160a01b0390921691839182906064820190565b5061225a612696565b6121fa565b9050612269612696565b906121f3565b5f6020916120fb9381156122ea575b80156122dc575b5f5160206129495f395f51905f5254604051630afe14ad60e31b8152600481019390935260248301919091526001600160f81b031983166044830152909384926001600160a01b0390921691839182906064820190565b506122e5612696565b612285565b90506122f4612696565b9061227e565b9091612311610a6a93604084526040840190611824565b916020818403910152610a35565b9160206123a05f9260018060a01b037f9e7b61f58c47dc699ac88507c4f5bb9f121c03808c5676a8078fe583e46497025416906040519485809481936378542ead60e01b83526060600484015261238e61237c606485018d611824565b8481036003190160248601528b610a35565b83810360031901604485015290610a35565b03925af180156105e9576123b9915f9161240257501590565b6123f3577fc6366bab028b8d033cb362cfd1f2f3457ef4e92fc738b6788b90d5a7846367a0916123ee604051928392836122fa565b0390a1565b63cf6c44e960e01b5f5260045ffd5b61038d915060203d60201161068d5761067f8183610a0f565b1561242257565b60405162461bcd60e51b815260206004820152601a60248201527f50726f706f73616c3a20616c7265616479207265736f6c7665640000000000006044820152606490fd5b61248e61248961038d601054612480611f1d8260ff1690565b60081c60ff1690565b61241b565b6004545f805b8281106125ab57505f915f905f5b8181106125755750506124ca9063ff0000006010549160181b169063ff000000191617601055565b8061254d5750506010805462ff0000191690555b6124f261010061ff00196010541617601055565b7f49dcecd7b8aeaed781643c3e998589873154c5eb7885bc5067f5d4d939c2bf406010546125316125278260ff9060181c1690565b9160101c60ff1690565b6040805160ff90931683529015156020830152819081016123ee565b6125596124de92611c1d565b1162ff000060105491151560101b169062ff0000191617601055565b8461258261050483610f13565b11612590575b6001016124a2565b915092506125a061050482610f13565b9260ff821691612588565b906125be600191611f9d61050485610f13565b9101612494565b466001036125d257600190565b4662aa36a7036125e25761271190565b617a6946146125ef575f90565b5f1990565b60205f9160445f5160206129495f395f51905f5254916040519485938492639cd07acb60e01b845260048401526004602484015260018060a01b03165af19081156105e9575f91612075575090565b5f5160206129495f395f51905f5254604051639cd07acb60e01b81525f60048201819052600260248301529091602091839160449183916001600160a01b03165af19081156105e9575f91612075575090565b5f5160206129495f395f51905f5254604051639cd07acb60e01b81525f600480830182905260248301529091602091839160449183916001600160a01b03165af19081156105e9575f91612075575090565b9081526001600160a01b0390911660208201526080604082018190529093929161271491850190610a35565b9260548210156106cf5760600152565b600260209161277294935f6127526103ca6103ca5f5160206129495f395f51905f525460018060a01b031690565b926040519788958694859363045fc19560e11b85523390600486016126e8565b03925af19182156105e9575f926127ff575b505f5160206129695f395f51905f525482906127aa906103ca906001600160a01b031681565b803b1561022357604051630f8e573b60e21b8152915f9183918290849082906127d890339060048401611502565b03925af180156105e9576127e95750565b806127f75f6127fd93610a0f565b80610219565b565b61281991925060203d6020116105e2576105d48183610a0f565b905f612784565b600460209161277294935f61284e6103ca6103ca5f5160206129495f395f51905f525460018060a01b031690565b926040519788958694859363045fc19560e11b855233908386016126e8565b9060646020925f60018060a01b035f5160206129495f395f51905f5254166040519687958694637702dcff60e01b86526004860152602485015260448401525af19081156105e9575f91612075575090565b6128c960016117c7565b906128d76040519283610a0f565b600182526128e560016117c7565b6020830190601f1901368237825115610bc957525f5160206129695f395f51905f525461291c906103ca906001600160a01b031681565b803b1561022357604051637d6e912360e11b8152915f9183918290849082906127d8906004830161185756fe9e7b61f58c47dc699ac88507c4f5bb9f121c03808c5676a8078fe583e46497019e7b61f58c47dc699ac88507c4f5bb9f121c03808c5676a8078fe583e46497004d99b957a2bc29a30ebd96a7be8e68fe50a3c701db28a91436490b7d53870ca48d1108e10bcb7c27dddfc02ed9d693a074039d026cf4ea4240b40f7d581ac802a164736f6c634300081b000a9e7b61f58c47dc699ac88507c4f5bb9f121c03808c5676a8078fe583e46497019e7b61f58c47dc699ac88507c4f5bb9f121c03808c5676a8078fe583e46497008a35acfbc15ff81a39ae7d344fd709f28e8600b4aa8c65c6b64bfe7fe36bd19ba164736f6c634300081b000a",
  "linkReferences": {
    "contracts/ProposalAutomation.sol": {
      "ProposalAutomation": [
        {
          "length": 20,
          "start": 1170
        },
        {
          "length": 20,
          "start": 2270
        },
        {
          "length": 20,
          "start": 3097
        }
      ]
    }
  },
  "deployedLinkReferences": {
    "contracts/ProposalAutomation.sol": {
      "ProposalAutomation": [
        {
          "length": 20,
          "start": 1000
        },
        {
          "length": 20,
          "start": 2100
        },
        {
          "length": 20,
          "start": 2927
        }
      ]
    }
  }
}