{
  "_format": "hh-sol-artifact-1",
  "contractName": "ProposalAutomation",
  "sourceName": "contracts/ProposalAutomation.sol",
  "abi": [
    {
      "inputs": [
        {
          "internalType": "uint256",
          "name": "currentBucketIndex",
          "type": "uint256"
        }
      ],
      "name": "advanceBucket",
      "outputs": [
        {
          "internalType": "uint256",
          "name": "",
          "type": "uint256"
        }
      ],
      "stateMutability": "pure",
      "type": "function"
    }
  ],
  "bytecode": "0x60808060405234601b5761088190816100208239308160080152f35b5f80fdfe608080604052307f000000000000000000000000000000000000000000000000000000000000000014906004361015610036575f80fd5b5f3560e01c90816336dfa15814610196575080637fd570611461010957806380f86238146100cd57638d32fba11461006c575f80fd5b6100c95760403660031901126100c9576004356001600160401b0381116100c957366023820112156100c9578060040135906001600160401b0382116100c95736602483830101116100c9576100c791602480359201610742565b005b5f80fd5b60203660031901126100c957600435600181018091116100f55760209060a860405191068152f35b634e487b7160e01b5f52601160045260245ffd5b506100c95760603660031901126100c9576024356001600160a01b038116908190036100c95760a8610e1060443504065f5260043560205260405f208054600160401b811015610182576101629160018201815561072d565b81546001600160a01b0360039290921b91821b191692901b919091179055005b634e487b7160e01b5f52604160045260245ffd5b60803660031901126100c957604435602435604083016001600160401b03811184821017610182576040525f835260208301926060845260a8610e104204069060018201948583116100f557604051926106606101f381866106c0565b60328552601f19013660208601375f528460205260405f20915f968354965f5b888110806106b6575b156103b35761022b818761072d565b60018060a01b0391549060031b1c16805f528860205260ff60405f20541615610258575b50600101610213565b604051633bef870760e21b8152602081600481855afa8015610316575f9061036b575b6001600160401b0391501642101580610321575b806102bc575b1561024f579099906102a78289610705565b525f1981146100f5576001809101999061024f565b506040516305f9be7160e31b8152602081600481855afa908115610316575f916102e8575b5015610295565b610309915060203d811161030f575b61030181836106c0565b81019061085c565b8c6102e1565b503d6102f7565b6040513d5f823e3d90fd5b50604051631ebc968760e11b8152602081600481855afa908115610316575f9161034d575b501561028f565b610365915060203d811161030f5761030181836106c0565b8c610346565b506020813d82116103ab575b81610384602093836106c0565b810103126100c957516001600160401b03811681036100c9576001600160401b039061027b565b3d9150610377565b508594508887918193603283106104dd575b50505050801515808352610416575b50608090602060405193849282845251151582840152516040808401528051918291826060860152018484015e5f828201840152601f01601f19168101030190f35b61041f816106ee565b9061042d60405192836106c0565b808252610439816106ee565b602083019590601f19013687375f5b8281106104b557505050604051906040820190602080840152518091526060820194905f5b8181106104965750505061048d816080949503601f1981018352826106c0565b835282916103d4565b82516001600160a01b031687526020968701969092019160010161046d565b6001906001600160a01b036104ca8285610705565b51166104d68287610705565b5201610448565b60a891929395979450065f5260205260405f208160320394603286116100f5575f968254965f5b888110806106ad575b156106925761051c818661072d565b60018060a01b0391549060031b1c16805f528860205260ff60405f20541615610549575b50600101610504565b604051633bef870760e21b8152602081600481855afa8015610316575f9061064a575b6001600160401b0391501642101580610600575b806105b6575b15610540576105a161059b8c899d949d6106e1565b89610705565b525f1981146100f55760018091019990610540565b506040516305f9be7160e31b8152602081600481855afa908115610316575f916105e2575b5015610586565b6105fa915060203d811161030f5761030181836106c0565b8c6105db565b50604051631ebc968760e11b8152602081600481855afa908115610316575f9161062c575b5015610580565b610644915060203d811161030f5761030181836106c0565b8c610625565b506020813d821161068a575b81610663602093836106c0565b810103126100c957516001600160401b03811681036100c9576001600160401b039061056c565b3d9150610656565b50509450945050936106a491946106e1565b848080806103c5565b50818a1061050d565b5060328a1061021c565b90601f801991011681019081106001600160401b0382111761018257604052565b919082018092116100f557565b6001600160401b0381116101825760051b60200190565b80518210156107195760209160051b010190565b634e487b7160e01b5f52603260045260245ffd5b8054821015610719575f5260205f2001905f90565b91908015610857578201916020818403126100c9578035906001600160401b0382116100c957019180601f840112156100c957823590610781826106ee565b9361078f60405195866106c0565b82855260208086019360051b8201019182116100c957602001915b8183106108375750505081518181115f1461082f5750905b5f5b8281106107d057505050565b6001600160a01b036107e28284610705565b511690813b156100c9575f80600193604460405180948193634585e33b60e01b8352602060048401528160248401525af161081f575b50016107c4565b5f610829916106c0565b5f610818565b9050906107c2565b82356001600160a01b03811681036100c9578152602092830192016107aa565b505050565b908160209103126100c9575180151581036100c9579056fea164736f6c634300081b000a",
  "linkReferences": {},
  "deployedLinkReferences": {}
}