{
  "_format": "hh-sol-artifact-1",
  "contractName": "SpaceRegistry",
  "sourceName": "contracts/SpaceRegistry.sol",
  "abi": [
    {
      "inputs": [
        {
          "internalType": "address",
          "name": "_ensRegistry",
          "type": "address"
        }
      ],
      "stateMutability": "nonpayable",
      "type": "constructor"
    },
    {
      "inputs": [],
      "name": "InvalidDisplayName",
      "type": "error"
    },
    {
      "inputs": [],
      "name": "InvalidENSName",
      "type": "error"
    },
    {
      "inputs": [],
      "name": "NotENSOwner",
      "type": "error"
    },
    {
      "inputs": [],
      "name": "NotSpaceOwner",
      "type": "error"
    },
    {
      "inputs": [],
      "name": "SpaceAlreadyExists",
      "type": "error"
    },
    {
      "inputs": [],
      "name": "SpaceDoesNotExist",
      "type": "error"
    },
    {
      "inputs": [],
      "name": "ZeroAddress",
      "type": "error"
    },
    {
      "anonymous": false,
      "inputs": [
        {
          "indexed": true,
          "internalType": "bytes32",
          "name": "spaceId",
          "type": "bytes32"
        },
        {
          "indexed": true,
          "internalType": "address",
          "name": "admin",
          "type": "address"
        }
      ],
      "name": "AdminAdded",
      "type": "event"
    },
    {
      "anonymous": false,
      "inputs": [
        {
          "indexed": true,
          "internalType": "bytes32",
          "name": "spaceId",
          "type": "bytes32"
        },
        {
          "indexed": true,
          "internalType": "address",
          "name": "admin",
          "type": "address"
        }
      ],
      "name": "AdminRemoved",
      "type": "event"
    },
    {
      "anonymous": false,
      "inputs": [
        {
          "indexed": true,
          "internalType": "bytes32",
          "name": "spaceId",
          "type": "bytes32"
        },
        {
          "indexed": true,
          "internalType": "address",
          "name": "member",
          "type": "address"
        }
      ],
      "name": "MemberJoined",
      "type": "event"
    },
    {
      "anonymous": false,
      "inputs": [
        {
          "indexed": true,
          "internalType": "bytes32",
          "name": "spaceId",
          "type": "bytes32"
        },
        {
          "indexed": true,
          "internalType": "address",
          "name": "member",
          "type": "address"
        }
      ],
      "name": "MemberLeft",
      "type": "event"
    },
    {
      "anonymous": false,
      "inputs": [
        {
          "indexed": true,
          "internalType": "bytes32",
          "name": "spaceId",
          "type": "bytes32"
        },
        {
          "indexed": false,
          "internalType": "string",
          "name": "ensName",
          "type": "string"
        },
        {
          "indexed": false,
          "internalType": "string",
          "name": "displayName",
          "type": "string"
        },
        {
          "indexed": true,
          "internalType": "address",
          "name": "owner",
          "type": "address"
        }
      ],
      "name": "SpaceCreated",
      "type": "event"
    },
    {
      "anonymous": false,
      "inputs": [
        {
          "indexed": true,
          "internalType": "bytes32",
          "name": "spaceId",
          "type": "bytes32"
        }
      ],
      "name": "SpaceDeactivated",
      "type": "event"
    },
    {
      "anonymous": false,
      "inputs": [
        {
          "indexed": true,
          "internalType": "bytes32",
          "name": "spaceId",
          "type": "bytes32"
        },
        {
          "indexed": false,
          "internalType": "string",
          "name": "newDisplayName",
          "type": "string"
        },
        {
          "indexed": true,
          "internalType": "address",
          "name": "updatedBy",
          "type": "address"
        }
      ],
      "name": "SpaceDisplayNameUpdated",
      "type": "event"
    },
    {
      "anonymous": false,
      "inputs": [
        {
          "indexed": true,
          "internalType": "bytes32",
          "name": "spaceId",
          "type": "bytes32"
        },
        {
          "indexed": true,
          "internalType": "address",
          "name": "previousOwner",
          "type": "address"
        },
        {
          "indexed": true,
          "internalType": "address",
          "name": "newOwner",
          "type": "address"
        }
      ],
      "name": "SpaceTransferred",
      "type": "event"
    },
    {
      "anonymous": false,
      "inputs": [
        {
          "indexed": true,
          "internalType": "bytes32",
          "name": "spaceId",
          "type": "bytes32"
        },
        {
          "indexed": true,
          "internalType": "address",
          "name": "user",
          "type": "address"
        },
        {
          "indexed": false,
          "internalType": "bool",
          "name": "status",
          "type": "bool"
        }
      ],
      "name": "WhitelistUpdated",
      "type": "event"
    },
    {
      "inputs": [
        {
          "internalType": "bytes32",
          "name": "spaceId",
          "type": "bytes32"
        },
        {
          "internalType": "address",
          "name": "admin",
          "type": "address"
        }
      ],
      "name": "addSpaceAdmin",
      "outputs": [],
      "stateMutability": "nonpayable",
      "type": "function"
    },
    {
      "inputs": [
        {
          "internalType": "bytes32",
          "name": "spaceId",
          "type": "bytes32"
        },
        {
          "internalType": "address",
          "name": "user",
          "type": "address"
        }
      ],
      "name": "addToWhitelist",
      "outputs": [],
      "stateMutability": "nonpayable",
      "type": "function"
    },
    {
      "inputs": [
        {
          "internalType": "string",
          "name": "ensName",
          "type": "string"
        },
        {
          "internalType": "string",
          "name": "displayName",
          "type": "string"
        },
        {
          "internalType": "enum MembershipType",
          "name": "membershipType",
          "type": "uint8"
        },
        {
          "internalType": "address",
          "name": "criteriaContract",
          "type": "address"
        },
        {
          "internalType": "uint256",
          "name": "criteriaAmount",
          "type": "uint256"
        }
      ],
      "name": "createSpace",
      "outputs": [],
      "stateMutability": "nonpayable",
      "type": "function"
    },
    {
      "inputs": [
        {
          "internalType": "bytes32",
          "name": "spaceId",
          "type": "bytes32"
        }
      ],
      "name": "deactivateSpace",
      "outputs": [],
      "stateMutability": "nonpayable",
      "type": "function"
    },
    {
      "inputs": [],
      "name": "ens",
      "outputs": [
        {
          "internalType": "contract IENS",
          "name": "",
          "type": "address"
        }
      ],
      "stateMutability": "view",
      "type": "function"
    },
    {
      "inputs": [
        {
          "internalType": "address",
          "name": "owner",
          "type": "address"
        }
      ],
      "name": "getOwnerSpaces",
      "outputs": [
        {
          "internalType": "bytes32[]",
          "name": "",
          "type": "bytes32[]"
        }
      ],
      "stateMutability": "view",
      "type": "function"
    },
    {
      "inputs": [
        {
          "internalType": "bytes32",
          "name": "spaceId",
          "type": "bytes32"
        }
      ],
      "name": "getSpace",
      "outputs": [
        {
          "internalType": "string",
          "name": "ensName",
          "type": "string"
        },
        {
          "internalType": "string",
          "name": "displayName",
          "type": "string"
        },
        {
          "internalType": "address",
          "name": "owner",
          "type": "address"
        },
        {
          "internalType": "uint256",
          "name": "createdAt",
          "type": "uint256"
        },
        {
          "internalType": "bool",
          "name": "active",
          "type": "bool"
        },
        {
          "internalType": "enum MembershipType",
          "name": "membershipType",
          "type": "uint8"
        },
        {
          "internalType": "address",
          "name": "criteriaContract",
          "type": "address"
        },
        {
          "internalType": "uint256",
          "name": "criteriaAmount",
          "type": "uint256"
        }
      ],
      "stateMutability": "view",
      "type": "function"
    },
    {
      "inputs": [
        {
          "internalType": "bytes32",
          "name": "spaceId",
          "type": "bytes32"
        }
      ],
      "name": "getSpaceMembers",
      "outputs": [
        {
          "internalType": "address[]",
          "name": "",
          "type": "address[]"
        }
      ],
      "stateMutability": "view",
      "type": "function"
    },
    {
      "inputs": [
        {
          "internalType": "bytes32",
          "name": "spaceId",
          "type": "bytes32"
        },
        {
          "internalType": "address",
          "name": "account",
          "type": "address"
        }
      ],
      "name": "isSpaceAdmin",
      "outputs": [
        {
          "internalType": "bool",
          "name": "",
          "type": "bool"
        }
      ],
      "stateMutability": "view",
      "type": "function"
    },
    {
      "inputs": [
        {
          "internalType": "bytes32",
          "name": "spaceId",
          "type": "bytes32"
        },
        {
          "internalType": "address",
          "name": "account",
          "type": "address"
        }
      ],
      "name": "isSpaceOwner",
      "outputs": [
        {
          "internalType": "bool",
          "name": "",
          "type": "bool"
        }
      ],
      "stateMutability": "view",
      "type": "function"
    },
    {
      "inputs": [
        {
          "internalType": "bytes32",
          "name": "spaceId",
          "type": "bytes32"
        }
      ],
      "name": "joinSpace",
      "outputs": [],
      "stateMutability": "nonpayable",
      "type": "function"
    },
    {
      "inputs": [
        {
          "internalType": "bytes32",
          "name": "spaceId",
          "type": "bytes32"
        }
      ],
      "name": "leaveSpace",
      "outputs": [],
      "stateMutability": "nonpayable",
      "type": "function"
    },
    {
      "inputs": [
        {
          "internalType": "string",
          "name": "name",
          "type": "string"
        }
      ],
      "name": "namehash",
      "outputs": [
        {
          "internalType": "bytes32",
          "name": "",
          "type": "bytes32"
        }
      ],
      "stateMutability": "pure",
      "type": "function"
    },
    {
      "inputs": [
        {
          "internalType": "address",
          "name": "",
          "type": "address"
        },
        {
          "internalType": "uint256",
          "name": "",
          "type": "uint256"
        }
      ],
      "name": "ownerSpaces",
      "outputs": [
        {
          "internalType": "bytes32",
          "name": "",
          "type": "bytes32"
        }
      ],
      "stateMutability": "view",
      "type": "function"
    },
    {
      "inputs": [
        {
          "internalType": "bytes32",
          "name": "spaceId",
          "type": "bytes32"
        },
        {
          "internalType": "address",
          "name": "user",
          "type": "address"
        }
      ],
      "name": "removeFromWhitelist",
      "outputs": [],
      "stateMutability": "nonpayable",
      "type": "function"
    },
    {
      "inputs": [
        {
          "internalType": "bytes32",
          "name": "spaceId",
          "type": "bytes32"
        },
        {
          "internalType": "address",
          "name": "admin",
          "type": "address"
        }
      ],
      "name": "removeSpaceAdmin",
      "outputs": [],
      "stateMutability": "nonpayable",
      "type": "function"
    },
    {
      "inputs": [
        {
          "internalType": "bytes32",
          "name": "",
          "type": "bytes32"
        },
        {
          "internalType": "address",
          "name": "",
          "type": "address"
        }
      ],
      "name": "spaceAdmins",
      "outputs": [
        {
          "internalType": "bool",
          "name": "",
          "type": "bool"
        }
      ],
      "stateMutability": "view",
      "type": "function"
    },
    {
      "inputs": [
        {
          "internalType": "bytes32",
          "name": "",
          "type": "bytes32"
        }
      ],
      "name": "spaceExists",
      "outputs": [
        {
          "internalType": "bool",
          "name": "",
          "type": "bool"
        }
      ],
      "stateMutability": "view",
      "type": "function"
    },
    {
      "inputs": [
        {
          "internalType": "bytes32",
          "name": "spaceId",
          "type": "bytes32"
        }
      ],
      "name": "spaceIsActive",
      "outputs": [
        {
          "internalType": "bool",
          "name": "",
          "type": "bool"
        }
      ],
      "stateMutability": "view",
      "type": "function"
    },
    {
      "inputs": [
        {
          "internalType": "bytes32",
          "name": "",
          "type": "bytes32"
        },
        {
          "internalType": "address",
          "name": "",
          "type": "address"
        }
      ],
      "name": "spaceMembers",
      "outputs": [
        {
          "internalType": "bool",
          "name": "",
          "type": "bool"
        }
      ],
      "stateMutability": "view",
      "type": "function"
    },
    {
      "inputs": [
        {
          "internalType": "bytes32",
          "name": "",
          "type": "bytes32"
        },
        {
          "internalType": "address",
          "name": "",
          "type": "address"
        }
      ],
      "name": "spaceWhitelist",
      "outputs": [
        {
          "internalType": "bool",
          "name": "",
          "type": "bool"
        }
      ],
      "stateMutability": "view",
      "type": "function"
    },
    {
      "inputs": [
        {
          "internalType": "bytes32",
          "name": "",
          "type": "bytes32"
        }
      ],
      "name": "spaces",
      "outputs": [
        {
          "internalType": "bytes32",
          "name": "spaceId",
          "type": "bytes32"
        },
        {
          "internalType": "string",
          "name": "ensName",
          "type": "string"
        },
        {
          "internalType": "string",
          "name": "displayName",
          "type": "string"
        },
        {
          "internalType": "address",
          "name": "owner",
          "type": "address"
        },
        {
          "internalType": "uint256",
          "name": "createdAt",
          "type": "uint256"
        },
        {
          "internalType": "bool",
          "name": "active",
          "type": "bool"
        },
        {
          "internalType": "enum MembershipType",
          "name": "membershipType",
          "type": "uint8"
        },
        {
          "internalType": "address",
          "name": "criteriaContract",
          "type": "address"
        },
        {
          "internalType": "uint256",
          "name": "criteriaAmount",
          "type": "uint256"
        }
      ],
      "stateMutability": "view",
      "type": "function"
    },
    {
      "inputs": [
        {
          "internalType": "bytes32",
          "name": "spaceId",
          "type": "bytes32"
        },
        {
          "internalType": "address",
          "name": "newOwner",
          "type": "address"
        }
      ],
      "name": "transferSpaceOwnership",
      "outputs": [],
      "stateMutability": "nonpayable",
      "type": "function"
    },
    {
      "inputs": [
        {
          "internalType": "bytes32",
          "name": "spaceId",
          "type": "bytes32"
        },
        {
          "internalType": "string",
          "name": "newDisplayName",
          "type": "string"
        }
      ],
      "name": "updateSpaceDisplayName",
      "outputs": [],
      "stateMutability": "nonpayable",
      "type": "function"
    }
  ],
  "bytecode": "0x608034606f57601f611f6e38819003918201601f19168301916001600160401b03831184841017607357808492602094604052833981010312606f57516001600160a01b03811690819003606f575f80546001600160a01b031916919091179055604051611ee690816100888239f35b5f80fd5b634e487b7160e01b5f52604160045260245ffdfe60806040526004361015610011575f80fd5b5f3560e01c8063098799621461191f578063165e6b931461184f578063335a1902146116d85780633f15457f146116b157806349bafcc914611659578063684e4ac71461149d5780636d4c60e6146114105780636e015b221461136957806373fe275414611318578063782d41db1461129157806379b6e5b414610cf8578063813e794314610caf5780638247e89f14610bf8578063923222d114610baf5780639bc190db14610b295780639c93521714610959578063a5c97cb41461092a578063aa00db0514610882578063aa3be2eb1461047c578063d002c5a6146103c8578063d3e2f4901461037f578063e8232fe7146102be578063e994529e146101f35763fd5862a414610121575f80fd5b346101ef5760403660031901126101ef5760043561013d6119df565b90805f52600360205260ff60405f205416156101e0575f818152600160205260409020600301546001600160a01b031633036101d1575f8181526005602090815260408083206001600160a01b039590951680845294825291829020805460ff1916600190811790915591519182527f901b2086bb73a0582fac109df77983893381d5c3126e8d378ef665f400d3148191a3005b638c09e73f60e01b5f5260045ffd5b63be34080760e01b5f5260045ffd5b5f80fd5b346101ef5760203660031901126101ef576004355f52600160205260405f20805461022060018301611aca565b9161022d60028201611aca565b60018060a01b0360038301541691600481015461027a600660058401549301549361026c604051988998895261012060208a0152610120890190611a61565b908782036040890152611a61565b936060860152608085015260ff8116151560a08501526102a360c0850160ff8360081c16611a85565b60101c6001600160a01b031660e08401526101008301520390f35b346101ef5760203660031901126101ef576004355f52600160205261032e60405f2060018060a01b036003820154166004820154600583015460068401549161033c610318600261031160018901611aca565b9701611aca565b6040519788976101008952610100890190611a61565b908782036020890152611a61565b936040860152606085015260ff81161515608085015261036560a0850160ff8360081c16611a85565b60101c6001600160a01b031660c084015260e08301520390f35b346101ef5760403660031901126101ef576103986119df565b6004355f52600460205260405f209060018060a01b03165f52602052602060ff60405f2054166040519015158152f35b346101ef5760203660031901126101ef576001600160a01b036103e96119f5565b165f52600260205260405f20604051806020835491828152019081935f5260205f20905f5b818110610466575050508161042491038261196d565b604051918291602083019060208452518091526040830191905f5b81811061044d575050500390f35b825184528594506020938401939092019160010161043f565b825484526020909301926001928301920161040e565b346101ef5760203660031901126101ef57600435805f52600360205260ff60405f205416156101e057805f52600160205260ff600560405f20015416156101e0575f81815260046020908152604080832033845290915290205460ff1661084d57805f52600160205260ff600560405f20015460081c166004811015610839578061056b5750805f52600460205260405f2060018060a01b0333165f5260205260405f20600160ff19825416179055805f52600160205261054333600760405f2001611db7565b33907fdabee0b25f35888f14428f2369f0d67a033a857623827e3efa07eb83471170aa5f80a3005b6001810361060c57505f81815260056020908152604080832033845290915290205460ff16156105d657805f52600460205260405f2060018060a01b0333165f5260205260405f20600160ff19825416179055805f52600160205261054333600760405f2001611db7565b60405162461bcd60e51b815260206004820152600e60248201526d139bdd15da1a5d195b1a5cdd195960921b6044820152606490fd5b600281036107295750805f5260016020526024602060018060a01b03600560405f20015460101c16604051928380926370a0823160e01b82523360048301525afa90811561071e575f916106ec575b50815f526001602052600660405f200154116106b257805f52600460205260405f2060018060a01b0333165f5260205260405f20600160ff19825416179055805f52600160205261054333600760405f2001611db7565b60405162461bcd60e51b8152602060048201526012602482015271496e73756666696369656e74546f6b656e7360701b6044820152606490fd5b90506020813d602011610716575b816107076020938361196d565b810103126101ef57518261065b565b3d91506106fa565b6040513d5f823e3d90fd5b60031461073257005b805f5260016020526024602060018060a01b03600560405f20015460101c16604051928380926370a0823160e01b82523360048301525afa90811561071e575f91610807575b50815f526001602052600660405f200154116107cf57805f52600460205260405f2060018060a01b0333165f5260205260405f20600160ff19825416179055805f52600160205261054333600760405f2001611db7565b60405162461bcd60e51b815260206004820152601060248201526f496e73756666696369656e744e46547360801b6044820152606490fd5b90506020813d602011610831575b816108226020938361196d565b810103126101ef575182610778565b3d9150610815565b634e487b7160e01b5f52602160045260245ffd5b60405162461bcd60e51b815260206004820152600d60248201526c20b63932b0b23ca6b2b6b132b960991b6044820152606490fd5b346101ef5760403660031901126101ef5760043561089e6119df565b90805f52600360205260ff60405f205416156101e0575f818152600160205260409020600301546001600160a01b031633036101d1575f8181526005602090815260408083206001600160a01b0395909516808452948252808320805460ff19169055519182527f901b2086bb73a0582fac109df77983893381d5c3126e8d378ef665f400d3148191a3005b346101ef5760203660031901126101ef576004355f526003602052602060ff60405f2054166040519015158152f35b346101ef5760403660031901126101ef576004356024356001600160401b0381116101ef5761098c903690600401611a34565b9190815f52600360205260ff60405f205416156101e0575f828152600160205260409020600301546001600160a01b031633036101d157601e8311610b1a57815f526001602052600260405f20016001600160401b038411610b06576109fc846109f68354611a92565b83611d74565b835f601f8211600114610a785791610a4f827f81b8c911699fa2d2859848fa5f805ebfcd7338d5451527bbbd3b4be1bcd346089593610a68955f91610a6d575b508160011b915f199060031b1c19161790565b90555b6040519182916020835233966020840191611dda565b0390a3005b905084013589610a3c565b5f8381526020812092508690601f198216905b818110610aeb5750917f81b8c911699fa2d2859848fa5f805ebfcd7338d5451527bbbd3b4be1bcd34608959391610a68959310610ad2575b5050600186811b019055610a52565b8301355f19600389901b60f8161c191690558680610ac3565b86840135855560019094019360209384019389935001610a8b565b634e487b7160e01b5f52604160045260245ffd5b6321b9948d60e21b5f5260045ffd5b346101ef5760203660031901126101ef57600435805f52600360205260ff60405f205416156101e0575f818152600160205260409020600301546001600160a01b031633036101d157805f526001602052600560405f200160ff1981541690557fc8ae47feabcfb569bcc25903f07d3fe21155b0f35e53213f03198fc06ac844675f80a2005b346101ef5760403660031901126101ef57610bc86119df565b6004355f52600560205260405f209060018060a01b03165f52602052602060ff60405f2054166040519015158152f35b346101ef5760403660031901126101ef57600435610c146119df565b815f52600360205260ff60405f205416156101e0575f828152600160205260409020600301546001600160a01b031633036101d1576001600160a01b0316908115610ca057805f52600660205260405f20825f5260205260405f20600160ff198254161790557ff91205dfd6045d43ed190b1272b57bca9409defd9b0ce6fa8966883c813befda5f80a3005b63d92e233d60e01b5f5260045ffd5b346101ef5760403660031901126101ef57610cc86119df565b6004355f52600660205260405f209060018060a01b03165f52602052602060ff60405f2054166040519015158152f35b346101ef5760a03660031901126101ef576004356001600160401b0381116101ef57610d28903690600401611a34565b906024356001600160401b0381116101ef57610d48903690600401611a34565b9290916044359160048310156101ef576064356001600160a01b03811695908690036101ef57610d81610d7c3684866119a9565b611dfa565b1561128257601e8111610b1a57610da1610d9c3684866119a9565b611b9d565b5f546040516302571be360e01b81526004810192909252602090829060249082906001600160a01b03165afa90811561071e575f91611240575b50336001600160a01b039091160361123157604051602081019083858337610e166020828681015f838201520301601f19810183528261196d565b51902093845f52600360205260ff60405f20541661122257602096604051610e3e898261196d565b5f81525f3681376040519261014084018481106001600160401b03821117610b0657604052878452610e713687896119a9565b918a8501928352610e8336878c6119a9565b604086019081526060860190338252608087019242845260a08801966001885260c0890195865260e08901526084356101008901526101208801528a5f5260018d5260405f20948751865560018601905180516001600160401b038111610b06578f610ef982610ef38654611a92565b86611d74565b80601f83116001146111bd57508190610f27935f926111b2575b50508160011b915f199060031b1c19161790565b90555b5180516001600160401b038111610b0657610f5581610f4c6002890154611a92565b60028901611d74565b8d80601f831160011461114757508190610f83935f9261113c5750508160011b915f199060031b1c19161790565b60028501555b60018060a01b03905116600384019060018060a01b031660018060a01b0319825416179055516004830155600582019251151560ff80198554169116178355519060048210156108395761012092600792815461ff0062010000600160b01b0360e089015160101b169260081b1690610100600160b01b03191617179055610100840151600682015501910151908151916001600160401b038311610b0657600160401b8311610b065788908254848455808510611121575b5001905f52875f205f5b8381106111065788887fd441360a293fa6c11c1f59927d24a0641f1a92d4bbaeba2693fd873322dfba148989610a688f8b865f526003825260405f20600160ff19825416179055335f52600282526110a78760405f20611d38565b5f87815260048352604080822033808452908552818320805460ff191660019081179091558a8452855291206110e09190600701611db7565b6110f7604051958695604087526040870191611dda565b91848303908501523397611dda565b82516001600160a01b0316828201559189019160010161104c565b61113690845f5285845f209182019101611d5e565b8a611042565b015190508f80610f13565b9192601f198416600289015f52835f20935f905b82821061119a575050908460019594939210611182575b505050811b016002850155610f89565b01515f1960f88460031b161c191690558e8080611172565b8060018697829497870151815501960194019061115b565b015190505f80610f13565b9192601f198416855f52835f20935f905b82821061120a5750509084600195949392106111f2575b505050811b019055610f2a565b01515f1960f88460031b161c191690555f80806111e5565b806001869782949787015181550196019401906111ce565b631028218160e31b5f5260045ffd5b632a2eb1cb60e01b5f5260045ffd5b90506020813d60201161127a575b8161125b6020938361196d565b810103126101ef57516001600160a01b03811681036101ef5787610ddb565b3d915061124e565b63d572cd8d60e01b5f5260045ffd5b346101ef5760403660031901126101ef5760206004356112af6119df565b815f526003835260ff60405f20541691826112fe575b826112d7575b50506040519015158152f35b5f9081526001845260409020600301546001600160a01b03918216911614905082806112cb565b8092505f526001835260ff600560405f20015416916112c5565b346101ef5760203660031901126101ef57600435805f52600360205260ff60405f2054168061134f575b6020906040519015158152f35b505f526001602052602060ff600560405f20015416611342565b346101ef5760403660031901126101ef576004356113856119df565b815f52600360205260ff60405f205416156101e0575f828152600160205260409020600301546001600160a01b031633036101d1575f8281526006602090815260408083206001600160a01b0394909416808452939091528120805460ff191690559091907fed26a12a69f99798799967437d7162d514e513fcea1298caaa94fa4be5d5acbf9080a3005b346101ef5760403660031901126101ef5760043561142c6119df565b90805f52600360205260ff60405f2054169081611482575b81611457575b6020826040519015158152f35b90505f52600660205260405f209060018060a01b03165f52602052602060ff60405f2054168261144a565b8091505f52600160205260ff600560405f2001541690611444565b346101ef5760203660031901126101ef57600435805f52600360205260ff60405f205416156101e0575f81815260046020908152604080832033845290915290205460ff1615611628575f8181526004602090815260408083203384528252808320805460ff1916905583835260019091528120600701905b815490818110156116205761152b8184611a0b565b905460039190911b1c6001600160a01b0316331461154d576001915001611516565b5f19820191821161160c576115816115686115a59385611a0b565b905460039190911b1c6001600160a01b03169184611a0b565b81546001600160a01b0393841660039290921b91821b9390911b1916919091179055565b805480156115f8575f1901906115bb8282611a0b565b81549060018060a01b039060031b1b19169055555b33907fbb7332ed2c9304ddee996cdb3fbef4348b3174f347b0c1fa5e53f96867e1321c5f80a3005b634e487b7160e01b5f52603160045260245ffd5b634e487b7160e01b5f52601160045260245ffd5b5050506115d0565b60405162461bcd60e51b81526020600482015260096024820152682737ba26b2b6b132b960b91b6044820152606490fd5b346101ef5760403660031901126101ef576116726119f5565b6001600160a01b03165f908152600260205260409020805460243591908210156101ef576020916116a291611a0b565b90549060031b1c604051908152f35b346101ef575f3660031901126101ef575f546040516001600160a01b039091168152602090f35b346101ef5760403660031901126101ef576004356116f46119df565b815f52600360205260ff60405f205416156101e0575f828152600160205260409020600301546001600160a01b031633036101d1576001600160a01b0316908115610ca0575f81815260016020908152604080832060030180546001600160a01b0319811687179091556001600160a01b0316808452600290925282209290915b835480821015611845578261178a8387611a0b565b90549060031b1c1461179f5750600101611775565b929391925f19810190811161160c576117cc6117be6117e29285611a0b565b90549060031b1c9284611a0b565b819391549060031b91821b915f19901b19161790565b9055805480156115f8575f1901906117fa8282611a0b565b8154905f199060031b1b19169055555b825f52600260205261181f8160405f20611d38565b7f6e234a51fd403244cf2c0e859ca6834bd4624675b0e9d0221bfcb58ab3e854545f80a4005b505090915061180a565b346101ef5760203660031901126101ef57600435805f52600360205260ff60405f205416156101e0575f526001602052600760405f2001604051806020835491828152019081935f5260205f20905f5b81811061190057505050816118b591038261196d565b604051918291602083019060208452518091526040830191905f5b8181106118de575050500390f35b82516001600160a01b03168452859450602093840193909201916001016118d0565b82546001600160a01b031684526020909301926001928301920161189f565b346101ef5760203660031901126101ef576004356001600160401b0381116101ef57366023820112156101ef57611965610d9c60209236906024816004013591016119a9565b604051908152f35b90601f801991011681019081106001600160401b03821117610b0657604052565b6001600160401b038111610b0657601f01601f191660200190565b9291926119b58261198e565b916119c3604051938461196d565b8294818452818301116101ef578281602093845f960137010152565b602435906001600160a01b03821682036101ef57565b600435906001600160a01b03821682036101ef57565b8054821015611a20575f5260205f2001905f90565b634e487b7160e01b5f52603260045260245ffd5b9181601f840112156101ef578235916001600160401b0383116101ef57602083818601950101116101ef57565b805180835260209291819084018484015e5f828201840152601f01601f1916010190565b9060048210156108395752565b90600182811c92168015611ac0575b6020831014611aac57565b634e487b7160e01b5f52602260045260245ffd5b91607f1691611aa1565b9060405191825f825492611add84611a92565b8084529360018116908115611b485750600114611b04575b50611b029250038361196d565b565b90505f9291925260205f20905f915b818310611b2c575050906020611b02928201015f611af5565b6020919350806001915483858901015201910190918492611b13565b905060209250611b0294915060ff191682840152151560051b8201015f611af5565b5f19811461160c5760010190565b908151811015611a20570160200190565b8051821015611a205760209160051b010190565b5f9061016060405190611bb0818361196d565b600a8252601f19013660208301375f915f935f5b8251808211611c305781148015611c0f575b611be9575b611be490611b6a565b611bc4565b94611bfd611bf686611b6a565b9585611b89565b526001850180861161160c5794611bdb565b50601760f91b6001600160f81b0319611c288386611b78565b511614611bd6565b5050935082835b611c42575050505090565b909192935f19850185811161160c57611c5b9085611b89565b51858303611d1c578351905b80820391821161160c57611c7a8261198e565b90611c88604051928361196d565b828252611c948361198e565b602083019390601f19013685375f5b818110611ce5575050505190206040519060208201928352604082015260408152611ccf60608261196d565b51902093801561160c575f190192919083611c37565b8083019081841161160c576001916001600160f81b031990611d07908b611b78565b51165f1a611d158287611b78565b5301611ca3565b611d268686611b89565b515f19810190811161160c5790611c67565b805490600160401b821015610b0657816117cc916001611d5a94018155611a0b565b9055565b818110611d69575050565b5f8155600101611d5e565b9190601f8111611d8357505050565b611b02925f5260205f20906020601f840160051c83019310611dad575b601f0160051c0190611d5e565b9091508190611da0565b80549190600160401b831015610b065782611581916001611b0295018155611a0b565b908060209392818452848401375f828201840152601f01601f1916010190565b805160048110611ed357600319810181811161160c57601760f91b906001600160f81b031990611e2a9085611b78565b5116149182611ea2575b82611e71575b82611e4457505090565b5f198201925090821161160c57600d60fb1b916001600160f81b031991611e6b9190611b78565b51161490565b9150600119810181811161160c57601d60fa1b906001600160f81b031990611e999085611b78565b51161491611e3a565b9150600219810181811161160c57606560f81b906001600160f81b031990611eca9085611b78565b51161491611e34565b50505f9056fea164736f6c634300081b000a",
  "linkReferences": {},
  "deployedLinkReferences": {}
}