{
  "_format": "hh-sol-artifact-1",
  "contractName": "PrivateProposalFactory",
  "sourceName": "contracts/PrivateProposalFactory.sol",
  "abi": [
    {
      "inputs": [
        {
          "internalType": "address",
          "name": "_spaceRegistry",
          "type": "address"
        }
      ],
      "stateMutability": "nonpayable",
      "type": "constructor"
    },
    {
      "inputs": [],
      "name": "AlreadyCancelled",
      "type": "error"
    },
    {
      "inputs": [],
      "name": "EmptyName",
      "type": "error"
    },
    {
      "inputs": [],
      "name": "InvalidProposalType",
      "type": "error"
    },
    {
      "inputs": [],
      "name": "InvalidThreshold",
      "type": "error"
    },
    {
      "inputs": [],
      "name": "NameTooLong",
      "type": "error"
    },
    {
      "inputs": [],
      "name": "NotAuthorized",
      "type": "error"
    },
    {
      "inputs": [],
      "name": "NotSpaceOwner",
      "type": "error"
    },
    {
      "inputs": [],
      "name": "OnlyOwner",
      "type": "error"
    },
    {
      "inputs": [],
      "name": "SnapshotInFuture",
      "type": "error"
    },
    {
      "inputs": [],
      "name": "SpaceNotExist",
      "type": "error"
    },
    {
      "inputs": [],
      "name": "StartPast",
      "type": "error"
    },
    {
      "inputs": [],
      "name": "Started",
      "type": "error"
    },
    {
      "inputs": [],
      "name": "ZeroAddr",
      "type": "error"
    },
    {
      "anonymous": false,
      "inputs": [
        {
          "indexed": true,
          "internalType": "address",
          "name": "proposalAddress",
          "type": "address"
        },
        {
          "indexed": false,
          "internalType": "string",
          "name": "name",
          "type": "string"
        },
        {
          "indexed": true,
          "internalType": "address",
          "name": "cancelledBy",
          "type": "address"
        }
      ],
      "name": "ProposalCancelled",
      "type": "event"
    },
    {
      "anonymous": false,
      "inputs": [
        {
          "indexed": true,
          "internalType": "bytes32",
          "name": "spaceId",
          "type": "bytes32"
        },
        {
          "indexed": true,
          "internalType": "bytes32",
          "name": "proposalId",
          "type": "bytes32"
        },
        {
          "indexed": false,
          "internalType": "address",
          "name": "proposal",
          "type": "address"
        },
        {
          "components": [
            {
              "internalType": "bytes32",
              "name": "spaceId",
              "type": "bytes32"
            },
            {
              "internalType": "uint64",
              "name": "start",
              "type": "uint64"
            },
            {
              "internalType": "uint64",
              "name": "end",
              "type": "uint64"
            },
            {
              "internalType": "address",
              "name": "eligibilityToken",
              "type": "address"
            },
            {
              "internalType": "uint256",
              "name": "eligibilityThreshold",
              "type": "uint256"
            },
            {
              "internalType": "uint256",
              "name": "passingThreshold",
              "type": "uint256"
            },
            {
              "internalType": "enum ProposalType",
              "name": "pType",
              "type": "uint8"
            },
            {
              "internalType": "enum EligibilityType",
              "name": "eligibilityType",
              "type": "uint8"
            },
            {
              "internalType": "bool",
              "name": "includeAbstain",
              "type": "bool"
            },
            {
              "internalType": "bool",
              "name": "predictionMarketEnabled",
              "type": "bool"
            },
            {
              "internalType": "address",
              "name": "predictionToken",
              "type": "address"
            },
            {
              "internalType": "string",
              "name": "title",
              "type": "string"
            },
            {
              "internalType": "string",
              "name": "bodyURI",
              "type": "string"
            },
            {
              "internalType": "string[]",
              "name": "choices",
              "type": "string[]"
            }
          ],
          "indexed": false,
          "internalType": "struct CreateProposalParams",
          "name": "p",
          "type": "tuple"
        }
      ],
      "name": "ProposalCreated",
      "type": "event"
    },
    {
      "anonymous": false,
      "inputs": [
        {
          "indexed": true,
          "internalType": "address",
          "name": "votingAddress",
          "type": "address"
        },
        {
          "indexed": true,
          "internalType": "uint256",
          "name": "timestamp",
          "type": "uint256"
        }
      ],
      "name": "UpkeepPerformed",
      "type": "event"
    },
    {
      "inputs": [
        {
          "internalType": "address",
          "name": "proposalAddress",
          "type": "address"
        }
      ],
      "name": "cancelProposal",
      "outputs": [],
      "stateMutability": "nonpayable",
      "type": "function"
    },
    {
      "inputs": [
        {
          "internalType": "bytes",
          "name": "",
          "type": "bytes"
        }
      ],
      "name": "checkUpkeep",
      "outputs": [
        {
          "internalType": "bool",
          "name": "upkeepNeeded",
          "type": "bool"
        },
        {
          "internalType": "bytes",
          "name": "performData",
          "type": "bytes"
        }
      ],
      "stateMutability": "view",
      "type": "function"
    },
    {
      "inputs": [
        {
          "components": [
            {
              "internalType": "bytes32",
              "name": "spaceId",
              "type": "bytes32"
            },
            {
              "internalType": "uint64",
              "name": "start",
              "type": "uint64"
            },
            {
              "internalType": "uint64",
              "name": "end",
              "type": "uint64"
            },
            {
              "internalType": "address",
              "name": "eligibilityToken",
              "type": "address"
            },
            {
              "internalType": "uint256",
              "name": "eligibilityThreshold",
              "type": "uint256"
            },
            {
              "internalType": "uint256",
              "name": "passingThreshold",
              "type": "uint256"
            },
            {
              "internalType": "enum ProposalType",
              "name": "pType",
              "type": "uint8"
            },
            {
              "internalType": "enum EligibilityType",
              "name": "eligibilityType",
              "type": "uint8"
            },
            {
              "internalType": "bool",
              "name": "includeAbstain",
              "type": "bool"
            },
            {
              "internalType": "bool",
              "name": "predictionMarketEnabled",
              "type": "bool"
            },
            {
              "internalType": "address",
              "name": "predictionToken",
              "type": "address"
            },
            {
              "internalType": "string",
              "name": "title",
              "type": "string"
            },
            {
              "internalType": "string",
              "name": "bodyURI",
              "type": "string"
            },
            {
              "internalType": "string[]",
              "name": "choices",
              "type": "string[]"
            }
          ],
          "internalType": "struct CreateProposalParams",
          "name": "params",
          "type": "tuple"
        }
      ],
      "name": "createProposal",
      "outputs": [
        {
          "internalType": "address",
          "name": "proposal",
          "type": "address"
        },
        {
          "internalType": "bytes32",
          "name": "proposalId",
          "type": "bytes32"
        }
      ],
      "stateMutability": "nonpayable",
      "type": "function"
    },
    {
      "inputs": [],
      "name": "currentBucketIndex",
      "outputs": [
        {
          "internalType": "uint256",
          "name": "",
          "type": "uint256"
        }
      ],
      "stateMutability": "view",
      "type": "function"
    },
    {
      "inputs": [
        {
          "internalType": "address",
          "name": "proposal",
          "type": "address"
        }
      ],
      "name": "isCancelled",
      "outputs": [
        {
          "internalType": "bool",
          "name": "cancelled",
          "type": "bool"
        }
      ],
      "stateMutability": "view",
      "type": "function"
    },
    {
      "inputs": [],
      "name": "owner",
      "outputs": [
        {
          "internalType": "address",
          "name": "",
          "type": "address"
        }
      ],
      "stateMutability": "view",
      "type": "function"
    },
    {
      "inputs": [
        {
          "internalType": "bytes",
          "name": "performData",
          "type": "bytes"
        }
      ],
      "name": "performUpkeep",
      "outputs": [],
      "stateMutability": "nonpayable",
      "type": "function"
    },
    {
      "inputs": [
        {
          "internalType": "bytes32",
          "name": "spaceId",
          "type": "bytes32"
        },
        {
          "internalType": "uint256",
          "name": "",
          "type": "uint256"
        }
      ],
      "name": "spaceProposals",
      "outputs": [
        {
          "internalType": "address",
          "name": "proposals",
          "type": "address"
        }
      ],
      "stateMutability": "view",
      "type": "function"
    },
    {
      "inputs": [],
      "name": "spaceRegistry",
      "outputs": [
        {
          "internalType": "contract SpaceRegistry",
          "name": "",
          "type": "address"
        }
      ],
      "stateMutability": "view",
      "type": "function"
    },
    {
      "inputs": [
        {
          "internalType": "uint256",
          "name": "bucket",
          "type": "uint256"
        },
        {
          "internalType": "uint256",
          "name": "",
          "type": "uint256"
        }
      ],
      "name": "timeBucketedProposals",
      "outputs": [
        {
          "internalType": "address",
          "name": "proposals",
          "type": "address"
        }
      ],
      "stateMutability": "view",
      "type": "function"
    }
  ],
  "bytecode": "0x608034609157601f61527e38819003918201601f19168301916001600160401b03831184841017609557808492602094604052833981010312609157516001600160a01b0381169081900360915780156082575f80546001600160a01b03199081163317909155600180549091169190911790556040516151d490816100aa8239f35b63ae9954c360e01b5f5260045ffd5b5f80fd5b634e487b7160e01b5f52604160045260245ffdfe60806040526004361015610011575f80fd5b5f5f3560e01c80630587e9e414610a93578063067c0ac314610a6b5780632a575cb014610a4e5780634585e33b146109285780636e04ff0d146108055780638da5cb5b146107de578063ace857bd1461078b578063af8df99d14610545578063c342da0c146105065763d1a726d814610088575f80fd5b3461034a57602036600319011261034a576004356001600160401b0381116105025780600401906101c0600319823603011261035857610164810191836100cf8483610c3f565b91906100da83610bee565b926100e86040519485610b8c565b8084523681830111610358578060209283860137830101528051156104f35760c89051116104e457600154604051631cff89d560e21b815282356004820181905295916001600160a01b031690602081602481855afa9081156104565783916104aa575b501561049b5760405163782d41db60e01b815260048101879052336024820152602081604481855afa908115610456578391610461575b5015806103e3575b6103d45760e4840135600281101561035857600114610391575b6040519061434c90818301918383106001600160401b0384111761037d5790839291610e7c84396040825260206101df6040840188610cc3565b920152039082f08015610370576001600160a01b0316936102009083610c3f565b61023760346040805184819560208301978d895284840137810142838201523360601b606082015203016014810184520182610b8c565b51902092858252600360205260408220805490600160401b82101561035c579061026691600182018155610ac6565b81549060031b9087821b9160018060a01b03901b1916179055604473__$b32071a4d704a8dd0adb8ee3ca2f5124fe$__9101356001600160401b03811680910361035857813b15610358578290606460405180948193637fd5706160e01b83526004808401528a602484015260448301525af4801561034d57610335575b50506040937f11e59b1f806c24db6d524dd51fedcdd33242189d90dce240746306750dd173696103268493875191829188835289602084015289830190610cc3565b0390a382519182526020820152f35b610340828092610b8c565b61034a57806102e4565b80fd5b6040513d84823e3d90fd5b8280fd5b634e487b7160e01b84526041600452602484fd5b50604051903d90823e3d90fd5b634e487b7160e01b85526041600452602485fd5b60648401356001600160a01b0381169081900361035857156103c55760848401356101a55763aabd5a0960e01b8252600482fd5b63ae9954c360e01b8252600482fd5b638c09e73f60e01b8252600482fd5b506040516336a6307360e11b815260048101879052336024820152602081604481855afa90811561045657839161041c575b501561018b565b90506020813d60201161044e575b8161043760209383610b8c565b810103126103585761044890610be1565b5f610415565b3d915061042a565b6040513d85823e3d90fd5b90506020813d602011610493575b8161047c60209383610b8c565b810103126103585761048d90610be1565b5f610183565b3d915061046f565b6326e4eeff60e21b8252600482fd5b90506020813d6020116104dc575b816104c560209383610b8c565b81010312610358576104d690610be1565b5f61014c565b3d91506104b8565b63680b6caf60e01b8452600484fd5b632ef1310560e01b8552600485fd5b5080fd5b503461034a57602036600319011261034a5760209060ff906040906001600160a01b03610531610b62565b168152600284522054166040519015158152f35b503461034a57602036600319011261034a576001600160a01b03610567610b62565b16808252600260205260ff60408320541661077c576040516302d05d3f60e01b8152602081600481855afa90811561045657839161073a575b506001600160a01b031633141580610726575b6107175760405163be9a655560e01b8152602081600481855afa80156104565783906106ce575b6001600160401b0391501642116106bf5760405163129e754360e21b8152908282600481845afa918215610456578392610665575b50808352600260205260408320600160ff198254161790557f4fdcf34e26dc0a3e92e9e1c50a9fcbefa2d1d2175f6f1958b58b152e8e7d19e3604051602081528061065f33956020830190610b3e565b0390a380f35b9091503d8084833e6106778183610b8c565b8101906020818303126106b7578051906001600160401b0382116106bb57019080601f830112156106b75781516106b092602001610c09565b905f61060f565b8380fd5b8480fd5b633633a83b60e21b8252600482fd5b506020813d60201161070f575b816106e860209383610b8c565b8101031261035857516001600160401b0381168103610358576001600160401b03906105da565b3d91506106db565b63ea8e4eb560e01b8252600482fd5b5081546001600160a01b03163314156105b3565b90506020813d602011610774575b8161075560209383610b8c565b8101031261035857516001600160a01b0381168103610358575f6105a0565b3d9150610748565b6354e3762560e01b8252600482fd5b503461034a57604036600319011261034a5760243590600435815260046020526040812090815483101561034a5760206107c58484610ac6565b905460405160039290921b1c6001600160a01b03168152f35b503461034a578060031936011261034a57546040516001600160a01b039091168152602090f35b503461034a5761081436610aef565b505060405190633d2312e360e01b82526002600483015260046024830152808260448173__$b32071a4d704a8dd0adb8ee3ca2f5124fe$__5af4918215610370578192610887575b82602081511515910151906108836040519283928352604060208401526040830190610b3e565b0390f35b9091503d8083833e6108998183610b8c565b810190602081830312610358578051906001600160401b0382116106b75701906040828203126103585760405191604083018381106001600160401b0382111761037d576040526108e981610be1565b83526020810151906001600160401b0382116106bb570181601f820112156106b75761091c929350602081519101610c09565b60208201525f8061085c565b5034610a4a5761093736610aef565b73__$b32071a4d704a8dd0adb8ee3ca2f5124fe$__91823b15610a4a575f61097c9160405180938192638d32fba160e01b835260406004840152866044840191610bc1565b603260248301520381865af48015610a3f57610a2a575b506109ff575b602060055460246040518094819363101f0c4760e31b835260048301525af490811561034d5782916109cd575b5060055580f35b90506020813d6020116109f7575b816109e860209383610b8c565b8101031261050257515f6109c6565b3d91506109db565b42827f055388373cb05589ada6902083001c323d550901fdaf02f8d0b7412e373b87c88180a3610999565b610a379193505f90610b8c565b5f915f610993565b6040513d5f823e3d90fd5b5f80fd5b34610a4a575f366003190112610a4a576020600554604051908152f35b34610a4a575f366003190112610a4a576001546040516001600160a01b039091168152602090f35b34610a4a576040366003190112610a4a576024356004355f52600360205260405f208054821015610a4a576020916107c5915b8054821015610adb575f5260205f2001905f90565b634e487b7160e01b5f52603260045260245ffd5b906020600319830112610a4a576004356001600160401b038111610a4a5782602382011215610a4a578060040135926001600160401b038411610a4a5760248483010111610a4a576024019190565b805180835260209291819084018484015e5f828201840152601f01601f1916010190565b600435906001600160a01b0382168203610a4a57565b35906001600160a01b0382168203610a4a57565b90601f801991011681019081106001600160401b03821117610bad57604052565b634e487b7160e01b5f52604160045260245ffd5b908060209392818452848401375f828201840152601f01601f1916010190565b51908115158203610a4a57565b6001600160401b038111610bad57601f01601f191660200190565b929192610c1582610bee565b91610c236040519384610b8c565b829481845281830111610a4a578281602093845f96015e010152565b903590601e1981360301821215610a4a57018035906001600160401b038211610a4a57602001918136038313610a4a57565b35906001600160401b0382168203610a4a57565b35908115158203610a4a57565b9035601e1982360301811215610a4a5701602081359101916001600160401b038211610a4a578136038313610a4a57565b90813581526001600160401b03610cdc60208401610c71565b1660208201526001600160401b03610cf660408401610c71565b1660408201526001600160a01b03610d1060608401610b78565b1660608201526080820135608082015260a082013560a082015260c08201356003811015610a4a5760c082015260e08201356002811015610a4a5760e0820152610d5d6101008301610c85565b1515610100820152610d726101208301610c85565b15156101208201526001600160a01b03610d8f6101408401610b78565b16610140820152610ddb610dbe610daa610160850185610c92565b6101c06101608601526101c0850191610bc1565b610dcc610180850185610c92565b90848303610180860152610bc1565b916101a0810135601e1982360301811215610a4a570190602082359201926001600160401b038311610a4a578260051b918236038513610a4a576101a08183969594960391015281815260208082019482010193835f925b848410610e435750505050505090565b909192939495602080610e6b600193601f19868203018852610e658b88610c92565b90610bc1565b9801940194019294939190610e3356fe60808060405234610cec575f9061434c803803809161001e8285610d0b565b8339810190604081830312610cec5780516001600160401b038111610cec578101906101c082840312610cec57604051916101c083016001600160401b03811184821017610a39576040528051835261007960208201610d2e565b926020810193845261008d60408301610d2e565b93604082019485526100a160608401610d42565b92606083019384526080810151946080840195865260a08201519360a0810194855260c0830151936003851015610cec5760c0820194855260e0840151956002871015610cec5760e083019687526100fc6101008601610d56565b9a61010084019b8c526101126101208701610d56565b9b61012085019c8d526101286101408801610d42565b6101408601908152610160880151909c906001600160401b038111610cec5783610153918a01610d63565b61016087019081526101808901519097906001600160401b038111610cec578461017e918b01610d63565b61018088019081526101a08a015190996001600160401b038211610cec57019380601f86011215610cec5784516101b481610db8565b956101c26040519788610d0b565b81875260208088019260051b82010191838311610cec5760208201905b838210610cbf57505050505060206101ff916101a0890195865201610d42565b94610208610e35565b5046600103610c8857610219610e35565b5060405161022681610cf0565b5f81525f60208201525f60408201525b80515f51602061430c5f395f51905f5280546001600160a01b03199081166001600160a01b039384161790915560208301515f5160206142ec5f395f51905f52805483169184169190911790556040909201517f9e7b61f58c47dc699ac88507c4f5bb9f121c03808c5676a8078fe583e46497028054909316911617905560015f55825115610c815760095b84515160028110918215610c74575b5050610c6557815181516001600160401b0390811691168181118015929190610c2a575b5050610c1b5780516001600160401b031680610bda57505060048054610100600160481b0319164260081b68ffffffffffffffff00161790555b5160048054600160481b600160881b03191660489290921b70ffffffffffffffff000000000000000000169190911790555115610bd45760205b60ff601454911660ff8216179060ff19161760145551805190680100000000000000008211610a3957600c5482600c55808310610b52575b50600c5f9081525f5160206142cc5f395f51905f5292916020015b828210610a4d57505050506020601454166109a9575b5180601355801515908161099d575b5061098e57600a80546001600160a01b031990811633908117909255600b805482166001600160a01b0394909416939093179092556007805490921617905551600155518051906001600160401b03821161097a57610441600254610dcf565b601f811161092c575b50602090601f83116001146108c85761047a92918b91836107ec575b50508160011b915f199060031b1c19161790565b6002555b518051906001600160401b0382116108b45761049b600354610dcf565b601f811161085b575b50602090601f83116001146107f7576104d392918a91836107ec5750508160011b915f199060031b1c19161790565b6003555b519060038210156107d857600454905160028110156107c45760ff908160881b9060881b1692169071ff00000000000000000000000000000000ff1916171760045560018060a01b0390511660018060a01b0319600554161760055551600655600c5461055c61054682610db8565b916105546040519384610d0b565b808352610db8565b602082019190601f190136833751906001600160401b0382116107b0576801000000000000000082116107b0576010548260105580831061077f575b50601085525f51602061432c5f395f51905f52855b83811061076b5750505050825b600c54811015610704575f5160206142ec5f395f51905f5254604051639cd07acb60e01b815260048082018790526024820152906020908290604490829089906001600160a01b03165af19081156106f95785916106c4575b5061061d82610e1d565b819291549060031b91821b915f19901b19161790558361063c82610e1d565b90545f51602061430c5f395f51905f52546001600160a01b03169160031b1c813b156106c0578291604483926040519485938492635ca4b5b160e11b845260048401523060248401525af180156106b55761069c575b50506001016105ba565b816106a691610d0b565b6106b157835f610692565b8380fd5b6040513d84823e3d90fd5b8280fd5b90506020813d82116106f1575b816106de60209383610d0b565b810103126106ed57515f610613565b8480fd5b3d91506106d1565b6040513d87823e3d90fd5b50904360085551151560ff8019600954169116809117600955610731575b6040516134159081610eb78239f35b51601780546001600160a01b0319166001600160a01b039290921691821790551561075c5780610722565b630f58058360e11b8152600490fd5b6001906020845194019381840155016105ad565b601086525f51602061432c5f395f51905f529081019083015b8181106107a55750610598565b868155600101610798565b634e487b7160e01b85526041600452602485fd5b634e487b7160e01b88526021600452602488fd5b634e487b7160e01b87526021600452602487fd5b015190505f80610466565b60038a52818a209190601f1984168b5b818110610843575090846001959493921061082b575b505050811b016003556104d7565b01515f1960f88460031b161c191690555f808061081d565b92936020600181928786015181550195019301610807565b60038a526108a4907fc2575a0e9e593c00f959f8c92f12db2869c3395a3b0502d05e2516446f71f85b601f850160051c810191602086106108aa575b601f0160051c0190610e07565b5f6104a4565b9091508190610897565b634e487b7160e01b89526041600452602489fd5b60028b52818b209190601f1984168c5b81811061091457509084600195949392106108fc575b505050811b0160025561047e565b01515f1960f88460031b161c191690555f80806108ee565b929360206001819287860151815501950193016108d8565b60028b52610974907f405787fa12a823e0f2b7631cc41b3ba8828b3321ca811111fa75cd3aa3bb5ace601f850160051c810191602086106108aa57601f0160051c0190610e07565b5f61044a565b634e487b7160e01b8a52604160045260248afd5b635cd3202560e01b8b5260048bfd5b6127109150115f6103e1565b9a50600c5468010000000000000000811015610a395760018101600c55600c54811015610a2557600c5f5260205f20019a5f9b6109e68154610dcf565b601f8111610a05575b50600e6620b139ba30b4b760c91b0190556103d2565b610a1f90825f52601f60205f20910160051c810190610e07565b5f6109ef565b634e487b7160e01b5f52603260045260245ffd5b634e487b7160e01b5f52604160045260245ffd5b80518051906001600160401b038211610a3957610a6a8654610dcf565b601f8111610b22575b50602090601f8311600114610ab95792610aaa836001959460209487965f926107ec5750508160011b915f199060031b1c19161790565b87555b019401910190926103bc565b90601f19831691875f52815f20925f5b818110610b0a5750936020936001969387969383889510610af2575b505050811b018755610aad565b01515f1960f88460031b161c191690555f8080610ae5565b92936020600181928786015181550195019301610ac9565b610b4c90875f5260205f20601f850160051c810191602086106108aa57601f0160051c0190610e07565b5f610a73565b600c5f525f5160206142cc5f395f51905f529081019083015b818110610b7857506103a1565b80610b8560019254610dcf565b80610b92575b5001610b6b565b601f81118314610ba757505f81555b5f610b8b565b610bc390825f5283601f60205f20920160051c82019101610e07565b805f525f6020812081835555610ba1565b5f610369565b4211610c0c575160048054610100600160481b03191660089290921b68ffffffffffffffff001691909117905561032f565b630e23577560e01b5f5260045ffd5b6348f2885560e01b5f5260045ffd5b0390506001600160401b038111610c515761012c6001600160401b03909116105f806102f5565b634e487b7160e01b5f52601160045260245ffd5b63067c912560e41b5f5260045ffd5b60ff161090505f806102d1565b600a6102c2565b4662aa36a703610c9f57610c9a610e53565b610236565b46617a6903610cb057610c9a610e53565b6373cac13b60e01b5f5260045ffd5b81516001600160401b038111610cec57602091610ce187848094880101610d63565b8152019101906101df565b5f80fd5b606081019081106001600160401b03821117610a3957604052565b601f909101601f19168101906001600160401b03821190821017610a3957604052565b51906001600160401b0382168203610cec57565b51906001600160a01b0382168203610cec57565b51908115158203610cec57565b81601f82011215610cec578051906001600160401b038211610a395760405192610d97601f8401601f191660200185610d0b565b82845260208383010111610cec57815f9260208093018386015e8301015290565b6001600160401b038111610a395760051b60200190565b90600182811c92168015610dfd575b6020831014610de957565b634e487b7160e01b5f52602260045260245ffd5b91607f1691610dde565b818110610e12575050565b5f8155600101610e07565b601054811015610a255760105f5260205f2001905f90565b60405190610e4282610cf0565b5f6040838281528260208201520152565b610e5b610e35565b50604051610e6881610cf0565b73f0ffdc93b7e186bc2f8cb3daa75d86d1930a433d81527392c920834ec8941d2c77d188936e1f7a6f49c127602082015273be0e383937d564d7ff0bc3b46c51f0bf8d5c311a60408201529056fe60806040526004361015610011575f80fd5b5f3560e01c8063025f18f01461036457806302d05d3f1461035f578063049381c81461035a578063067c0ac31461035557806309a467881461035057806309eef43e1461034b57806313e8df41146103465780631ba12c1514610341578063216b91161461033c578063227326b1146103375780632fcdf38814610332578063322e5a6b1461032d57806335515c18146103285780633890928314610323578063393047ea1461031e5780633bd694d8146103195780633c8b728f146103145780633d792d0e1461030f5780633f245c9e1461030a5780634585e33b146103055780634a79d50c146103005780634e0c72d5146102fb57806356043fc2146102f6578063587f5ed7146102f157806359f8ae6a146102ec5780635f5300ff146102e757806361a80d77146102e2578063620793d9146102dd57806365eb7d88146102d85780636bf2ffa1146102d35780636fbeaa0b146102ce57806379502c55146102c95780638217a631146102c4578063849674f7146102bf57806385bac931146102ba5780638927b030146102b55780639752a719146102b05780639dc2e85c146102ab578063a3fcfd43146102a6578063b401faf1146102a1578063be9a65551461029c578063c346c03c14610297578063c45a015514610292578063d15a76771461028d578063d1cf035414610288578063d618fae314610283578063dc8d31b61461027e578063ed25286114610279578063efbe1c1c14610274578063f1b055bb1461026f578063f5a1e5fa1461026a578063f6fd7fde146102655763fb4672b614610260575f80fd5b612103565b61202c565b611ee7565b611eaa565b611e81565b611e25565b611e08565b611db8565b611d7c565b611bc6565b611b9e565b611ac3565b611a9a565b6118e9565b6118c9565b6118a1565b611864565b6117d9565b6117b2565b61158e565b61150c565b611487565b61118a565b61116d565b610f12565b610ef5565b610eda565b610ebd565b610ea0565b610e83565b610cea565b610c4c565b610c1d565b610a6d565b610a4b565b610a29565b6109de565b6109b6565b610976565b6106f2565b61066a565b610633565b610611565b6105ef565b6105c8565b610562565b6104e7565b6104a7565b61048a565b610462565b610422565b6103fa565b61037e565b6001600160a01b0381160361037a57565b5f80fd5b3461037a57602036600319011261037a5760043561039b81610369565b600a546001600160a01b031633036103e1576001600160a01b031680156103d257601780546001600160a01b031916919091179055005b630f58058360e11b5f5260045ffd5b630636a15760e11b5f5260045ffd5b5f91031261037a57565b3461037a575f36600319011261037a576007546040516001600160a01b039091168152602090f35b3461037a57602036600319011261037a5760043561043f81610369565b60018060a01b03165f52601b602052602060ff60405f2054166040519015158152f35b3461037a575f36600319011261037a57600b546040516001600160a01b039091168152602090f35b3461037a575f36600319011261037a576020601d54604051908152f35b3461037a57602036600319011261037a576004356104c481610369565b60018060a01b03165f52600d602052602060ff60405f2054166040519015158152f35b3461037a57602036600319011261037a5760043561050481610369565b6001600160a01b03165f908152601b60209081526040808320546019835281842054601c84529382902054825160ff928316151581529384019490945290921615159181019190915280606081015b0390f35b60ff81160361037a57565b3461037a57602036600319011261037a5760ff60043561058181610557565b165f52601a602052602060405f2054604051908152f35b634e487b7160e01b5f52602160045260245ffd5b600311156105b657565b610598565b9060038210156105b65752565b3461037a575f36600319011261037a57602060ff600454166105ed60405180926105bb565bf35b3461037a575f36600319011261037a5760206004601454161515604051908152f35b3461037a575f36600319011261037a5760206008601454161515604051908152f35b3461037a575f36600319011261037a57602060ff60145416604051908152f35b600211156105b657565b9060028210156105b65752565b3461037a575f36600319011261037a57602060ff60045460881c166105ed604051809261065d565b9181601f8401121561037a578235916001600160401b03831161037a576020838186019501011161037a57565b90604060031983011261037a5760043591602435906001600160401b03821161037a576106ee91600401610692565b9091565b3461037a57610700366106bf565b6004929192546001600160401b038160081c1642106109675760481c6001600160401b031642101561095857335f908152600d60205260409020610746905b5460ff1690565b61094957600b5461078f9060209061076e906001600160a01b03165b6001600160a01b031690565b600154906040518080958194630d3e2f4960e41b8352339060048401612156565b03915afa908115610944575f91610915575b5015610906576107bc926107b691369161152e565b90612f48565b335f908152600e602052604090208190556107d6906125f7565b505f5b600c5481101561088457806108696108486108026107f8600195611807565b90549060031b1c90565b335f908152600e602052604090206108429061082b905461082560ff8816612653565b9061265f565b610833612728565b61083c5f613135565b91612741565b906127f7565b61085183611807565b90919082549060031b91821b915f19901b1916179055565b61087d6108786107f883611807565b6125f7565b50016107d9565b335f908152600d602052604090206108a4905b805460ff19166001179055565b6108b76108b260155461218e565b601555565b42337f4d99b957a2bc29a30ebd96a7be8e68fe50a3c701db28a91436490b7d53870ca45f80a36015547fa0b8d01de3a684782858ce7ee571a8267353af610c0b2822cdd968bd17d0c50e5f80a2005b633aee057960e11b5f5260045ffd5b610937915060203d60201161093d575b61092f8183611241565b81019061213e565b5f6107a1565b503d610925565b61216f565b637c9a1cf960e01b5f5260045ffd5b6348f2885560e01b5f5260045ffd5b630e23577560e01b5f5260045ffd5b3461037a57602036600319011261037a5760043561099381610369565b60018060a01b03165f52601c602052602060ff60405f2054166040519015158152f35b3461037a575f36600319011261037a576005546040516001600160a01b039091168152602090f35b3461037a575f36600319011261037a5760045460081c6001600160401b031642811115610a2057428103908111610a1b576020905b604051908152f35b61217a565b5060205f610a13565b3461037a575f36600319011261037a5760206001601454161515604051908152f35b3461037a575f36600319011261037a57602060ff601f54166040519015158152f35b3461037a57602036600319011261037a576004356001600160401b03811161037a57610a9d903690600401610692565b5050600a546001600160a01b031633036103e15760045460481c6001600160401b031642106109585760145460ff1660018116610bd65760088116610bc75760408116610bb8576048610afb911760ff1660ff196014541617601455565b5f5b600c54811015610b285780610b22610b196107f8600194611807565b61084881613228565b01610afd565b600c54610b34816121ce565b905f5b818110610b98576040517f4f45576ad072eaf166171fd27e67b193bd4cb6ff0ea9021bd0a009e93535720c9080610b6e8682612247565b0390a1427f28442a089c49bcf88892bb12a3b12f626b99d4a9a79fa407f1ec44e0add20b745f80a2005b80610ba76107f8600193611807565b610bb18286612200565b5201610b37565b633383b7e560e21b5f5260045ffd5b63e9f473a560e01b5f5260045ffd5b630e46590b60e31b5f5260045ffd5b805180835260209291819084018484015e5f828201840152601f01601f1916010190565b906020610c1a928181520190610be5565b90565b3461037a575f36600319011261037a57610553610c38611267565b604051918291602083526020830190610be5565b3461037a57602036600319011261037a57600435600c54811015610cab57601054811015610ca65760105f527f1b6847dc741a1b0cd08d278845f9d819d87b734759afb55fe2de5cb82a9ae6720154604051908152602090f35b6117f3565b63067c912560e41b5f5260045ffd5b9181601f8401121561037a578235916001600160401b03831161037a576020808501948460051b01011161037a57565b3461037a57604036600319011261037a576004356001600160401b03811161037a57610d1a903690600401610cba565b906024356001600160401b03811161037a57610d3a903690600401610cba565b610d4d610d49601f5460ff1690565b1590565b610e7457808403610e65575f5b848110610d6357005b80610d79610d746001938888612258565b612268565b6001600160a01b0381165f908152601b60205260409020610d999061073f565b80610e3b575b610dab575b5001610d5a565b610dbe610db9838688612258565b612272565b6001600160a01b0382165f90815260196020526040902054610df6610dee8360ff165f52601a60205260405f2090565b91825461227c565b905560ff610e0f610e0960125460ff1690565b60ff1690565b911614610da4576001600160a01b03165f908152601c60205260409020610e3590610897565b5f610da4565b506001600160a01b0381165f908152601c60205260409020610e6090610d499061073f565b610d9f565b6315d9c77160e21b5f5260045ffd5b63da235a1560e01b5f5260045ffd5b3461037a575f36600319011261037a576020601e54604051908152f35b3461037a575f36600319011261037a576020600c54604051908152f35b3461037a575f36600319011261037a576020601554604051908152f35b3461037a575f36600319011261037a57602060405160648152f35b3461037a575f36600319011261037a576020601354604051908152f35b3461037a57604036600319011261037a576004356001600160401b03811161037a57610f42903690600401610cba565b906024356001600160401b03811161037a57610f62903690600401610692565b926004546001600160401b038160081c164210610967576001600160401b038160481c1642101561095857335f908152600d60205260409020610fa49061073f565b6109495760029060ff16610fb7816105ac565b0361115e57600c548103610e6557831561114f57600b54610fe79060209061076e906001600160a01b0316610762565b03915afa908115610944575f91611130575b50156109065761101b61101661100d612891565b63ffffffff1690565b612732565b92611025846125f7565b50611047611034600c546121ce565b335f908152600f602052604090206122ca565b5f5b600c548110156110bf57806110976110796110676001948787612258565b35611073368b8a61152e565b90613042565b335f908152600f6020526040902061085190849061184f565b61184f565b335f908152600f602052604090206110b890610878906107f890849061184f565b5001611049565b845f5b600c54811015610884578061111a6108486110ff856110fa6107f86001976110923360018060a01b03165f52600f60205260405f2090565b6129cb565b611108816125f7565b506111156107f885611807565b6127f7565b6111296108786107f883611807565b50016110c2565b611149915060203d60201161093d5761092f8183611241565b5f610ff9565b63249969bf60e01b5f5260045ffd5b635cd3202560e01b5f5260045ffd5b3461037a575f36600319011261037a576020600154604051908152f35b3461037a575f36600319011261037a576001600160401b0360045460481c1642106109675760016014541615610bd65760ff601f541661121e576111d3610d4960095460ff1690565b61120f576111e9600160ff19601f541617601f55565b7f89f0da4faaae8f9042236e802ba802f136f43499a4f6ebb999af4fc7d7277b545f80a1005b633feafc7360e21b5f5260045ffd5b63883c108160e01b5f5260045ffd5b634e487b7160e01b5f52604160045260245ffd5b90601f801991011681019081106001600160401b0382111761126257604052565b61122d565b604051905f6002548060011c91600182168015611334575b602084108114611320578386528592602084019190811561130757506001146112b2575b506112b092500383611241565b565b60025f90815291507f405787fa12a823e0f2b7631cc41b3ba8828b3321ca811111fa75cd3aa3bb5ace5b8483106112f057506112b09350015f6112a3565b8054828401528693506020909201916001016112dc565b60ff19168252506112b093151560051b0190505f6112a3565b634e487b7160e01b5f52602260045260245ffd5b92607f169261127f565b604051905f6003548060011c916001821680156113db575b6020841081146113205783865285926020840191908115611307575060011461138657506112b092500383611241565b60035f90815291507fc2575a0e9e593c00f959f8c92f12db2869c3395a3b0502d05e2516446f71f85b5b8483106113c457506112b09350015f6112a3565b8054828401528693506020909201916001016113b0565b92607f1692611356565b999795939c9b9a9896949291908a5260208a0161018090526101808a0161140b91610be5565b89810360408b015261141c91610be5565b9a6060890161142a916105bb565b6001600160401b031660808801526001600160401b031660a087015260c086016114539161065d565b6001600160a01b0390811660e086015261010085019190915216610120830152610140820152610160016112b09115159052565b3461037a575f36600319011261037a576001546114a2611267565b906105536114ae61133e565b926004549360018060a01b036005541660065460018060a01b0360075416916008549360ff6009541695604051998a9960ff8260881c16936001600160401b038360481c169360ff6001600160401b038560081c169416928d6113e5565b3461037a575f36600319011261037a5760206002601454161515604051908152f35b9291926001600160401b0382116112625760405191611557601f8201601f191660200184611241565b82948184528183011161037a578281602093845f960137010152565b9080601f8301121561037a57816020610c1a9335910161152e565b3461037a57606036600319011261037a576004356115ab81610369565b6024356001600160401b03811161037a576115ca903690600401611573565b906044356001600160401b03811161037a576115ea903690600401611573565b90306001600160a01b03909116036117a35760145460ff16604081161561179457600116610bd657600c549082611620836121ce565b5f5b84811061176b57506116349350612a7b565b600c54611640816121ce565b915f5b8281106117515783600261165960045460ff1690565b611662816105ac565b14611717575b6116719061236c565b61168961168461167f612496565b612b77565b612401565b6116ab600161169a60145460ff1690565b1760ff1660ff196014541617601455565b7f0c2a033ac853f194d045a3b0d94054776dcbec8bcadf04d38f95b8153719f531604051806116d9816124de565b0390a17f9d7ea59f99ede768686de42a8e000e14be58b7dc7770dcec983b8e06a70eb70f6040518061170a8161251f565b0390a1611715612bfa565b005b5f5b815181101561174b578061173a61173260019385612200565b516064900490565b6117448285612200565b5201611719565b50611668565b8060019160051b6020808286010151918701015201611643565b6001919394925061177e6107f882611807565b6117888286612200565b52019184919392611622565b63eff8908b60e01b5f5260045ffd5b6349d8af8f60e11b5f5260045ffd5b3461037a575f36600319011261037a576117ca612d37565b6117d333612d55565b60015f55005b3461037a575f36600319011261037a576020610a13612edd565b634e487b7160e01b5f52603260045260245ffd5b601054811015610ca65760105f5260205f2001905f90565b601154811015610ca65760115f5260205f2001905f90565b601654811015610ca65760165f5260205f2001905f90565b8054821015610ca6575f5260205f2001905f90565b3461037a57602036600319011261037a5760043560115481101561037a5760115f525f5160206133895f395f51905f520154604051908152602090f35b3461037a575f36600319011261037a576017546040516001600160a01b039091168152602090f35b3461037a575f36600319011261037a57602060ff60125416604051908152f35b3461037a575f36600319011261037a57611901612d37565b611910610d49601f5460ff1690565b610e7457335f908152601b6020526040902061192f90610d499061073f565b611a8b57335f908152601c6020526040902061194a9061073f565b611a7c57335f9081526019602052604090205461197d61196c60125460ff1690565b60ff165f52601a60205260405f2090565b548015611a6d5761199361199892601d546122b7565b61234e565b335f908152601c602052604090206119af90610897565b6017546119c690610762906001600160a01b031681565b60405163a9059cbb60e01b81523360048201526024810183905290602090829060449082905f905af1908115610944575f91611a4e575b5015611a3f5760405190815233907f1a31e733a172afcf46074b3106c17f0c298e226442682a03c1e99ce256139ec29080602081015b0390a261171560015f55565b63022e258160e11b5f5260045ffd5b611a67915060203d60201161093d5761092f8183611241565b5f6119fd565b6330a748d360e11b5f5260045ffd5b630c8d9eab60e31b5f5260045ffd5b631d5d980160e01b5f5260045ffd5b3461037a575f36600319011261037a5760206001600160401b0360045460081c16604051908152f35b3461037a575f36600319011261037a576040515f6003548060011c9060018116908115611b94575b602083108214611320578285526020850191908115611b7b5750600114611b29575b61055384611b1d81860382611241565b60405191829182610c09565b60035f9081529250907fc2575a0e9e593c00f959f8c92f12db2869c3395a3b0502d05e2516446f71f85b5b818410611b6757505001611b1d82611b0d565b805484840152602090930192600101611b54565b60ff191682525090151560051b019050611b1d82611b0d565b91607f1691611aeb565b3461037a575f36600319011261037a57600a546040516001600160a01b039091168152602090f35b3461037a57606036600319011261037a576004356024356001600160401b03811161037a57611bf9903690600401610692565b9160443592611c06612d37565b611c15610d4960095460ff1690565b61120f576017546001600160a01b0316156103d2578315611d6d57601f5460ff1661121e57335f908152601b60205260409020611c67936107b6929091611c5b9061073f565b611d5f575b369161152e565b611c70816125f7565b50335f9081526018602090815260408083209390935560198152828220849055601b905220611c9e90610897565b611cb2611cad82601d5461227c565b601d55565b601754611cc990610762906001600160a01b031681565b6040516323b872dd60e01b81523360048201523060248201526044810183905290602090829060649082905f905af1908115610944575f91611d40575b5015611a3f5760405190815233907f1cf61c47afdbcfdedf1a1d5d009707fce7460c2bd1eac2bedb5c743a3ce48af4908060208101611a33565b611d59915060203d60201161093d5761092f8183611241565b5f611d06565b611d6833612d55565b611c60565b630103be3b60e21b5f5260045ffd5b3461037a575f36600319011261037a5760045460481c6001600160401b031642811115610a2057428103908111610a1b57602090604051908152f35b3461037a575f36600319011261037a5760a060ff60095416600180831b0360175416601d54601e549060ff601f541692604051941515855260208501526040840152606083015215156080820152f35b3461037a575f36600319011261037a576020600654604051908152f35b3461037a575f36600319011261037a57611e3d612560565b6040518091602082016020835281518091526020604084019201905f5b818110611e68575050500390f35b8251845285945060209384019390920191600101611e5a565b3461037a575f36600319011261037a5760206001600160401b0360045460481c16604051908152f35b3461037a57602036600319011261037a5760043560165481101561037a5760165f525f5160206133e95f395f51905f520154604051908152602090f35b3461037a57611ef5366106bf565b916004546001600160401b038160081c164210610967576001600160401b038160481c1642101561095857335f908152600d60205260409020611f379061073f565b6109495760019060ff16611f4a816105ac565b0361115e57600b54611f6b9060209061076e906001600160a01b0316610762565b03915afa908115610944575f9161200d575b5015610906576107b6611faa92611f9861101661100d612891565b94611fa2866125f7565b50369161152e565b611fb3816125f7565b505f5b600c548110156108845780611ff7610848611fd56107f8600195611807565b610842611fed611fe760ff8716612653565b8861265f565b8861083c5f613135565b6120066108786107f883611807565b5001611fb6565b612026915060203d60201161093d5761092f8183611241565b5f611f7d565b3461037a57602036600319011261037a57600435600c54811015610cab57600c5f5260205f2001604051905f9080548060011c91600182169182156120f9575b6020841083146113205783865260208601929081156120dc575060011461209e575b61055385611b1d81870382611241565b6120ae919293505f5260205f2090565b915f925b8184106120c857505001611b1d8261055361208e565b8054848401526020909301926001016120b2565b60ff19168352505090151560051b019050611b1d8261055361208e565b92607f169261206c565b3461037a57602036600319011261037a5760043561212081610369565b60018060a01b03165f526019602052602060405f2054604051908152f35b9081602091031261037a5751801515810361037a5790565b9081526001600160a01b03909116602082015260400190565b6040513d5f823e3d90fd5b634e487b7160e01b5f52601160045260245ffd5b5f198114610a1b5760010190565b5f19810191908211610a1b57565b91908203918211610a1b57565b6001600160401b0381116112625760051b60200190565b906121d8826121b7565b6121e56040519182611241565b82815280926121f6601f19916121b7565b0190602036910137565b8051821015610ca65760209160051b010190565b90602080835192838152019201905f5b8181106122315750505090565b8251845260209384019390920191600101612224565b906020610c1a928181520190612214565b9190811015610ca65760051b0190565b35610c1a81610369565b35610c1a81610557565b91908201809211610a1b57565b906127108202918083046127101490151715610a1b57565b90606482029180830460641490151715610a1b57565b81810292918115918404141715610a1b57565b8151916001600160401b03831161126257600160401b8311611262578154838355808410612328575b5060206123059101915f5260205f2090565b5f5b8381106123145750505050565b600190602084519401938184015501612307565b825f528360205f2091820191015b81811061234357506122f3565b5f8155600101612336565b8115612358570490565b634e487b7160e01b5f52601260045260245ffd5b8051906001600160401b03821161126257600160401b821161126257601154826011558083106123d0575b5060115f526020015f5160206133895f395f51905f525f5b8381106123bc5750505050565b6001906020845194019381840155016123af565b60115f525f5160206133895f395f51905f529081019083015b8181106123f65750612397565b5f81556001016123e9565b8051906001600160401b03821161126257600160401b82116112625760165482601655808310612465575b5060165f526020015f5160206133e95f395f51905f525f5b8381106124515750505050565b600190602084519401938184015501612444565b60165f525f5160206133e95f395f51905f529081019083015b81811061248b575061242c565b5f815560010161247e565b60405190601154808352826020810160115f5260205f20925f5b8181106124c55750506112b092500383611241565b84548352600194850194879450602090930192016124b0565b6040602082019160208152601154809352019060115f5260205f20905f5b8181106125095750505090565b82548452602090930192600192830192016124fc565b6040602082019160208152601654809352019060165f5260205f20905f5b81811061254a5750505090565b825484526020909301926001928301920161253d565b600161256e60145460ff1690565b1615610bd65761257f600c546121ce565b905f915f601154905b8181106125d7575083156125d2575f5b8181106125a6575090925050565b806125c1866119936125bc6107f860019661181f565b612289565b6125cb8286612200565b5201612598565b509150565b936125f06001916125ea6107f88861181f565b9061227c565b9401612588565b5f5160206133c95f395f51905f52546001600160a01b0316803b1561037a575f6040518092635ca4b5b160e11b8252818381612637308960048401612156565b03925af1801561094457612649575090565b5f610c1a91611241565b60ff610c1a911661308f565b5f6020916126cc938115612718575b801561270a575b5f5160206133a95f395f51905f525460405163f77f3f1d60e01b8152600481019390935260248301919091526001600160f81b031983166044830152909384926001600160a01b0390921691839182906064820190565b03925af1908115610944575f916126e1575090565b610c1a915060203d602011612703575b6126fb8183611241565b810190612882565b503d6126f1565b506127136130e2565b612675565b90506127226130e2565b9061266e565b610c1a6001613135565b63ffffffff610c1a9116613135565b9190821561277b575b610c1a92811561276b575b826131d65791506127655f613135565b916131d6565b9050612775613184565b90612755565b5f5160206133a95f395f51905f5254604051639cd07acb60e01b81525f600482018190526024820181905290945060209185916044918391906001600160a01b03165af1801561094457610c1a935f916127d8575b50925061274a565b6127f1915060203d602011612703576126fb8183611241565b5f6127d0565b5f6020916126cc938115612872575b8015612864575b5f5160206133a95f395f51905f525460405163022f65e760e31b8152600481019390935260248301919091526001600160f81b031983166044830152909384926001600160a01b0390921691839182906064820190565b5061286d613184565b61280d565b905061287c613184565b90612806565b9081602091031261037a575190565b60045460019060881c60ff166128a681610653565b1461294e575b6005546001600160a01b0316801561292057612904906020906128d7906001600160a01b0316610762565b600854604051630748d63560e31b8152336004820152602481019190915292839190829081906044820190565b03915afa908115610944575f9161292f575b5080156129205790565b631f05dadd60e21b5f5260045ffd5b612948915060203d602011612703576126fb8183611241565b5f612916565b60055461296590610762906001600160a01b031681565b6040516370a0823160e01b815233600482015290602090829060249082905afa908115610944575f916129ac575b5060065411156128ac57637222ae5760e11b5f5260045ffd5b6129c5915060203d602011612703576126fb8183611241565b5f612993565b5f6020916126cc938115612a46575b8015612a38575b5f5160206133a95f395f51905f5254604051630afe14ad60e31b8152600481019390935260248301919091526001600160f81b031983166044830152909384926001600160a01b0390921691839182906064820190565b50612a41613184565b6129e1565b9050612a50613184565b906129da565b9091612a6d610c1a93604084526040840190612214565b916020818403910152610be5565b916020612afc5f9260018060a01b037f9e7b61f58c47dc699ac88507c4f5bb9f121c03808c5676a8078fe583e46497025416906040519485809481936378542ead60e01b835260606004840152612aea612ad8606485018d612214565b8481036003190160248601528b610be5565b83810360031901604485015290610be5565b03925af1801561094457612b15915f91612b5e57501590565b612b4f577fc6366bab028b8d033cb362cfd1f2f3457ef4e92fc738b6788b90d5a7846367a091612b4a60405192839283612a56565b0390a1565b63cf6c44e960e01b5f5260045ffd5b610d49915060203d60201161093d5761092f8183611241565b612b8181516121ce565b905f925f935b8251851015612baf57612b9a8584612200565b518101809111610a1b57600190940193612b87565b9350919083612bbd57509150565b5f5b8151811015612bf35780612be286611993612bdc60019587612200565b51612289565b612bec8286612200565b5201612bbf565b5090925050565b6002612c0860145460ff1690565b16612d28576001612c176132b1565b90921015612cb7575050612c32601061169a60145460ff1690565b612c5460fb612c4360145460ff1690565b1660ff1660ff196014541617601455565b612c6560ff80196012541617601255565b612c76600261169a60145460ff1690565b60125460ff1660ff6004612c8c60145460ff1690565b16151591167f49dcecd7b8aeaed781643c3e998589873154c5eb7885bc5067f5d4d939c2bf405f80a3565b612ccb8160ff1660ff196012541617601255565b6013549081612d0257505015612cf157612cec600461169a60145460ff1690565b612c65565b612cec60fb612c4360145460ff1690565b612d119192506107f890611837565b1115612cf157612cec600461169a60145460ff1690565b6336ab81e160e11b5f5260045ffd5b60025f5414612d465760025f55565b633ee5aeb560e01b5f5260045ffd5b6001600160a01b0381165f908152601b60205260409020612d7990610d499061073f565b611a8b57601f5460ff1661121e576001600160a01b0381165f9081526019602052604090205490612db4612dac836122a1565b612710900490565b612e0b611cad612dc483866121aa565b94612dce5f61308f565b6001600160a01b0386165f9081526018602090815260408083209390935560198152828220829055601b905220805460ff19169055601d546121aa565b612e1f612e1a82601e5461227c565b601e55565b601754612e3690610762906001600160a01b031681565b60405163a9059cbb60e01b81526001600160a01b03841660048201526024810185905290602090829060449082905f905af1908115610944575f91612ebe575b5015611a3f576040805193845260208401919091526001600160a01b0391909116917f869319dc606149eff4bf53100514001178f577887c9df1c381f0cf5ef92bf3429190a2565b612ed7915060203d60201161093d5761092f8183611241565b5f612e76565b46600103612eea57600190565b4662aa36a703612efa5761271190565b617a694614612f07575f90565b5f1990565b9081526001600160a01b03909116602082015260806040820181905290939291612f3891850190610be5565b9260548210156105b65760600152565b6002602091612f9694935f612f766107626107625f5160206133a95f395f51905f525460018060a01b031690565b926040519788958694859363045fc19560e11b8552339060048601612f0c565b03925af1918215610944575f92613021575b505f5160206133c95f395f51905f52548290612fce90610762906001600160a01b031681565b803b1561037a57604051630f8e573b60e21b8152915f918391829084908290612ffc90339060048401612156565b03925af180156109445761300d5750565b8061301b5f6112b093611241565b806103f0565b61303b91925060203d602011612703576126fb8183611241565b905f612fa8565b6004602091612f9694935f6130706107626107625f5160206133a95f395f51905f525460018060a01b031690565b926040519788958694859363045fc19560e11b85523390838601612f0c565b5f5160206133a95f395f51905f5254604051639cd07acb60e01b8152600481019290925260026024830152602090829060449082905f906001600160a01b03165af1908115610944575f916126e1575090565b5f5160206133a95f395f51905f5254604051639cd07acb60e01b81525f60048201819052600260248301529091602091839160449183916001600160a01b03165af1908115610944575f916126e1575090565b60205f9160445f5160206133a95f395f51905f5254916040519485938492639cd07acb60e01b845260048401526004602484015260018060a01b03165af1908115610944575f916126e1575090565b5f5160206133a95f395f51905f5254604051639cd07acb60e01b81525f600480830182905260248301529091602091839160449183916001600160a01b03165af1908115610944575f916126e1575090565b9060646020925f60018060a01b035f5160206133a95f395f51905f5254166040519687958694637702dcff60e01b86526004860152602485015260448401525af1908115610944575f916126e1575090565b61323260016121b7565b906132406040519283611241565b6001825261324e60016121b7565b6020830190601f1901368237825115610ca657525f5160206133c95f395f51905f525461328590610762906001600160a01b031681565b803b1561037a57604051637d6e912360e11b8152915f918391829084908290612ffc9060048301612247565b60206132bf60145460ff1690565b1615613381576132d0600c5461219c565b5f915f5f925f5f91600c54925b8381106132ed5750505050929190565b8181036132fd575b6001016132dd565b939095918097939715801561336d575b1561333757505050506133226107f88261181f565b9360ff821691600194600186925b90506132f5565b919590938361334b6107f8839a969a61181f565b14613359575b600190613330565b9561336560019161218e565b969050613351565b508361337b6107f88761181f565b1161330d565b5f196132d056fe31ecc21a745e3968a04e9570e4425bc18fa8019c68028196b546d1669c200c689e7b61f58c47dc699ac88507c4f5bb9f121c03808c5676a8078fe583e46497019e7b61f58c47dc699ac88507c4f5bb9f121c03808c5676a8078fe583e4649700d833147d7dc355ba459fc788f669e58cfaf9dc25ddcd0702e87d69c7b5124289a164736f6c634300081b000adf6966c971051c3d54ec59162606531493a51404a002842f56009d7e5cf4a8c79e7b61f58c47dc699ac88507c4f5bb9f121c03808c5676a8078fe583e46497019e7b61f58c47dc699ac88507c4f5bb9f121c03808c5676a8078fe583e46497001b6847dc741a1b0cd08d278845f9d819d87b734759afb55fe2de5cb82a9ae672a164736f6c634300081b000a",
  "linkReferences": {
    "contracts/ProposalAutomation.sol": {
      "ProposalAutomation": [
        {
          "length": 20,
          "start": 813
        },
        {
          "length": 20,
          "start": 2275
        },
        {
          "length": 20,
          "start": 2531
        }
      ]
    }
  },
  "deployedLinkReferences": {
    "contracts/ProposalAutomation.sol": {
      "ProposalAutomation": [
        {
          "length": 20,
          "start": 643
        },
        {
          "length": 20,
          "start": 2105
        },
        {
          "length": 20,
          "start": 2361
        }
      ]
    }
  }
}