{
  "_format": "hh-sol-artifact-1",
  "contractName": "PrivateProposal",
  "sourceName": "contracts/PrivateProposal.sol",
  "abi": [
    {
      "inputs": [
        {
          "components": [
            {
              "internalType": "bytes32",
              "name": "spaceId",
              "type": "bytes32"
            },
            {
              "internalType": "string",
              "name": "title",
              "type": "string"
            },
            {
              "internalType": "string",
              "name": "bodyURI",
              "type": "string"
            },
            {
              "internalType": "string",
              "name": "discussionURI",
              "type": "string"
            },
            {
              "internalType": "string",
              "name": "app",
              "type": "string"
            },
            {
              "internalType": "enum ProposalType",
              "name": "pType",
              "type": "uint8"
            },
            {
              "internalType": "string[]",
              "name": "choices",
              "type": "string[]"
            },
            {
              "internalType": "uint64",
              "name": "start",
              "type": "uint64"
            },
            {
              "internalType": "uint64",
              "name": "end",
              "type": "uint64"
            },
            {
              "internalType": "address[]",
              "name": "execTargets",
              "type": "address[]"
            },
            {
              "internalType": "uint256[]",
              "name": "execValues",
              "type": "uint256[]"
            },
            {
              "internalType": "bytes[]",
              "name": "execCalldatas",
              "type": "bytes[]"
            },
            {
              "internalType": "address",
              "name": "execStrategy",
              "type": "address"
            },
            {
              "internalType": "enum EligibilityType",
              "name": "eligibilityType",
              "type": "uint8"
            },
            {
              "internalType": "address",
              "name": "eligibilityToken",
              "type": "address"
            },
            {
              "internalType": "uint256",
              "name": "eligibilityThreshold",
              "type": "uint256"
            },
            {
              "internalType": "address",
              "name": "creator",
              "type": "address"
            }
          ],
          "internalType": "struct CreateProposalParams",
          "name": "params",
          "type": "tuple"
        },
        {
          "internalType": "address",
          "name": "_spaceRegistry",
          "type": "address"
        }
      ],
      "stateMutability": "nonpayable",
      "type": "constructor"
    },
    {
      "inputs": [],
      "name": "InvalidKMSSignatures",
      "type": "error"
    },
    {
      "inputs": [],
      "name": "ZamaProtocolUnsupported",
      "type": "error"
    },
    {
      "anonymous": false,
      "inputs": [
        {
          "indexed": false,
          "internalType": "uint8",
          "name": "winningChoice",
          "type": "uint8"
        },
        {
          "indexed": false,
          "internalType": "bool",
          "name": "passed",
          "type": "bool"
        }
      ],
      "name": "ProposalResolved",
      "type": "event"
    },
    {
      "anonymous": false,
      "inputs": [
        {
          "indexed": false,
          "internalType": "bytes32[]",
          "name": "handlesList",
          "type": "bytes32[]"
        },
        {
          "indexed": false,
          "internalType": "bytes",
          "name": "abiEncodedCleartexts",
          "type": "bytes"
        }
      ],
      "name": "PublicDecryptionVerified",
      "type": "event"
    },
    {
      "anonymous": false,
      "inputs": [
        {
          "indexed": false,
          "internalType": "uint256",
          "name": "timestamp",
          "type": "uint256"
        }
      ],
      "name": "ReadyToReveal",
      "type": "event"
    },
    {
      "anonymous": false,
      "inputs": [
        {
          "indexed": false,
          "internalType": "uint256[]",
          "name": "choiceVotes",
          "type": "uint256[]"
        }
      ],
      "name": "ResultsRevealed",
      "type": "event"
    },
    {
      "anonymous": false,
      "inputs": [
        {
          "indexed": false,
          "internalType": "bytes32[]",
          "name": "choiceVoteHandles",
          "type": "bytes32[]"
        }
      ],
      "name": "TallyRevealRequested",
      "type": "event"
    },
    {
      "anonymous": false,
      "inputs": [
        {
          "indexed": true,
          "internalType": "address",
          "name": "user",
          "type": "address"
        },
        {
          "indexed": false,
          "internalType": "uint256",
          "name": "timestamp",
          "type": "uint256"
        }
      ],
      "name": "Voted",
      "type": "event"
    },
    {
      "inputs": [
        {
          "internalType": "address[]",
          "name": "users",
          "type": "address[]"
        }
      ],
      "name": "addToWhitelist",
      "outputs": [],
      "stateMutability": "nonpayable",
      "type": "function"
    },
    {
      "inputs": [],
      "name": "app",
      "outputs": [
        {
          "internalType": "string",
          "name": "",
          "type": "string"
        }
      ],
      "stateMutability": "view",
      "type": "function"
    },
    {
      "inputs": [],
      "name": "autoRevealTriggered",
      "outputs": [
        {
          "internalType": "bool",
          "name": "",
          "type": "bool"
        }
      ],
      "stateMutability": "view",
      "type": "function"
    },
    {
      "inputs": [],
      "name": "bodyURI",
      "outputs": [
        {
          "internalType": "string",
          "name": "",
          "type": "string"
        }
      ],
      "stateMutability": "view",
      "type": "function"
    },
    {
      "inputs": [
        {
          "internalType": "uint256",
          "name": "",
          "type": "uint256"
        }
      ],
      "name": "choiceVotes",
      "outputs": [
        {
          "internalType": "uint256",
          "name": "",
          "type": "uint256"
        }
      ],
      "stateMutability": "view",
      "type": "function"
    },
    {
      "inputs": [
        {
          "internalType": "uint256",
          "name": "index",
          "type": "uint256"
        }
      ],
      "name": "choices",
      "outputs": [
        {
          "internalType": "string",
          "name": "",
          "type": "string"
        }
      ],
      "stateMutability": "view",
      "type": "function"
    },
    {
      "inputs": [],
      "name": "choicesLength",
      "outputs": [
        {
          "internalType": "uint256",
          "name": "",
          "type": "uint256"
        }
      ],
      "stateMutability": "view",
      "type": "function"
    },
    {
      "inputs": [],
      "name": "confidentialProtocolId",
      "outputs": [
        {
          "internalType": "uint256",
          "name": "",
          "type": "uint256"
        }
      ],
      "stateMutability": "view",
      "type": "function"
    },
    {
      "inputs": [],
      "name": "creator",
      "outputs": [
        {
          "internalType": "address",
          "name": "",
          "type": "address"
        }
      ],
      "stateMutability": "view",
      "type": "function"
    },
    {
      "inputs": [],
      "name": "discussionURI",
      "outputs": [
        {
          "internalType": "string",
          "name": "",
          "type": "string"
        }
      ],
      "stateMutability": "view",
      "type": "function"
    },
    {
      "inputs": [],
      "name": "eligibilityThreshold",
      "outputs": [
        {
          "internalType": "uint256",
          "name": "",
          "type": "uint256"
        }
      ],
      "stateMutability": "view",
      "type": "function"
    },
    {
      "inputs": [],
      "name": "eligibilityToken",
      "outputs": [
        {
          "internalType": "address",
          "name": "",
          "type": "address"
        }
      ],
      "stateMutability": "view",
      "type": "function"
    },
    {
      "inputs": [],
      "name": "eligibilityType",
      "outputs": [
        {
          "internalType": "enum EligibilityType",
          "name": "",
          "type": "uint8"
        }
      ],
      "stateMutability": "view",
      "type": "function"
    },
    {
      "inputs": [],
      "name": "end",
      "outputs": [
        {
          "internalType": "uint64",
          "name": "",
          "type": "uint64"
        }
      ],
      "stateMutability": "view",
      "type": "function"
    },
    {
      "inputs": [
        {
          "internalType": "uint256",
          "name": "",
          "type": "uint256"
        }
      ],
      "name": "execCalldatas",
      "outputs": [
        {
          "internalType": "bytes",
          "name": "",
          "type": "bytes"
        }
      ],
      "stateMutability": "view",
      "type": "function"
    },
    {
      "inputs": [],
      "name": "execStrategy",
      "outputs": [
        {
          "internalType": "address",
          "name": "",
          "type": "address"
        }
      ],
      "stateMutability": "view",
      "type": "function"
    },
    {
      "inputs": [
        {
          "internalType": "uint256",
          "name": "",
          "type": "uint256"
        }
      ],
      "name": "execTargets",
      "outputs": [
        {
          "internalType": "address",
          "name": "",
          "type": "address"
        }
      ],
      "stateMutability": "view",
      "type": "function"
    },
    {
      "inputs": [
        {
          "internalType": "uint256",
          "name": "",
          "type": "uint256"
        }
      ],
      "name": "execValues",
      "outputs": [
        {
          "internalType": "uint256",
          "name": "",
          "type": "uint256"
        }
      ],
      "stateMutability": "view",
      "type": "function"
    },
    {
      "inputs": [],
      "name": "factory",
      "outputs": [
        {
          "internalType": "address",
          "name": "",
          "type": "address"
        }
      ],
      "stateMutability": "view",
      "type": "function"
    },
    {
      "inputs": [
        {
          "internalType": "uint256",
          "name": "choiceIndex",
          "type": "uint256"
        }
      ],
      "name": "getEncryptedChoiceVotes",
      "outputs": [
        {
          "internalType": "euint64",
          "name": "",
          "type": "bytes32"
        }
      ],
      "stateMutability": "view",
      "type": "function"
    },
    {
      "inputs": [],
      "name": "getVotePercentages",
      "outputs": [
        {
          "internalType": "uint256[]",
          "name": "",
          "type": "uint256[]"
        }
      ],
      "stateMutability": "view",
      "type": "function"
    },
    {
      "inputs": [
        {
          "internalType": "address",
          "name": "",
          "type": "address"
        }
      ],
      "name": "hasVoted",
      "outputs": [
        {
          "internalType": "bool",
          "name": "",
          "type": "bool"
        }
      ],
      "stateMutability": "view",
      "type": "function"
    },
    {
      "inputs": [],
      "name": "pType",
      "outputs": [
        {
          "internalType": "enum ProposalType",
          "name": "",
          "type": "uint8"
        }
      ],
      "stateMutability": "view",
      "type": "function"
    },
    {
      "inputs": [
        {
          "internalType": "bytes",
          "name": "",
          "type": "bytes"
        }
      ],
      "name": "performUpkeep",
      "outputs": [],
      "stateMutability": "nonpayable",
      "type": "function"
    },
    {
      "inputs": [],
      "name": "proposalPassed",
      "outputs": [
        {
          "internalType": "bool",
          "name": "",
          "type": "bool"
        }
      ],
      "stateMutability": "view",
      "type": "function"
    },
    {
      "inputs": [],
      "name": "proposalResolved",
      "outputs": [
        {
          "internalType": "bool",
          "name": "",
          "type": "bool"
        }
      ],
      "stateMutability": "view",
      "type": "function"
    },
    {
      "inputs": [
        {
          "internalType": "address[]",
          "name": "users",
          "type": "address[]"
        }
      ],
      "name": "removeFromWhitelist",
      "outputs": [],
      "stateMutability": "nonpayable",
      "type": "function"
    },
    {
      "inputs": [
        {
          "internalType": "address",
          "name": "proposalAddress",
          "type": "address"
        },
        {
          "internalType": "bytes",
          "name": "cleartexts",
          "type": "bytes"
        },
        {
          "internalType": "bytes",
          "name": "decryptionProof",
          "type": "bytes"
        }
      ],
      "name": "resolveProposalCallback",
      "outputs": [],
      "stateMutability": "nonpayable",
      "type": "function"
    },
    {
      "inputs": [],
      "name": "resultsRevealed",
      "outputs": [
        {
          "internalType": "bool",
          "name": "",
          "type": "bool"
        }
      ],
      "stateMutability": "view",
      "type": "function"
    },
    {
      "inputs": [],
      "name": "snapshotBlock",
      "outputs": [
        {
          "internalType": "uint256",
          "name": "",
          "type": "uint256"
        }
      ],
      "stateMutability": "view",
      "type": "function"
    },
    {
      "inputs": [],
      "name": "spaceId",
      "outputs": [
        {
          "internalType": "bytes32",
          "name": "",
          "type": "bytes32"
        }
      ],
      "stateMutability": "view",
      "type": "function"
    },
    {
      "inputs": [],
      "name": "spaceRegistry",
      "outputs": [
        {
          "internalType": "contract ISpaceRegistry",
          "name": "",
          "type": "address"
        }
      ],
      "stateMutability": "view",
      "type": "function"
    },
    {
      "inputs": [],
      "name": "start",
      "outputs": [
        {
          "internalType": "uint64",
          "name": "",
          "type": "uint64"
        }
      ],
      "stateMutability": "view",
      "type": "function"
    },
    {
      "inputs": [],
      "name": "timeUntilProposalEnds",
      "outputs": [
        {
          "internalType": "uint256",
          "name": "",
          "type": "uint256"
        }
      ],
      "stateMutability": "view",
      "type": "function"
    },
    {
      "inputs": [],
      "name": "timeUntilProposalStarts",
      "outputs": [
        {
          "internalType": "uint256",
          "name": "",
          "type": "uint256"
        }
      ],
      "stateMutability": "view",
      "type": "function"
    },
    {
      "inputs": [],
      "name": "title",
      "outputs": [
        {
          "internalType": "string",
          "name": "",
          "type": "string"
        }
      ],
      "stateMutability": "view",
      "type": "function"
    },
    {
      "inputs": [
        {
          "internalType": "externalEuint8",
          "name": "inputEuint8",
          "type": "bytes32"
        },
        {
          "internalType": "bytes",
          "name": "inputProof",
          "type": "bytes"
        }
      ],
      "name": "vote",
      "outputs": [],
      "stateMutability": "nonpayable",
      "type": "function"
    },
    {
      "inputs": [
        {
          "internalType": "externalEuint64[]",
          "name": "percentageInputs",
          "type": "bytes32[]"
        },
        {
          "internalType": "bytes",
          "name": "totalPercentageProof",
          "type": "bytes"
        }
      ],
      "name": "voteFractional",
      "outputs": [],
      "stateMutability": "nonpayable",
      "type": "function"
    },
    {
      "inputs": [
        {
          "internalType": "externalEuint8",
          "name": "inputEuint8",
          "type": "bytes32"
        },
        {
          "internalType": "bytes",
          "name": "inputProof",
          "type": "bytes"
        }
      ],
      "name": "voteWeightedSingle",
      "outputs": [],
      "stateMutability": "nonpayable",
      "type": "function"
    },
    {
      "inputs": [
        {
          "internalType": "address",
          "name": "",
          "type": "address"
        }
      ],
      "name": "whitelistedVoters",
      "outputs": [
        {
          "internalType": "bool",
          "name": "",
          "type": "bool"
        }
      ],
      "stateMutability": "view",
      "type": "function"
    },
    {
      "inputs": [],
      "name": "winningChoice",
      "outputs": [
        {
          "internalType": "uint8",
          "name": "",
          "type": "uint8"
        }
      ],
      "stateMutability": "view",
      "type": "function"
    }
  ],
  "bytecode": "0x608060405234610a08576147c6803803809161001c8260806113ab565b60803960408112610a08576080516001600160401b038111610a085761022081830312610a08576040519161022083016001600160401b03811184821017610ac6576040526080820151835260a08201516001600160401b038111610a085761008e9082608001908460800101611413565b602084015260c08201516001600160401b038111610a08576100b99082608001908460800101611413565b604084015260e08201516001600160401b038111610a08576100e49082608001908460800101611413565b60608401526101008201516001600160401b038111610a08576101109082608001908460800101611413565b60808401526101208201516003811015610a085760a08401526101408201516001600160401b038111610a0857826080010181608001601f82011215610a085780519061015c82611430565b9161016a60405193846113ab565b80835260208084019160051b83010190846080018211610a085760208301905b82821061135f575050505060c08401526101a76101608301611447565b60e08401526101b96101808301611447565b6101008401526101a08201516001600160401b038111610a0857826080010181608001601f82011215610a08578051906101f282611430565b9161020060405193846113ab565b80835260208084019160051b83010191846080018311610a0857602001905b828210611347575050506101208401526101c08201516001600160401b038111610a0857826080010181608001601f82011215610a085780519061026282611430565b9161027060405193846113ab565b80835260208084019160051b83010191846080018311610a0857602001905b828210611337575050506101408401526101e0820151906001600160401b038211610a085760808101609f848401011215610a0857818360800101516102d481611430565b926102e260405194856113ab565b81845260208401906080840160a0878301600586901b010111610a085760a086820101915b60a0878301600586901b010183106112e85761016088018690528787610330610200820161145b565b6101808301526102208101516004811015610a08576101a083015261037b9061020090610360610240820161145b565b6101c08501526102608101516101e08501520160800161145b565b610200820190815261038d60a061145b565b610395611523565b50466001036112b1576103a6611523565b506040516103b381611390565b5f81525f60208201525f60408201525b80515f5160206147a65f395f51905f5280546001600160a01b03199081166001600160a01b039384161790915560208301515f5160206147665f395f51905f52805483169184169190911790556040909201517f9e7b61f58c47dc699ac88507c4f5bb9f121c03808c5676a8078fe583e46497028054909316911617905560c083015151600281101590816112a5575b50156112545761010083015160e08401516001600160401b03908116911681811191908261122c575b5050156111e75760e08301516001600160401b0316806111725750600780546001600160401b031916426001600160401b03161790555b61010083015160078054600160401b600160801b03191660409290921b6fffffffffffffffff000000000000000016919091179055600f80546001600160a01b03199081163317909155601080549091166001600160a01b039283161790558151161561112d5751601180546001600160a01b0319166001600160a01b039290921691909117905580515f55602081015180519091906001600160401b038111610ac65761056260015461146f565b601f81116110df575b50602092601f821160011461107e5761059c929382915f92610e5b575b50508160011b915f199060031b1c19161790565b6001555b604081015180519091906001600160401b038111610ac6576105c360025461146f565b601f8111611030575b50602092601f8211600114610fcf576105fc929382915f92610e5b5750508160011b915f199060031b1c19161790565b6002555b606081015180519091906001600160401b038111610ac65761062360035461146f565b601f8111610f81575b50602092601f8211600114610f205761065c929382915f92610e5b5750508160011b915f199060031b1c19161790565b6003555b608081015180519091906001600160401b038111610ac65761068360045461146f565b601f8111610ec7575b50602092601f8211600114610e66576106bc929382915f92610e5b5750508160011b915f199060031b1c19161790565b6004555b60a08101516003811015610b2b5760ff80196005541691161760055560c0810151805190680100000000000000008211610ac65760065482600655808310610dd9575b5060065f9081525f5160206147865f395f51905f5292916020015b828210610d0a57610120850151805186916001600160401b038211610ac657680100000000000000008211610ac65760209060085483600855808410610cee575b500160085f5260205f205f5b838110610cd157610140850151805186916001600160401b038211610ac657680100000000000000008211610ac65760209060095483600955808410610cb5575b500160095f5260205f205f5b838110610ca15784610160810151805190680100000000000000008211610ac657600a5482600a55808310610c1f575b50600a5f9081525f5160206147465f395f51905f5292916020015b828210610b3f57610180850151600b546101a0870151918791906001600160a01b03166004841015610b2b576001600160a81b03199091161760a09290921b60ff60a01b1691909117600b556101c0810151600c80546001600160a01b0319166001600160a01b03929092169190911790556101e00151600d5560085460095481149081610b1f575b5015610ada576006546108b76108a182611430565b916108af60405193846113ab565b808352611430565b602082019190601f190136833751906001600160401b038211610ac657680100000000000000008211610ac65760155482601555808310610a82575b509060155f5260205f20915f5b828110610a6e575f5b600654811015610a3d575f5160206147665f395f51905f5254604051639cd07acb60e01b81525f60048201819052600560248301529091602091839160449183916001600160a01b03165af19081156109fd575f91610a0c575b5061096d826114f7565b819291549060031b91821b915f19901b191617905561098b816114f7565b90545f5160206147a65f395f51905f52546001600160a01b0316929160031b1c823b15610a08575f92604484926040519586938492635ca4b5b160e11b845260048401523060248401525af19182156109fd576001926109ed575b5001610909565b5f6109f7916113ab565b826109e6565b6040513d5f823e3d90fd5b5f80fd5b90506020813d8211610a35575b81610a26602093836113ab565b81010312610a08575182610963565b3d9150610a19565b5f194301438111610a5a576018556040516131a190816115a58239f35b634e487b7160e01b5f52601160045260245ffd5b600190602083519301928186015501610900565b60155f527f55f448fdea98c4d29eb340757ef0a66cd03dbb9538908a6a81d96026b71ec4759081019083015b818110610abb57506108f3565b5f8155600101610aae565b634e487b7160e01b5f52604160045260245ffd5b60405162461bcd60e51b815260206004820152601e60248201527f50726f706f73616c3a206578656320617272617973206d69736d6174636800006044820152606490fd5b9050600a54148161088c565b634e487b7160e01b5f52602160045260245ffd5b80518051906001600160401b038211610ac657610b6682610b60885461146f565b886114bd565b602090601f8311600114610bb65792610b9c836001959460209487965f92610bab5750508160011b915f199060031b1c19161790565b87555b01940191019092610803565b015190508b80610588565b90601f19831691875f52815f20925f5b818110610c075750936020936001969387969383889510610bef575b505050811b018755610b9f565b01515f1960f88460031b161c191690558a8080610be2565b92936020600181928786015181550195019301610bc6565b600a5f525f5160206147465f395f51905f529081019083015b818110610c4557506107e8565b80610c526001925461146f565b80610c5f575b5001610c38565b601f81118314610c7457505f81555b86610c58565b610c9090825f5283601f60205f20920160051c820191016114a7565b805f525f6020812081835555610c6e565b6001906020845194019381840155016107b8565b610ccb9060095f5284845f2091820191016114a7565b846107ac565b82516001600160a01b03168183015560209092019160010161076b565b610d049060085f5284845f2091820191016114a7565b8461075f565b80518051906001600160401b038211610ac657610d2b82610b60885461146f565b602090601f8311600114610d705792610d61836001959460209487965f92610bab5750508160011b915f199060031b1c19161790565b87555b0194019101909261071e565b90601f19831691875f52815f20925f5b818110610dc15750936020936001969387969383889510610da9575b505050811b018755610d64565b01515f1960f88460031b161c191690558a8080610d9c565b92936020600181928786015181550195019301610d80565b60065f525f5160206147865f395f51905f529081019083015b818110610dff5750610703565b80610e0c6001925461146f565b80610e19575b5001610df2565b601f81118314610e2e57505f81555b86610e12565b610e4a90825f5283601f60205f20920160051c820191016114a7565b805f525f6020812081835555610e28565b015190508480610588565b601f1982169360045f52805f20915f5b868110610eaf5750836001959610610e97575b505050811b016004556106c0565b01515f1960f88460031b161c19169055838080610e89565b91926020600181928685015181550194019201610e76565b60045f52610f10907f8a35acfbc15ff81a39ae7d344fd709f28e8600b4aa8c65c6b64bfe7fe36bd19b601f840160051c81019160208510610f16575b601f0160051c01906114a7565b8361068c565b9091508190610f03565b601f1982169360035f52805f20915f5b868110610f695750836001959610610f51575b505050811b01600355610660565b01515f1960f88460031b161c19169055838080610f43565b91926020600181928685015181550194019201610f30565b60035f52610fc9907fc2575a0e9e593c00f959f8c92f12db2869c3395a3b0502d05e2516446f71f85b601f840160051c81019160208510610f1657601f0160051c01906114a7565b8361062c565b601f1982169360025f52805f20915f5b8681106110185750836001959610611000575b505050811b01600255610600565b01515f1960f88460031b161c19169055838080610ff2565b91926020600181928685015181550194019201610fdf565b60025f52611078907f405787fa12a823e0f2b7631cc41b3ba8828b3321ca811111fa75cd3aa3bb5ace601f840160051c81019160208510610f1657601f0160051c01906114a7565b836105cc565b601f1982169360015f52805f20915f5b8681106110c757508360019596106110af575b505050811b016001556105a0565b01515f1960f88460031b161c191690558380806110a1565b9192602060018192868501518155019401920161108e565b60015f52611127907fb10e2d527612073b26eecdfd717e6a320cf44b4afac2b0732d9fcbe2b7fa0cf6601f840160051c81019160208510610f1657601f0160051c01906114a7565b8361056b565b60405162461bcd60e51b815260206004820152601960248201527f50726f706f73616c3a20696e76616c69642063726561746f72000000000000006044820152606490fd5b42116111a25760e0830151600780546001600160401b0319166001600160401b03929092169190911790556104b3565b60405162461bcd60e51b815260206004820152601c60248201527f50726f706f73616c3a2073746172742074696d6520696e2070617374000000006044820152606490fd5b60405162461bcd60e51b815260206004820152601860248201527f50726f706f73616c3a20696e76616c69642074696d696e6700000000000000006044820152606490fd5b0390506001600160401b038111610a5a5761012c6001600160401b039091161015848061047c565b60405162461bcd60e51b815260206004820152602360248201527f50726f706f73616c3a20696e76616c6964206e756d626572206f662063686f6960448201526263657360e81b6064820152608490fd5b600a9150111584610453565b4662aa36a7036112c8576112c3611541565b6103c3565b46617a69036112d9576112c3611541565b6373cac13b60e01b5f5260045ffd5b82516001600160401b038111610a0857828860800101019085608001603f83011215610a0857602080929161132a8293896080019060408582015191016113ce565b8152019301929050610307565b815181526020918201910161028f565b602080916113548461145b565b81520191019061021f565b81516001600160401b038111610a08576020916113858392838a60800191890101611413565b81520191019061018a565b606081019081106001600160401b03821117610ac657604052565b601f909101601f19168101906001600160401b03821190821017610ac657604052565b9192916001600160401b038211610ac657604051916113f7601f8201601f1916602001846113ab565b829481845281830111610a08578281602093845f96015e010152565b9080601f83011215610a0857815161142d926020016113ce565b90565b6001600160401b038111610ac65760051b60200190565b51906001600160401b0382168203610a0857565b51906001600160a01b0382168203610a0857565b90600182811c9216801561149d575b602083101461148957565b634e487b7160e01b5f52602260045260245ffd5b91607f169161147e565b8181106114b2575050565b5f81556001016114a7565b9190601f81116114cc57505050565b6114f5925f5260205f20906020601f840160051c83019310610f1657601f0160051c01906114a7565b565b60155481101561150f5760155f5260205f2001905f90565b634e487b7160e01b5f52603260045260245ffd5b6040519061153082611390565b5f6040838281528260208201520152565b611549611523565b5060405161155681611390565b73f0ffdc93b7e186bc2f8cb3daa75d86d1930a433d81527392c920834ec8941d2c77d188936e1f7a6f49c127602082015273be0e383937d564d7ff0bc3b46c51f0bf8d5c311a60408201529056fe60806040526004361015610011575f80fd5b5f3560e01c806302d05d3f146102a4578063067c0ac31461029f57806309eef43e1461029a57806319329e4d146102955780631f90b2a514610290578063216b91161461028b578063227326b1146102865780632fcdf3881461028157806335515c181461027c5780633bd694d8146102775780633c8b728f146102725780633d792d0e1461026d5780634585e33b1461026857806347369741146102635780634a79d50c1461025e5780634b96870a146102595780634e0c72d514610254578063548db1741461024f5780635773c0841461024a57806359f8ae6a14610245578063679cfda2146102405780636bf2ffa11461023b57806378d42bda146102365780637f649783146102315780638217a6311461022c578063849674f7146102275780638927b030146102225780639752a7191461021d578063a3fcfd4314610218578063b76564bd14610213578063be9a65551461020e578063c346c03c14610209578063c45a015514610204578063d02c0898146101ff578063d1cf0354146101fa578063dc8d31b6146101f5578063ed252861146101f0578063efbe1c1c146101eb578063f5a1e5fa146101e6578063f6fd7fde146101e15763fffeba4e146101dc575f80fd5b611aeb565b611a48565b6117de565b611786565b61172a565b61170d565b6116d1565b61162c565b611604565b61155f565b611539565b611494565b611471565b61143a565b611420565b61125a565b6111d5565b61116d565b61112d565b611111565b61104f565b611032565b610fe8565b610f82565b610efd565b610ea9565b610d5f565b610773565b610528565b6104d9565b610491565b610469565b61043d565b61040e565b6103e9565b6103c0565b610380565b610358565b610318565b6102df565b6102b7565b5f9103126102b357565b5f80fd5b346102b3575f3660031901126102b3576011546040516001600160a01b039091168152602090f35b346102b3575f3660031901126102b3576010546040516001600160a01b039091168152602090f35b6001600160a01b038116036102b357565b346102b35760203660031901126102b35760043561033581610307565b60018060a01b03165f526012602052602060ff60405f2054166040519015158152f35b346102b3575f3660031901126102b357600b546040516001600160a01b039091168152602090f35b346102b3575f3660031901126102b3576020601854604051908152f35b634e487b7160e01b5f52602160045260245ffd5b600311156103bb57565b61039d565b346102b3575f3660031901126102b35760ff6005541660405160038210156103bb576020918152f35b346102b3575f3660031901126102b357602060ff60175460101c166040519015158152f35b346102b3575f3660031901126102b357602060ff60175460281c166040519015158152f35b600411156103bb57565b346102b3575f3660031901126102b35760ff600b5460a01c1660405160048210156103bb576020918152f35b346102b3575f3660031901126102b357600c546040516001600160a01b039091168152602090f35b346102b3575f3660031901126102b3576007546001600160401b0316428111156104d0574281039081116104cb576020905b604051908152f35b611d75565b5060205f6104c3565b346102b3575f3660031901126102b357602060ff601754166040519015158152f35b9181601f840112156102b3578235916001600160401b0383116102b357602083818601950101116102b357565b346102b35760203660031901126102b3576004356001600160401b0381116102b3576105589036906004016104fb565b5050600f546001600160a01b031633036107055761059c6105946105886007546001600160401b039060401c1690565b6001600160401b031690565b421015611d89565b6105e06105db6105b86017546105c16105bc6105b88360ff1690565b1590565b611dce565b6105d260ff602883901c1615611e1a565b60201c60ff1690565b611e66565b6105fc6501000000000065ff0000000000196017541617601755565b61061664010000000064ff00000000196017541617601755565b5f5b60065481101561066e578061066861063e610634600194610e5f565b90549060031b1c90565b61064781612e00565b61065083610e5f565b90919082549060031b91821b915f19901b1916179055565b01610618565b60065461067a81611ed4565b905f5b8181106106e5576040517f4f45576ad072eaf166171fd27e67b193bd4cb6ff0ea9021bd0a009e93535720c90806106b48682611f4d565b0390a16040514281527f28442a089c49bcf88892bb12a3b12f626b99d4a9a79fa407f1ec44e0add20b7490602090a1005b806106f4610634600193610e5f565b6106fe8286611f06565b520161067d565b60405162461bcd60e51b815260206004820152601660248201527550726f706f73616c3a206f6e6c7920666163746f727960501b6044820152606490fd5b9181601f840112156102b3578235916001600160401b0383116102b3576020808501948460051b0101116102b357565b346102b35760403660031901126102b3576004356001600160401b0381116102b3576107a3903690600401610743565b906024356001600160401b0381116102b3576107c39036906004016104fb565b926107eb6001600160401b036007546107e0828216421015611f5e565b60401c164210611fa2565b335f9081526012602052604090206108129061080d906105b8905b5460ff1690565b611fe0565b610832600261082360055460ff1690565b61082c816103b1565b14612026565b61083f6006548214612069565b61084a8415156120c7565b60105461088e9060209061086e906001600160a01b03165b6001600160a01b031690565b5f54906040518080958194630d3e2f4960e41b8352339060048401612136565b03915afa8015610b79576108a9915f91610c86575b5061215a565b600b5460a01c60ff166108bb81610433565b60018103610bcc5750600c546108db90610862906001600160a01b031681565b6040516370a0823160e01b815233600482015290602090829060249082905afa8015610b7957610917915f91610bad575b50600d541115612264565b600c546109749060209061094790610862906001600160a01b03165b6108626001600160a01b03821615156122bc565b601854604051630748d63560e31b8152336004820152602481019190915292839190829081906044820190565b03915afa908115610b79576109a5916001600160401b03915f91610b7e575b5061099f811515612308565b166127bd565b926109af846127cf565b506109d16109be600654611ed4565b335f908152601460205260409020612390565b5f5b600654811015610a4e5780610a21610a036109f16001948787612414565b356109fd368b8a6111fa565b90612fdf565b335f908152601460205260409020610650908490610e94565b610e94565b335f908152601460205260409020610a4790610a4290610634908490610e94565b6127cf565b50016109d3565b845f5b600654811015610abf5780610aa9610647610a8e85610a89610634600197610a1c3360018060a01b03165f52601460205260405f2090565b61282b565b610a97816127cf565b50610aa461063485610e5f565b6128e4565b610ab8610a4261063483610e5f565b5001610a51565b335f908152601260205260409020610adf905b805460ff19166001179055565b600f54610af690610862906001600160a01b031681565b803b156102b35760405163c31af84f60e01b8152336004820152306024820152905f908290604490829084905af18015610b7957610b5f575b60405142815233907f4d99b957a2bc29a30ebd96a7be8e68fe50a3c701db28a91436490b7d53870ca490602090a2005b80610b6d5f610b7393610d01565b806102a9565b80610b2f565b61214f565b610ba0915060203d602011610ba6575b610b988183610d01565b8101906121fe565b5f610993565b503d610b8e565b610bc6915060203d602011610ba657610b988183610d01565b5f61090c565b610bd581610433565b60028103610c555750600c54610bf590610862906001600160a01b031681565b6040516370a0823160e01b815233600482015290602090829060249082905afa8015610b7957610c31915f91610c36575b50600d54111561220d565b610917565b610c4f915060203d602011610ba657610b988183610d01565b5f610c26565b80610c61600392610433565b0361091757335f908152600e60205260409020610c3190610c8190610806565b6121a6565b610ca8915060203d602011610cae575b610ca08183610d01565b81019061211e565b5f6108a3565b503d610c96565b90600182811c92168015610ce3575b6020831014610ccf57565b634e487b7160e01b5f52602260045260245ffd5b91607f1691610cc4565b634e487b7160e01b5f52604160045260245ffd5b90601f801991011681019081106001600160401b03821117610d2257604052565b610ced565b805180835260209291819084018484015e5f828201840152601f01601f1916010190565b906020610d5c928181520190610d27565b90565b346102b3575f3660031901126102b3576040515f600154610d7f81610cb5565b8084529060018116908115610e155750600114610db7575b610db383610da781850382610d01565b60405191829182610d4b565b0390f35b60015f9081527fb10e2d527612073b26eecdfd717e6a320cf44b4afac2b0732d9fcbe2b7fa0cf6939250905b808210610dfb57509091508101602001610da7610d97565b919260018160209254838588010152019101909291610de3565b60ff191660208086019190915291151560051b84019091019150610da79050610d97565b60209060031901126102b35760043590565b634e487b7160e01b5f52603260045260245ffd5b601554811015610e775760155f5260205f2001905f90565b610e4b565b601654811015610e775760165f5260205f2001905f90565b8054821015610e77575f5260205f2001905f90565b346102b357610eb736610e39565b6008548110156102b35760085f527ff3f7a9fe364faab93b216da50a3214154f22a0a2b415b23a84c8169e8b636ee301546040516001600160a01b039091168152602090f35b346102b357610f0b36610e39565b610f186006548210612424565b601554811015610e775760155f527f55f448fdea98c4d29eb340757ef0a66cd03dbb9538908a6a81d96026b71ec4750154604051908152602090f35b60206003198201126102b357600435906001600160401b0382116102b357610f7e91600401610743565b9091565b346102b357610f9036610f54565b610fa560018060a01b03601154163314612470565b5f5b818110610fb057005b80610fbe6001928486612414565b35610fc881610307565b828060a01b03165f52600e60205260405f2060ff19815416905501610fa7565b346102b357610ff636610e39565b6009548110156102b35760095f527f6e1540171b6c0c960b71a7020d9f60077f6af931a8bbf590da0223dacf75c7af0154604051908152602090f35b346102b3575f3660031901126102b3576020600654604051908152f35b346102b35761105d36610e39565b600a548110156102b357600a5f5260205f2001604051905f9080549061108282610cb5565b80855291600181169081156110ea57506001146110aa575b610db384610da781860382610d01565b5f90815260208120939250905b8082106110d057509091508101602001610da78261109a565b9192600181602092548385880101520191019092916110b7565b60ff191660208087019190915292151560051b85019092019250610da7915083905061109a565b346102b3575f3660031901126102b35760205f54604051908152f35b346102b35760203660031901126102b35760043561114a81610307565b60018060a01b03165f52600e602052602060ff60405f2054166040519015158152f35b346102b35761117b36610f54565b61119060018060a01b03601154163314612470565b5f5b81811061119b57005b806111a96001928486612414565b356111b381610307565b828060a01b03165f52600e60205260405f208260ff1982541617905501611192565b346102b3575f3660031901126102b357602060ff60175460081c166040519015158152f35b9291926001600160401b038211610d225760405191611223601f8201601f191660200184610d01565b8294818452818301116102b3578281602093845f960137010152565b9080601f830112156102b357816020610d5c933591016111fa565b346102b35760603660031901126102b35760043561127781610307565b6024356001600160401b0381116102b35761129690369060040161123f565b906044356001600160401b0381116102b3576112b96112ca91369060040161123f565b916001600160a01b031630146124d0565b6112f76112f26105b86017546112ec6112e78260ff9060201c1690565b612527565b60ff1690565b612573565b600654908261130583611ed4565b5f5b8481106113f757506113199350612994565b60065461132581611ed4565b915f5b8281106113dd5783600261133e60055460ff1690565b611347816103b1565b146113a3575b611356906125e8565b611368600160ff196017541617601755565b7f0c2a033ac853f194d045a3b0d94054776dcbec8bcadf04d38f95b8153719f531604051806113968161267d565b0390a16113a1612adc565b005b5f5b81518110156113d757806113c66113be60019385611f06565b516064900490565b6113d08285611f06565b52016113a5565b5061134d565b8060019160051b6020808286010151918701015201611328565b6001919394925061140a61063482610e5f565b6114148286611f06565b52019184919392611307565b346102b3575f3660031901126102b35760206104c3612c3a565b346102b35761144836610e39565b6016548110156102b35760165f525f5160206131755f395f51905f520154604051908152602090f35b346102b3575f3660031901126102b357602060ff60175460181c16604051908152f35b346102b3575f3660031901126102b3576040515f6004546114b481610cb5565b8084529060018116908115610e1557506001146114db57610db383610da781850382610d01565b60045f9081527f8a35acfbc15ff81a39ae7d344fd709f28e8600b4aa8c65c6b64bfe7fe36bd19b939250905b80821061151f57509091508101602001610da7610d97565b919260018160209254838588010152019101909291611507565b346102b3575f3660031901126102b35760206001600160401b0360075416604051908152f35b346102b3575f3660031901126102b3576040515f60025461157f81610cb5565b8084529060018116908115610e1557506001146115a657610db383610da781850382610d01565b60025f9081527f405787fa12a823e0f2b7631cc41b3ba8828b3321ca811111fa75cd3aa3bb5ace939250905b8082106115ea57509091508101602001610da7610d97565b9192600181602092548385880101520191019092916115d2565b346102b3575f3660031901126102b357600f546040516001600160a01b039091168152602090f35b346102b3575f3660031901126102b3576040515f60035461164c81610cb5565b8084529060018116908115610e15575060011461167357610db383610da781850382610d01565b60035f9081527fc2575a0e9e593c00f959f8c92f12db2869c3395a3b0502d05e2516446f71f85b939250905b8082106116b757509091508101602001610da7610d97565b91926001816020925483858801015201910190929161169f565b346102b3575f3660031901126102b35760075460401c6001600160401b0316428111156104d0574281039081116104cb57602090604051908152f35b346102b3575f3660031901126102b3576020600d54604051908152f35b346102b3575f3660031901126102b357611742612717565b6040518091602082016020835281518091526020604084019201905f5b81811061176d575050500390f35b825184528594506020938401939092019160010161175f565b346102b3575f3660031901126102b35760206001600160401b0360075460401c16604051908152f35b9060406003198301126102b35760043591602435906001600160401b0382116102b357610f7e916004016104fb565b346102b3576117ec366117af565b916118096001600160401b036007546107e0828216421015611f5e565b335f9081526012602052604090206118289061080d906105b890610806565b611839600161082360055460ff1690565b6010546118559060209061086e906001600160a01b0316610862565b03915afa8015610b795761186f915f91610c86575061215a565b600b5460a01c60ff1661188181610433565b600181036119b35750600c546118a190610862906001600160a01b031681565b6040516370a0823160e01b815233600482015290602090829060249082905afa8015610b79576118dc915f91610bad5750600d541115612264565b600c546118fc9060209061094790610862906001600160a01b0316610933565b03915afa928315610b795761192c6001600160401b036119449561193e945f91610b7e575061099f811515612308565b94611936866127cf565b5036916111fa565b906130b4565b61194d816127cf565b505f5b600654811015610abf578061199d61064761196f610634600195610e5f565b61199761198761198160ff8716612c69565b88612cbf565b886119915f612eaa565b91612d4a565b906128e4565b6119ac610a4261063483610e5f565b5001611950565b6119bc81610433565b60028103611a1c5750600c546119dc90610862906001600160a01b031681565b6040516370a0823160e01b815233600482015290602090829060249082905afa8015610b7957611a17915f91610c365750600d54111561220d565b6118dc565b80611a28600392610433565b036118dc57335f908152600e60205260409020611a1790610c8190610806565b346102b357611a5636610e39565b6006548110611a6481612424565b15610e775760065f5260205f2001604051905f90805490611a8482610cb5565b80855291600181169081156110ea5750600114611aab57610db384610da781860382610d01565b5f90815260208120939250905b808210611ad157509091508101602001610da78261109a565b919260018160209254838588010152019101909291611ab8565b346102b357611af9366117af565b611b186001600160401b036007949394546107e0828216421015611f5e565b335f908152601260205260409020611b379061080d906105b890610806565b611b55611b4660055460ff1690565b611b4f816103b1565b15612026565b601054611b719060209061086e906001600160a01b0316610862565b03915afa8015610b7957611b8b915f91610c86575061215a565b600b5460a01c60ff16611b9d81610433565b60018103611ccf5750600c54611bbd90610862906001600160a01b031681565b6040516370a0823160e01b81523360048201529390602090859060249082905afa918215610b7957611c0161193e93611c08965f91610bad5750600d541115612264565b36916111fa565b335f908152601360205260409020555f5b600654811015611c885780611c72610647611c38610634600195610e5f565b335f90815260136020526040902061199790611c619054611c5b60ff8816612c69565b90612cbf565b611c696127b3565b6119915f612eaa565b611c81610a4261063483610e5f565b5001611c19565b335f908152601260205260409020611c9f90610ad2565b335f908152601360205260409020611cb790546127cf565b50600f54610af690610862906001600160a01b031681565b611cd881610433565b60028103611d415750600c54611cf890610862906001600160a01b031681565b6040516370a0823160e01b81523360048201529390602090859060249082905afa918215610b7957611d3c61193e93611c08965f91610c365750600d54111561220d565b611c01565b9261193e91600385611d55611c0897610433565b03611c0157335f908152600e60205260409020611d3c90610c8190610806565b634e487b7160e01b5f52601160045260245ffd5b15611d9057565b60405162461bcd60e51b815260206004820152601660248201527550726f706f73616c3a207374696c6c2061637469766560501b6044820152606490fd5b15611dd557565b60405162461bcd60e51b815260206004820152601a60248201527f50726f706f73616c3a20726573756c74732072657665616c65640000000000006044820152606490fd5b15611e2157565b60405162461bcd60e51b815260206004820152601f60248201527f50726f706f73616c3a206175746f2d72657665616c20747269676765726564006044820152606490fd5b15611e6d57565b60405162461bcd60e51b815260206004820152602260248201527f50726f706f73616c3a2072657665616c20616c72656164792072657175657374604482015261195960f21b6064820152608490fd5b6001600160401b038111610d225760051b60200190565b90611ede82611ebd565b611eeb6040519182610d01565b8281528092611efc601f1991611ebd565b0190602036910137565b8051821015610e775760209160051b010190565b90602080835192838152019201905f5b818110611f375750505090565b8251845260209384019390920191600101611f2a565b906020610d5c928181520190611f1a565b15611f6557565b60405162461bcd60e51b8152602060048201526015602482015274141c9bdc1bdcd85b0e881b9bdd081cdd185c9d1959605a1b6044820152606490fd5b15611fa957565b60405162461bcd60e51b815260206004820152600f60248201526e141c9bdc1bdcd85b0e88195b991959608a1b6044820152606490fd5b15611fe757565b60405162461bcd60e51b8152602060048201526017602482015276141c9bdc1bdcd85b0e88185b1c9958591e481d9bdd1959604a1b6044820152606490fd5b1561202d57565b60405162461bcd60e51b815260206004820152601460248201527350726f706f73616c3a2077726f6e67207479706560601b6044820152606490fd5b1561207057565b60405162461bcd60e51b815260206004820152602960248201527f50726f706f73616c3a20696e76616c69642070657263656e7461676520696e706044820152680eae840d8cadccee8d60bb1b6064820152608490fd5b156120ce57565b60405162461bcd60e51b815260206004820152602260248201527f50726f706f73616c3a206d697373696e672070657263656e746167652070726f60448201526137b360f11b6064820152608490fd5b908160209103126102b3575180151581036102b35790565b9081526001600160a01b03909116602082015260400190565b6040513d5f823e3d90fd5b1561216157565b60405162461bcd60e51b815260206004820152601c60248201527f50726f706f73616c3a206e6f742061207370616365206d656d626572000000006044820152606490fd5b156121ad57565b60405162461bcd60e51b8152602060048201526024808201527f50726f706f73616c3a206e6f742077686974656c697374656420666f7220766f60448201526374696e6760e01b6064820152608490fd5b908160209103126102b3575190565b1561221457565b60405162461bcd60e51b815260206004820152602260248201527f50726f706f73616c3a20696e73756666696369656e74204e46542062616c616e604482015261636560f01b6064820152608490fd5b1561226b57565b60405162461bcd60e51b8152602060048201526024808201527f50726f706f73616c3a20696e73756666696369656e7420746f6b656e2062616c604482015263616e636560e01b6064820152608490fd5b156122c357565b60405162461bcd60e51b815260206004820152601f60248201527f50726f706f73616c3a2049566f74657320746f6b656e207265717569726564006044820152606490fd5b1561230f57565b60405162461bcd60e51b815260206004820152602560248201527f50726f706f73616c3a206e6f20766f74696e6720706f77657220617420736e616044820152641c1cda1bdd60da1b6064820152608490fd5b9061271082029180830461271014901517156104cb57565b908160011b91808304600214901517156104cb57565b8151916001600160401b038311610d2257600160401b8311610d225781548383558084106123ee575b5060206123cb9101915f5260205f2090565b5f5b8381106123da5750505050565b6001906020845194019381840155016123cd565b825f528360205f2091820191015b81811061240957506123b9565b5f81556001016123fc565b9190811015610e775760051b0190565b1561242b57565b60405162461bcd60e51b815260206004820152601e60248201527f50726f706f73616c3a20696e76616c69642063686f69636520696e64657800006044820152606490fd5b1561247757565b60405162461bcd60e51b815260206004820152602b60248201527f50726f706f73616c3a206f6e6c792063726561746f722063616e206d616e616760448201526a19481dda1a5d195b1a5cdd60aa1b6064820152608490fd5b156124d757565b60405162461bcd60e51b815260206004820152602260248201527f50726f706f73616c3a20696e76616c69642070726f706f73616c206164647265604482015261737360f01b6064820152608490fd5b1561252e57565b60405162461bcd60e51b815260206004820152601e60248201527f50726f706f73616c3a2072657665616c206e6f742072657175657374656400006044820152606490fd5b1561257a57565b60405162461bcd60e51b815260206004820152602260248201527f50726f706f73616c3a20726573756c747320616c72656164792072657665616c604482015261195960f21b6064820152608490fd5b81156125d4570490565b634e487b7160e01b5f52601260045260245ffd5b8051906001600160401b038211610d2257600160401b8211610d22576016548260165580831061264c575b5060165f526020015f5160206131755f395f51905f525f5b8381106126385750505050565b60019060208451940193818401550161262b565b60165f525f5160206131755f395f51905f529081019083015b8181106126725750612613565b5f8155600101612665565b6040602082019160208152601654809352019060165f5260205f20905f5b8181106126a85750505090565b825484526020909301926001928301920161269b565b156126c557565b60405162461bcd60e51b815260206004820152601e60248201527f50726f706f73616c3a20726573756c7473206e6f742072657665616c656400006044820152606490fd5b919082018092116104cb57565b61272b61272660175460ff1690565b6126be565b612736600654611ed4565b905f915f601654905b8181106127935750831561278e575f5b81811061275d575090925050565b8061277d86612778612773610634600196610e7c565b612362565b6125ca565b6127878286611f06565b520161274f565b509150565b936127ac6001916127a661063488610e7c565b9061270a565b940161273f565b610d5c6001612eaa565b6001600160401b03610d5c9116612eaa565b5f5160206131555f395f51905f52546001600160a01b0316803b156102b3575f6040518092635ca4b5b160e11b825281838161280f308960048401612136565b03925af18015610b7957612821575090565b5f610d5c91610d01565b5f6020916128989381156128d4575b80156128c6575b5f5160206131355f395f51905f5254604051630afe14ad60e31b8152600481019390935260248301919091526001600160f81b031983166044830152909384926001600160a01b0390921691839182906064820190565b03925af1908115610b79575f916128ad575090565b610d5c915060203d602011610ba657610b988183610d01565b506128cf612efd565b612841565b90506128de612efd565b9061283a565b5f60209161289893811561295f575b8015612951575b5f5160206131355f395f51905f525460405163022f65e760e31b8152600481019390935260248301919091526001600160f81b031983166044830152909384926001600160a01b0390921691839182906064820190565b5061295a612efd565b6128fa565b9050612969612efd565b906128f3565b9091612986610d5c93604084526040840190611f1a565b916020818403910152610d27565b916020612a155f9260018060a01b037f9e7b61f58c47dc699ac88507c4f5bb9f121c03808c5676a8078fe583e46497025416906040519485809481936378542ead60e01b835260606004840152612a036129f1606485018d611f1a565b8481036003190160248601528b610d27565b83810360031901604485015290610d27565b03925af18015610b7957612a2e915f91612a7757501590565b612a68577fc6366bab028b8d033cb362cfd1f2f3457ef4e92fc738b6788b90d5a7846367a091612a636040519283928361296f565b0390a1565b63cf6c44e960e01b5f5260045ffd5b6105b8915060203d602011610cae57610ca08183610d01565b15612a9757565b60405162461bcd60e51b815260206004820152601a60248201527f50726f706f73616c3a20616c7265616479207265736f6c7665640000000000006044820152606490fd5b612b03612afe6105b8601754612af56127268260ff1690565b60081c60ff1690565b612a90565b6006545f805b828110612c2057505f915f905f5b818110612bea575050612b3f9063ff0000006017549160181b169063ff000000191617601755565b80612bc25750506017805462ff0000191690555b612b6761010061ff00196017541617601755565b7f49dcecd7b8aeaed781643c3e998589873154c5eb7885bc5067f5d4d939c2bf40601754612ba6612b9c8260ff9060181c1690565b9160101c60ff1690565b6040805160ff9093168352901515602083015281908101612a63565b612bce612b539261237a565b1162ff000060175491151560101b169062ff0000191617601755565b84612bf761063483610e7c565b11612c05575b600101612b17565b91509250612c1561063482610e7c565b9260ff821691612bfd565b90612c336001916127a661063485610e7c565b9101612b09565b46600103612c4757600190565b4662aa36a703612c575761271190565b617a694614612c64575f90565b5f1990565b5f5160206131355f395f51905f5254604051639cd07acb60e01b815260ff92909216600483015260026024830152602090829060449082905f906001600160a01b03165af1908115610b79575f916128ad575090565b5f602091612898938115612d3a575b8015612d2c575b5f5160206131355f395f51905f525460405163f77f3f1d60e01b8152600481019390935260248301919091526001600160f81b031983166044830152909384926001600160a01b0390921691839182906064820190565b50612d35612f50565b612cd5565b9050612d44612f50565b90612cce565b91908215612d84575b610d5c928115612d74575b826130e2579150612d6e5f612eaa565b916130e2565b9050612d7e612efd565b90612d5e565b5f5160206131355f395f51905f5254604051639cd07acb60e01b81525f600482018190526024820181905290945060209185916044918391906001600160a01b03165af18015610b7957610d5c935f91612de1575b509250612d53565b612dfa915060203d602011610ba657610b988183610d01565b5f612dd9565b612e0a6001611ebd565b90612e186040519283610d01565b60018252612e266001611ebd565b6020830190601f1901368237825115610e7757525f5160206131555f395f51905f5254612e5d90610862906001600160a01b031681565b803b156102b357604051637d6e912360e11b8152915f918391829084908290612e899060048301611f4d565b03925af18015610b7957612e9a5750565b80610b6d5f612ea893610d01565b565b5f5160206131355f395f51905f5254604051639cd07acb60e01b8152600481019290925260056024830152602090829060449082905f906001600160a01b03165af1908115610b79575f916128ad575090565b5f5160206131355f395f51905f5254604051639cd07acb60e01b81525f60048201819052600560248301529091602091839160449183916001600160a01b03165af1908115610b79575f916128ad575090565b5f5160206131355f395f51905f5254604051639cd07acb60e01b81525f60048201819052600260248301529091602091839160449183916001600160a01b03165af1908115610b79575f916128ad575090565b9081526001600160a01b03909116602082015260806040820181905290939291612fcf91850190610d27565b9260548210156103bb5760600152565b600560209161302d94935f61300d6108626108625f5160206131355f395f51905f525460018060a01b031690565b926040519788958694859363045fc19560e11b8552339060048601612fa3565b03925af1918215610b79575f92613093575b505f5160206131555f395f51905f5254829061306590610862906001600160a01b031681565b803b156102b357604051630f8e573b60e21b8152915f918391829084908290612e8990339060048401612136565b6130ad91925060203d602011610ba657610b988183610d01565b905f61303f565b600260209161302d94935f61300d6108626108625f5160206131355f395f51905f525460018060a01b031690565b9060646020925f60018060a01b035f5160206131355f395f51905f5254166040519687958694637702dcff60e01b86526004860152602485015260448401525af1908115610b79575f916128ad57509056fe9e7b61f58c47dc699ac88507c4f5bb9f121c03808c5676a8078fe583e46497019e7b61f58c47dc699ac88507c4f5bb9f121c03808c5676a8078fe583e4649700d833147d7dc355ba459fc788f669e58cfaf9dc25ddcd0702e87d69c7b5124289a164736f6c634300081b000ac65a7bb8d6351c1cf70c95a316cc6a92839c986682d98bc35f958f4883f9d2a89e7b61f58c47dc699ac88507c4f5bb9f121c03808c5676a8078fe583e4649701f652222313e28459528d920b65115c16c04f3efc82aaedc97be59f3f377c0d3f9e7b61f58c47dc699ac88507c4f5bb9f121c03808c5676a8078fe583e4649700",
  "linkReferences": {},
  "deployedLinkReferences": {}
}